:020000040800F2
:1000000060070020790100081F1200081D12000877
:1000100000000000000000000000000000000000E0
:100020000000000000000000000000002312000893
:100030000000000000000000211200082512000846
:100040008B010008000000008B0100088B010008F4
:100050008B0100085B0200088B01000865020008A4
:10006000000000008B0100088B0100088B010008D4
:100070008B0100088B0100088B01000800000000C4
:100080008B0100088B0100088B0100088B01000820
:100090008B0100088B0100088B0100088B01000810
:1000A0008B0100088B0100088B0100088B01000800
:1000B0008B0100088B01000800F002F800F04CF8FA
:1000C00012A030C8083824182D18AC4201D100F015
:1000D00043F80FCCA246AB460CA730CF2D1B083FF0
:1000E0003F197C427F1E54442D090426F441641EAE
:1000F000AC4201D300F030F80126334200D0FB1AA5
:100100003343984754465D46DFE70000A41B0000D8
:10011000C41B0000103A02D378C878C1FAD852073D
:1001200001D330C830C101D504680C6070470000AD
:10013000704700000023002400250026103A01D358
:1001400078C1FBD8520700D330C100D50B6070478F
:100150001FB51FBD10B510BD00F04DF81146FFF7DB
:10016000F7FF01F0D5FA00F065F803B4FFF7F2FFEE
:1001700003BC00F06BF800000748804707480047C1
:10018000FEE7FEE7FEE7FEE7FEE7FEE70448054977
:10019000054A064B704700002D120008B900000800
:1001A0006001002060070020600300206003002041
:1001B00001E004C0091F0429FBD28B0701D502808E
:1001C000801CC90700D00270704700290BD0C307FC
:1001D00002D00270401C491E022904D3830702D5B5
:1001E0000280801C891EE3E70022EEE70022DFE7A1
:1001F000704770477047754600F024F8AE4605001A
:1002000069465346C008C000854618B020B5FFF7C0
:10021000BDFF60BCB64600260027C0C5C0C5C0C52E
:10022000C0C5C0C5C0C5C0C5C0C5403D490849001E
:100230008D46704710B50446C046C0462046FFF7BD
:1002400094FF10BD0048704710000020014918209D
:10025000ABBEFEE726000200704780B5022000F02A
:1002600019F880BD10B50124200200F013F8E00257
:1002700000F010F8200300F00DF8600300F00AF819
:10028000A00300F007F810BDEFF3108072B6FEE790
:1002900070470000B0B50446074D2868204203D0DF
:1002A0002C60204600F00AF86868204203D06C6099
:1002B0002046FFF7EDFFB0BD0C180240704700006C
:1002C000F0B58AB009910968002900D1BCE0064662
:1002D0005E48864201D0052000E003200090002700
:1002E00007973C46089710E00A432A607F1C09984C
:1002F00001680846F840089A08320892079A121DC9
:100300000792A41C002800D19EE001250295BD4063
:100310002940EBD003970191324603231846A040B1
:10032000C14327460998446820461840461E012EBE
:1003300006910594049710D893680B400999CE68EC
:10034000BE401E439660E306DB0F039FBB4056682A
:10035000AE431E435660164607E003281646039F29
:1003600003D11846059A049C1DE0F36806990B40DA
:10037000099A9568049CA5401D43F5600228059ADA
:1003800011D11C20079908400F228240FB089B00D6
:10039000F3181D6A954309990A6982402A431A6233
:1003A0004A6803201040A040336806990B4003437D
:1003B00033609003800F99D003203A46824324484B
:1003C0008018026E05231B079E420AD08E4B9E4268
:1003D00005D0214B9E42009904D1022102E00299EE
:1003E00000E000211823089D2B400F259D40AA43C3
:1003F0006030994011430160154D2A6809984068A2
:10040000C30207D501990A432A606A68830207D4A8
:100410008A4306E001998A432A606A688302F7D515
:100420000A436A600B4D6A68830305D50A436A6014
:100430002A68C00306D557E78A436A602A68C00362
:1004400000D551E78A4350E70AB0F0BD000C0050D8
:10045000001802408018024000080050002A02D014
:100460001822815070472822815070476B480068DD
:100470007047C046B0B50246034640335C78022060
:10048000202C17D11C78012C14D02420587010680F
:1004900002680124A24302602203056895430560B7
:1004A00002680A430260016821430160002018705D
:1004B00020215970B0BDB0B50246034640335C7888
:1004C0000220202C17D11C78012C14D02420587025
:1004D000106802680124A24302600F22120205681C
:1004E000954309022943016001682143016000200E
:1004F000187020215970B0BDF0B581B0002822D00D
:100500000446054640356878002804D1002028704C
:10051000204600F04BF82420687020680268012112
:100520008A4302600F221206636893430361836863
:100530001C4A13408360A368E668012E06D1CE03EF
:10054000334383600CE0012001B0F0BD2127BF02DE
:100550003B438360022E03D1CB0246681E4302E078
:10056000CB0246689E43466043680F4E1E4346607A
:10057000C3681340C360226963691343A26912020E
:100580001A43C260E269236A1343036002680A43A4
:10059000026000206064202169702063A87001B0AF
:1005A000F0BDC046FF7FFFFF0080000210B586B09F
:1005B00000681349884201D006B010BD114C206874
:1005C0000221084320602068084000900620059022
:1005D00000200490039012200290032080020190DA
:1005E0000098094801A9FFF76BFE01208005A1686A
:1005F0000143A160A16801400091009806B010BDC0
:100600000058004034100240000400501F48007899
:1006100002490A68101808607047C0465801002057
:1006200010B50124200208490A6802430A60032029
:1006300000F00CF8002801D0204610BD00F028F88A
:100640000024204610BDC0460020024070B50F4E69
:1006500031780124002916D005467D20C00001F024
:10066000DFF901464B48006801F0DAF900F0B2FC0E
:10067000032D08D8002806D10024E043294622464D
:1006800000F028F87560204670BDC04600000020CC
:1006900082B009484168012211434160416811401C
:1006A00001910199110702680A430260006808403D
:1006B0000090009802B070473C100240002805D41A
:1006C0001F21084001218140014801607047C04658
:1006D00000E100E0002805D40322034693430A4AC0
:1006E0009A1803E00C220240064BD2188007C00E75
:1006F0008901C9B28140FF238340106898430843B1
:100700001060704714ED00E000E400E0F0B581B047
:10071000032569021E4E3246143A13688B43034385
:100720001360012461020022884204D1F548016867
:100730003068400502D4104601B0F0BD0092A70217
:1007400006204843144901F06BF9201A022816D0FC
:100750003168394217D0012811D03168394212D09E
:1007600000280CD0316839420DD0001D032806D076
:1007700031683942EAD1009A104601B0F0BD2A46EC
:10078000104601B0F0BD009A104601B0F0BDC04661
:10079000147000400800002040420F00F0B587B000
:1007A000064680788007564F01D4002050E0059619
:1007B000012319073A46183A10680840049006D1F8
:1007C000106808431060106808400690069802926E
:1007D000039101931E024B4C206830432060FFF7C9
:1007E00045FE0546206830420AD1FFF73FFE401B18
:1007F0000228F7D90320059E0499002923D027E079
:10080000032000900102B8680840059E11D0B1692C
:1008100088420ED0B86801990904BA680A43BA60E0
:10082000BA688A43BA600146374A1140B960C007C6
:1008300055D1B86834490840B1690143B960002016
:100840000499002904D1029B1968039A9143196005
:100850003568E90707D1A9070DD4A90613D40121EA
:100860006A041AD428E039680322914372680A4363
:100870003A60A907F1D539680C229143B2680A435E
:100880003A60A906EBD5032109033A688A43F16867
:100890001143396001216A040ED53A681B4B1A4096
:1008A000746922433A605A1C944205D10A043B46BB
:1008B000483B1C6814431C602A050ED58C03032298
:1008C00092033B689343326913433B60A24204D1D5
:1008D0000A04483F39681143396007B0F0BDFFF79B
:1008E000C5FD0546854CB8688007A2D4FFF7BEFD5C
:1008F000401BA042F7D9009804990029A3D0A7E78C
:100900005410024000700040FFFCFFFFFFFFFF3F5C
:10091000F0B583B00D46012100281BD00191029053
:100920007548006807242040A84216D2724908681A
:10093000A04328430860714EFFF798FD07466E48B4
:1009400000682040A84208D0FFF790FDC01BB042CD
:10095000F5D90321084603B0F0BD029E3068810737
:10096000924B0CD5410703D521031A680A431A603C
:100970000F2109021A688A43B16811431960C00740
:100980001BD15D4800682040A8422CD95A4908680C
:10099000A04328430860594FFFF768FD06465648B4
:1009A00000682040A8421ED0FFF760FD801BB842BF
:1009B000F5D90321084603B0F0BD0298406803282A
:1009C0005DD8810001A251588F46C046DD0900085C
:1009D000830A00088D0A0008970A0008194608399A
:1009E0000968490559E0029A107840076F4B05D510
:1009F000200319688143D06808431860186880068E
:100A0000400F22D01A6838210A406948082A23D0AA
:100A10001A680A40102A5ED1596803220A40032A44
:100A200000D0644859684906490F491C00F0F8FF96
:100A30005E4949684904490E48435C494968490F81
:100A4000491C00F0EDFF594B06E0184608380068D5
:100A50008004410F5748C840196889093C220A4060
:100A6000274989581F220A40D0402F49086026484C
:100A70000068FFF7EBFD0146084603B0F0BD596D75
:100A80000AE0194608390968890306E01946083959
:100A90000968890101E0996D8907019900D459E736
:100AA0001968A14301431960144FFFF7DFFC0646A4
:100AB0003E4800683821014002984068C0008142E9
:100AC00000D15EE7FFF7D2FC801BB842F0D90321CA
:100AD000084603B0F0BD18680840202802D1012064
:100AE000C003B9E718680840182801D00020B3E710
:100AF0007D200002B0E7C0460020024088130000BD
:100B0000181C0008080000200400002006480068A7
:100B100026490968890A1C220A40044989581F226B
:100B20000A40D0407047C04608000020581C00080A
:100B300010B51E4C20688006400F06D02268382170
:100B40000A401B48082A07D110BD083C20688004D1
:100B5000410F1848C84010BD22680A40102A15D11C
:100B6000616803220A40032A00D0124861684906DE
:100B7000490F491C00F054FF61684904490E48437D
:100B80006168490F491C00F04BFF10BD2068084008
:100B9000202802D10120C00310BD20680840182879
:100BA00001D0002010BD7D20000210BD08100240C1
:100BB00000127A000024F400F0B587B00125002867
:100BC00000D1ECE1049505900078C007F94F2AD0D8
:100BD000B868F96803252A468A4338210140102065
:100BE0004840821850425041082914D0002812D1A0
:100BF00005984268012001048A4208D005231B049D
:100C00009A4200D0DAE082043B6813433B603A68C2
:100C10000A433A60DBE03868800304D505984068F1
:100C2000002800D173E105980078800723D4059847
:100C3000007800070CD5B86838210140182971D117
:100C4000386E800704D505988069002800D15EE1E0
:100C5000059A1078400700D42EE1B8683821014089
:100C6000202974D1F86D800700D425E19068002810
:100C700000D021E14BE1B968382008401021414003
:100C8000FA6803252A4002235340CA1851425141B1
:100C9000002820D000291ED13868059AD168002983
:100CA00000D1A2E00721C9028843116901433960DC
:100CB000012001023A680A433A608402FFF7D6FB3A
:100CC00006463868204200D0A1E0FFF7CFFB801B2A
:100CD0000228F6D963E139684905059B03D5D9682F
:100CE000002900D113E17F2109027A688A435969FA
:100CF00009021143796000280DD10720C00239682C
:100D0000814318690843386038688004400FAA4955
:100D1000C140AA480160AA480068FFF797FC002874
:100D200085D0F4E0386E05998969002979D00121D0
:100D300008433866FFF79AFB0646386E800787D46B
:100D4000FFF794FB801B03250228F6D927E1012039
:100D500003900107F86B0840029006D1F86B084336
:100D6000F863F86B08400690069801919548006872
:100D7000C00513D403980402924908682043086010
:100D8000FFF774FB06468F480068204206D1FFF744
:100D90006DFB801B03250228F5D900E105988068CA
:100DA000894C012805D005285AD1F86D042101434A
:100DB000F965F86D03990843F8655BE03B688B4380
:100DC0003B6081043B688B433B60002A3AD044047B
:100DD000FFF74CFB06463868204200D023E7FFF7B8
:100DE00045FB801B6428F6D9D9E001210A02904313
:100DF00038608C02FFF73AFB06463868204200D183
:100E000015E7FFF733FB801B0228F6D9C7E07F20E8
:100E100000027968814305984069000208437860C0
:100E200005E7012188433866FFF720FB0646386E48
:100E3000800700D40CE7FFF719FB801B032502286D
:100E4000F5D9ACE04404FFF711FB064638682042B0
:100E500000D1E8E6FFF70AFB801B6428F6D99EE084
:100E6000F96D039A9143F965F96D04229143F9658F
:100E700000280CD0FFF7FAFA0646F86D800713D465
:100E8000FFF7F4FA801B0325A042F6D987E0FFF7AD
:100E9000EDFA0646F86D800706D5FFF7E7FA801BE6
:100EA0000325A042F6D97AE002980028059A03D1DA
:100EB000F86B01998843F863D469002C76D0B86840
:100EC00038210140102926D1012C20D0F8680321B7
:100ED0000140059B1A6A914219D1702101405A6A5A
:100EE000914214D17F21090201409A6A1202914273
:100EF0000DD11F2149040140DA6A9142049D4ED16F
:100F0000072149070840196B884248D14EE0049DEB
:100F1000284607B0F0BD01252906386804918843AA
:100F20003860FFF7A3FA0646022C0BD103956C0636
:100F30003868204211D0FFF799FA801B0325022858
:100F4000F6D92CE06C06386820422BD0FFF78EFAD9
:100F5000801B03250228F6D921E0F8681C490140CE
:100F6000059E20366DCE08431043190201432943E4
:100F70003143F960386804990843386003980007E2
:100F8000F9680143F960FFF771FA064638682042B4
:100F90000CD1FFF76BFA801B03250228F6D92846EF
:100FA00007B0F0BDF86809490140F96000252846FE
:100FB00007B0F0BD001002400024F400080000203B
:100FC000040000200070004088130000FCFFFEEFCA
:100FD0008C80C11F401E010E01D0012070470749BF
:100FE000074A5060074803680B40032189075918D6
:100FF000016000209060072111607047FFFFFF0033
:1010000010E000E020ED00E0B0B58421415C012952
:1010100001D10220B0BD0246843224215160016812
:101020000B680C680125AC430C606C07A3430B6094
:10103000002141661170202050600846B0BD0000BC
:10104000F0B581B0054668352A7F012A02D1022019
:1010500001B0F0BD24222A62066837683268012494
:10106000A243326007225206B36893430B43B36036
:10107000406E0028204615D00097B768B068400F32
:101080002B49095C2B4A105CC00000F0C9FC0446E7
:101090003801009F400F2649095C264A105CC000B9
:1010A00000F0BEFC28806C8037600020287720216B
:1010B000296201B0F0BDC046F0B581B00546683583
:1010C0002A7F012A02D1022001B0F0BD24222A6227
:1010D0000668376832680124A2433260072252074B
:1010E000B36893430B43B360406E0028204615D08D
:1010F0000097B768B068400F0D49095C0D4A105C55
:10110000C00000F08DFC04463801009F400F0849E4
:10111000095C084A105CC00000F082FC28806C80EA
:101120003760002028772021296201B0F0BDC04639
:10113000A81C0008A01C0008B0B500281ED004465A
:10114000054684356868002804D1002028702046B0
:1011500000F02AF824206860206801680125A9436E
:101160000160A06A002802D0204600F060F8204606
:1011700000F028F9002803D02846B0BD0120B0BDFA
:101180000920C00221684A6882434A6088682A228E
:10119000904388600868012202430A60204600F0FC
:1011A000AFF805462846B0BDB0B58EB0002408940F
:1011B00007940694059404940068DB49884201D0A2
:1011C0000EB0B0BD03940125029502A8FFF7E6FA20
:1011D000002801D0FFF758F80E48C1680D95AA0302
:1011E0001143C160C1681140019101990168042255
:1011F000114301600068104001900C940B94022090
:101200000A90302009900198034809A9FFF758F87F
:101210000EB0B0BD3410024000080050FEE7FEE7FB
:101220007047704780B5FFF7F1F980BD7047B0B5E2
:10123000816A0A070CD4CA0714D18A071CD44A074A
:1012400024D4CA062CD48A0634D44A063CD44CE0B2
:101250000122D20303685C689443826B22435A6084
:10126000CA07EAD00122520403685C689443C26A48
:1012700022435A608A07E2D50122120403685C689F
:101280009443026B22435A604A07DAD50122920442
:1012900003685C689443426B22435A60CA06D2D505
:1012A0000122120303689C689443C26B22439A6034
:1012B0008A06CAD50122520303689C689443026CD3
:1012C00022439A604A0610D5012213050268546829
:1012D0009C43456C2C4354609D4206D103235B051F
:1012E00054689C43836C23435360090607D501214E
:1012F000C904026853688B43C06C18435060B0BD8A
:10130000F0B583B00446064684360027F760FFF741
:10131000ADF803462068016809071FD528480090EA
:10132000012002904105002220461D4600F00EF9E2
:10133000002811D0EFF31080029981F31088216802
:101340000A6880239A430A6080F310882020706026
:101350000320377003B0F0BD20682B4600684007BB
:1013600025D5174800900125A9050022204600F048
:10137000EDF800281BD0EFF3108085F310880921C9
:101380004901226813688B43136080F31088EFF3E0
:10139000108085F3108821688A68AA438A6080F3E8
:1013A00010882020B0600320377003B0F0BD2020EB
:1013B0007060B060E76627673846377003B0F0BDED
:1013C000FFFFFF01F0B581B0044600680168524A92
:1013D0000A40A16823690B43616919431143E2691B
:1013E000114301600321090343688B43E1681943FA
:1013F0004160A169236A0B438168484D0D401D433C
:101400008560C36A0F218B43616A0B43C36200236B
:10141000434DA84206DC454DA84212D0444DA84297
:1014200015D00CE03F4DA84211D03F4B984206D159
:10143000404800688007000F3F4B1B5807E010230F
:1014400005E03C4800680C2303403B48C35826464F
:1014500068360125EF033948BA420FD1082B52D81C
:101460007B441B795B009F44044E204E194E4E4E28
:101470001F00FFF74BFB002814D143E0082B42D894
:101480007B441B795B009F44043E2C3E253E3E3E40
:101490002B00FFF73BFB002820D133E0FFF748FB90
:1014A00000282FD0616A00E038464900244A515A8A
:1014B00000F0B6FA400061684A08101800F0B0FA6F
:1014C0000246103A1F498A421DD201400007400FD0
:1014D000084315E0FFF72CFB002813D0616A00E0F9
:1014E00038464900164A515A00F09AFA61684A088B
:1014F000101800F095FA01461039124A914202D2B2
:101500002168C86000251048306000206067A0672F
:10151000284601B0F0BDC046F369FFCFFFF4FF11CC
:10152000FF4B0040004C00400038014000440040A8
:101530000048004054100240901C00080024F400B1
:10154000781C0008F0FF000001000100F0B585B034
:101550001F4615460E460368D9693140891B4A4229
:101560004A410021AA4222D10A9C002C22D0039198
:10157000611C24D1D9693140891B4A424A41AA429F
:1015800031D1D9693140891B4A424A41AA422AD104
:10159000D9693140891B4A424A41AA4223D1D969BB
:1015A0003140891B4A424A41AA42E3D01BE0084627
:1015B00005B0F0BDFEF75AFF032005B0F0BD402E88
:1015C000049001D0802E14D1FEF750FFC01BA04222
:1015D0000CD8049800680168C0693040801B414203
:1015E0004141A942F0D0039805B0F0BD032005B0F9
:1015F000F0BD8430019001200090C002029006E00E
:10160000C8693040801B41424141A942EBD1FEF7FD
:101610002DFFC11B0320A1423FD8049909680A6825
:101620005207EDD5CA69120739D4CA69029B1A421A
:10163000E6D0029A0A62EFF31082012181F310884A
:1016400009235B01049C246825689D43256082F37F
:101650001088EFF3108281F31088049B1B689C684C
:101660002A4D25409D60049B82F31088DA6E012A82
:101670000BD1EFF3108281F3108819680B681024E6
:10168000A3430B60049B82F310882021019CA1607E
:101690000022DA665A672270E16005B0F0BD0825C5
:1016A0000D62EFF31081009880F310880922520137
:1016B000049B1B681C6894431C6081F31088EFF343
:1016C000108180F31088049A126893680F4C1C40B4
:1016D000049B946081F31088D96E01290CD1EFF33B
:1016E0001081012282F310881A6813681024A34322
:1016F0001360049B81F310882021019A91600021DE
:10170000D96659671170D56005B0F0BDFEFFFFEFD7
:1017100098B0FEF785FF0BAD281D3021FEF766FD62
:1017200001267002FEF7F2FF002112914020109076
:1017300006910F9134020E9402270B972846FFF76B
:101740003BFA002803D0EFF3108072B6FEE7059451
:10175000069D0A95099508950720079007A8294630
:10176000FFF7D6F8002803D0EFF3108072B6FEE73B
:101770000F950E959B480168042211430160016892
:101780001140079107990168202211430160016807
:10179000114007910799016834463143016001689F
:1017A0003140079107990168394301600168394068
:1017B00007910799016808221143016000681040F1
:1017C00007900798884889492A46FEF747FE052171
:1017D000080704900E46029185492A46FEF73EFE10
:1017E000844821462A46FEF739FE834883492A4623
:1017F000FEF734FE0D951120000401900C90F002CC
:101800000B900BAF784E30463946FEF759FD0D95DB
:101810000C9520030B9030463946FEF751FD0E958E
:101820000D950C9471480B9030463946FEF748FDF3
:101830000D9503260C96212080020B906A483946AC
:10184000FEF73EFD0D950C960B966D483946FEF75A
:1018500037FD0E950D950C9465480B90049839460C
:10186000FEF72EFD0E950D9503940C940B94614894
:101870003946FEF725FD0D95019C0C9461480B90AF
:101880005C483946FEF71CFD0D950C955E480B90A3
:1018900058483946FEF714FD0D950C9405980B90A9
:1018A000049C20463946FEF70BFD0D950C95412012
:1018B00040020B9020463946FEF702FD0E950D952D
:1018C00003980C904D480B904B483946FEF7F8FCB6
:1018D0000D950C96F0020B9020463946FEF7F0FC71
:1018E0000D950C960C240B9443483946FEF7E8FC02
:1018F0000D950C96414885300B903E483946FEF7D1
:10190000DFFC029E304629462A46FEF7E3FE3046BB
:10191000FEF7D4FE0726304629462A46FEF7DAFEB1
:101920003046FEF7CBFE394839493A4A02604160F9
:1019300085600399C160056145618561C561056286
:10194000FEF7DAFD002803D0EFF3108072B6FEE751
:101950002E480021FEF78EFD002803D0EFF3108003
:1019600072B6FEE72546294800242146FEF7A3FD6E
:10197000002803D0EFF3108072B6FEE7264827490F
:10198000046244628462E122520216C00460446030
:101990008560C46004610C38FFF7CEFB002803D0DB
:1019A000EFF3108072B6FEE71B480021FFF784FBBF
:1019B000002803D0EFF3108072B6FEE7164800212E
:1019C000FFF73EFB002803D0EFF3108072B6FEE76E
:1019D0001148FFF719FB002803D0EFF3108072B60F
:1019E000FEE7FEE73410024000080050CF4300003D
:1019F000FF04000000040050000C005073030000BE
:101A0000001400500250000004A0000070000020EC
:101A1000583D500000580040C400002000380140EC
:101A200043088B421AD3002203098B4279D3030A5D
:101A30008B425ED3030B8B4242D3030C8B4227D3E2
:101A40000902FF2212BA030C8B4202D312120902BE
:101A500003D0030B8B4233D31AE0D3E0411A804109
:101A6000401C704703460B4371D443088B42F5D3A7
:101A7000002203098B4254D3030A8B4239D3030B50
:101A80008B421DD3030C8B4202D394466EE0090AAD
:101A9000C30B8B4201D3CB03C01A5241830B8B4241
:101AA00001D38B03C01A5241430B8B4201D34B032A
:101AB000C01A5241030B8B4201D30B03C01A52418F
:101AC000C30A8B4201D3CB02C01A5241830A8B4214
:101AD00001D38B02C01A5241430A8B4201D34B02FD
:101AE000C01A5241030A8B4201D30B02C01A524161
:101AF000CDD2C3098B4201D3CB01C01A5241830915
:101B00008B4201D38B01C01A524143098B4201D34E
:101B10004B01C01A524103098B4201D30B01C01A79
:101B20005241C3088B4201D3CB00C01A52418308F3
:101B30008B4201D38B00C01A524143088B4201D320
:101B40004B00C01A5241411A524110007047CA0F4F
:101B500000D04942031000D34042534000229C462B
:101B600003098B422DD3030A8B4212D38901FC2235
:101B700012BA030A8B420CD3890192118B4208D30B
:101B8000890192118B4204D3890137D0921100E070
:101B90008909C3098B4201D3CB01C01A5241830981
:101BA0008B4201D38B01C01A524143098B4201D3AE
:101BB0004B01C01A524103098B4201D30B01C01AD9
:101BC0005241C3088B4201D3CB00C01A5241830853
:101BD0008B4201D38B00C01A5241D9D243088B42A9
:101BE00001D34B00C01A5241411A00D20146524162
:101BF000104663465B1000D34042704763465B105B
:101C000000D3404201B50021004201D0C94308463B
:101C1000C046C04602BD00000000000000000000F9
:101C200000000000000000000000000000000000B4
:101C300000000000000000000100000002000000A1
:101C40000300000004000000060000000700000080
:101C50000800000009000000000000000000000073
:101C60000000000000000000010000000200000071
:101C70000300000004000000010002000400060050
:101C800008000A000C001000200040008000000145
:101C90000000000004000000020000000800000036
:101CA0000101010307010000080402040801010109
:101CB000D01C0008000000201000000014010008E3
:101CC000E01C00081000002050070000340100084C
:101CD00001000000040000000024F40000000000E7
:04000005080000B936
:00000001FF
