:020000040800F2
:100000003808002079010008BD2500081D190008E6
:1000100000000000000000000000000000000000E0
:10002000000000000000000000000000C1250008E2
:100030000000000000000000BF250008C3250008E4
:100040008B010008000000008B0100088B010008F4
:100050008B0100088B0100088B0100088B01000850
:10006000000000008B0100088B0100088B010008D4
:100070008B0100088B0100088B01000800000000C4
:100080008B0100088B0100088B0100088B01000820
:100090008B0100088B0100088B0100088B01000810
:1000A000211900088B0100088B0100088B01000852
:1000B0008B0100088B01000800F002F800F04CF8FA
:1000C00012A030C8083824182D18AC4201D100F015
:1000D00043F80FCCA246AB460CA730CF2D1B083FF0
:1000E0003F197C427F1E54442D090426F441641EAE
:1000F000AC4201D300F030F80126334200D0FB1AA5
:100100003343984754465D46DFE70000C43500009E
:10011000E4350000103A02D378C878C1FAD8520703
:1001200001D330C830C101D504680C6070470000AD
:10013000704700000023002400250026103A01D358
:1001400078C1FBD8520700D330C100D50B6070478F
:100150001FB51FBD10B510BD00F02DF81146FFF7FB
:10016000F7FF02F0BFFD00F045F803B4FFF7F2FF20
:1001700003BC00F04BF800000748804707480047E1
:10018000FEE7FEE7FEE7FEE7FEE7FEE70448054977
:10019000054A064B70470000CB250008B90000084F
:1001A00038020020380800203804002038040020DD
:1001B000704770477047754600F024F8AE4605005A
:1001C00069465346C008C000854618B020B5FFF701
:1001D000DDFF60BCB64600260027C0C5C0C5C0C54F
:1001E000C0C5C0C5C0C5C0C5C0C5403D490849005F
:1001F0008D46704710B50446C046C0462046FFF7FE
:10020000B4FF10BD004870471000002001491820BD
:10021000ABBEFEE72600020070470000E449002262
:100220000A708A87CA870B463C339A80DA801A8123
:100230005A819A81DA811A825A829A82DA821A83E0
:100240009A831A849A8488601A8568200A545A838B
:10025000DA835A84DA845A8568314A707047C04616
:1002600070B5D34C2078022809D1A068A0210122C2
:10027000134600F013FC002801D1002020704B2011
:10028000C000616809185A4802688A4200D884E0B0
:100290000068606057480178002978D10179002909
:1002A00075D14178002972D1407900286FD1524828
:1002B000417E007E08436AD1B948C2885821635AFA
:1002C0009A4203D0C288625201216170028854218F
:1002D000635A9A4203D002886252012161700289F6
:1002E0005C21635A9A4203D00289625201216170F3
:1002F000AC490B886022A55AAB4203D00B88A352AD
:10030000012262708B886422A55AAB4203D08B888D
:10031000A352012262706823E55CA04A1678AE42BF
:1003200003D01578E55401236370C58D5A23E65A2E
:10033000B54203D0C58DE55201236370058D562368
:10034000E65AB54203D0058DE55201236370058E50
:100350005E23E65AB54203D0008EE0520120607061
:100360000B8A6220255AAB4203D00B8A235201200C
:1003700060708B8A6620255AAB4203D0898A21524D
:10038000012060706920215C53788B4206D160782F
:10039000012802D12078002807D070BD517821545F
:1003A0000120607020780028F7D17C4A1078A0875F
:1003B0007B49C888E08720463C300B8883800B89C6
:1003C000C380784B1D8805819D8845815278828144
:1003D000CA8DC2810A8D0282098E4182198A818268
:1003E00000216170998AC18200F0E4F870BDC046B6
:1003F000BC010020A80000208000002080B582B051
:1004000097490878002802D0022002B080BD03205E
:10041000087088681822243100910192A0210022DE
:10042000012300F03BFC02B080BDC04670B58C4893
:10043000818C49BA8187C18C49BAC18701463C3158
:10044000028D52BA8A80428D52BACA80828D52BAC7
:100450000A81C28D52BA4A81028E52BA8A81428E74
:1004600052BACA81828E52BA0A82C28E52BA4A8265
:10047000028F52BA8A82428F52BACA820024047012
:10048000838F464A137013785B1E032B0DD8C0462A
:100490007B441B795B009F44010E1721404B0024D5
:1004A000DC804025455B1D8003E03D4B0024DC8063
:1004B0001C801C810FE0C38F394DEB804023C35A51
:1004C0002B8000242C8106E0C38F354DEB808B8878
:1004D0002B80CB882B81334B1C800AE0C38F304CA0
:1004E000E3808B882380CB8823810B892D4C23804C
:1004F0004C892C4B9C804824045B54705478641EB7
:10050000032C0CD87C4424796400A744010D151FEA
:10051000234D0024EC854C26865B2E850AE0204D79
:100520000024EC852C8505E0CC891D4DEC850C8ADA
:100530002C8500242C8607E0CC89194DEC850C8A8B
:100540002C854C8A2C8600241C8209E0CC89144D11
:10055000EC850C8A2C854C8A2C868C8A1C82CC8A51
:100560009C820F4C25880D83E5888D8325890D8419
:100570001D888D849D880D85258D4D83E58DCD83CA
:10058000248E4C841C8ACC849B8A4B8511786823EA
:10059000C15451786830417070BDC0467800002069
:1005A000C0010020100200202D4802210170704778
:1005B000B000002080B582B029480178002902D01F
:1005C000022002B080BD818F090A0173818F4173BF
:1005D000C18F090A8173C18FC17301463C318A887A
:1005E000120A02748A884274CA88120A8274CA88FB
:1005F000C2740A89120A02750A8942754A89120A66
:1006000082754A89C2758A89120A02768A89427677
:10061000CA89120A8276CA89C2760A8A120A0277BF
:100620000A8A42774A8A120A82774A8AC27702463F
:100630000C328B8A1B0A13758B8A5375CB8A1B0A63
:100640009375C98A01230370D175806818210092BF
:100650000191A021002200F06FFB02B080BDC046D6
:10066000B0000020EFF3108072B6FEE770B50146CF
:1006700024314A78022A2BD103681A680E24A24337
:100680001A601C68012294431C60446C2568124B5C
:100690001D402560046C1C2525401446AC400F4DC0
:1006A0002E6826432E60846CC56C6560046D002C3A
:1006B00005D025681D402560436D846D5C60002475
:1006C0000C704A70816B002900D08847204670BDAD
:1006D0000421C163012070BDFFFEFFFF0400024042
:1006E0002521405C70470000B0B5044600F0ECF8EE
:1006F0000546601C02D004480078041900F0E4F8B4
:10070000401BA042FAD3B0BD00000020F0B58AB073
:1007100009910968002900D1BCE006465E4886427E
:1007200001D0052000E003200090002707973C46F9
:10073000089710E00A432A607F1C09980168084660
:10074000F840089A08320892079A121D0792A41CD2
:10075000002800D19EE001250295BD402940EBD044
:1007600003970191324603231846A040C143274610
:100770000998446820461840461E012E06910594AB
:10078000049710D893680B400999CE68BE401E4369
:100790009660E306DB0F039FBB405668AE431E43E3
:1007A0005660164607E003281646039F03D11846F5
:1007B000059A049C1DE0F36806990B40099A956818
:1007C000049CA5401D43F5600228059A11D11C2008
:1007D000079908400F228240FB089B00F3181D6A0E
:1007E000954309990A6982402A431A624A6803209C
:1007F0001040A040336806990B40034333609003D8
:10080000800F99D003203A46824324488018026E14
:1008100005231B079E420AD0224B9E4205D0224B45
:100820009E42009904D1022102E0029900E00021D9
:100830001823089D2B400F259D40AA436030994006
:1008400011430160154D2A6809984068C30207D515
:1008500001990A432A606A68830207D48A4306E042
:1008600001998A432A606A688302F7D50A436A605D
:100870000B4D6A68830305D50A436A602A68C00382
:1008800006D557E78A436A602A68C00300D551E756
:100890008A4350E70AB0F0BD000C00500018024037
:1008A0008018024000040050000800500069084011
:1008B000411E88417047002A02D01822815070479B
:1008C0002822815070470000014800687047C046E8
:1008D00030020020B0B50246034640335C78022067
:1008E000202C17D11C78012C14D0242058701068AB
:1008F00002680124A2430260220305689543056053
:1009000002680A43026001682143016000201870F8
:1009100020215970B0BDB0B50246034640335C7823
:100920000220202C17D11C78012C14D024205870C0
:10093000106802680124A24302600F2212020568B7
:1009400095430902294301600168214301600020A9
:10095000187020215970B0BD70477047F0B581B054
:100960000122150201688B691C462C4066426641D3
:100970000F6880243C4067426741374304D1466C8E
:10098000012737434764CD61654265415E051646E0
:1009900000D52E46002E05D19502466C0827374318
:1009A0004764CD61654265419B05134609D4002B20
:1009B0000AD0416C0B22114201D001F037F801B08E
:1009C000F0BD2B46002BF4D15202436C02241C4391
:1009D0004464CA61416C0B221142EED1EFE780B54D
:1009E00002689169436B1268002B00D0984780BD64
:1009F00070470000F0B581B0002822D004460546BB
:100A000040356878002804D100202870204600F086
:100A1000EBF9242068702068026801218A43026093
:100A20000F2212066368934303618368194A1340D7
:100A30008360A368E668012E06D1CE03334383604A
:100A40000AE0012001B0F0BD2127BF023B438360D3
:100A5000022E01D1CB02436043680F4E1E43466015
:100A6000C3681340C360226963691343A269120219
:100A70001A43C260E269236A1343036002680A43AF
:100A8000026000206064202169702063A87001B0BA
:100A9000F0BDC046FF7FFFFF00800002F0B58BB0C5
:100AA0001E4600250A95074640377B780224202BF6
:100AB00000D0D8E0089203689A69120400D5D2E009
:100AC0003A78012A00D1CEE024227A7001243C70C9
:100AD0004564C34A11400991644A01460695099844
:100AE00085180522D2028018029005970494039578
:100AF0000791C968012900D0029D5D60FFF7E4FEFF
:100B00000746079D2B6899692022099211409A692E
:100B1000102404E02B689969099A11409A692240CF
:100B2000891809D1711CF6D0FFF7CEFE002E64D0D3
:100B3000C01BB042EED960E09969C90666D59969D3
:100B4000890619D4711C0BD0002E75D0FFF7BCFE9E
:100B5000C01BB04272D82B6899698906F6D50BE0A4
:100B60009969890608D49969890605D4996989061D
:100B700002D499698906F3D5DC610999D9610A998A
:100B8000089A914226D10124A1035A680A435A6067
:100B90009969890619D4711C0BD0002E58D0FFF723
:100BA00093FEC01BB04255D82B6899698906F6D5CB
:100BB0000BE09969890608D49969890605D4996971
:100BC000890602D499698906F3D50999D9610698ED
:100BD000089A00E006980A99491C0A910A999142DC
:100BE000059F049C039D079983D3099A7A70034655
:100BF000486C10434864184634E0059F09997970A1
:100C0000686C084368640698049C2BE000972027D2
:100C10000024284639462246334601F04FFB00287F
:100C200003D0012420460BB0F0BD2868C7610598A9
:100C300047700746069815E0FFF746FE686C09996D
:100C400008436864059F79700698B870049C09E0B1
:100C5000FFF73AFE686C099908436864059F79704C
:100C60000698B870387020460BB0F0BD0020000226
:100C7000704770477047000080B50749884200D030
:100C800080BDFFF7D3FB80BD80B50349884200D00B
:100C900080BDFFF789FC80BD1C010020F0B583B04A
:100CA0000446054640356E780220202E42D101913F
:100CB0000293089F002F21D0099900291ED0236894
:100CC0009E69360436D400932E78012E32D022202D
:100CD00068704020A8700020606461853D4BE3622D
:100CE00067623D4B63630199E164029E012E0AD164
:100CF000D2B2009FBA620022D24308E00120410232
:100D0000616403B0F0BD130A009FBB62D2B22265DA
:100D10007A68324B1340324A1140F2B21204511831
:100D2000C918012252038918796028703968F6229F
:100D30000A433A6003B0F0BDF0B583B004460546FF
:100D400040356E780220202E41D101910293089FF8
:100D5000002F21D0099900291ED023689E693604EE
:100D600035D400932E78012E31D021206870402098
:100D7000A870002060646185164BE3626762164BC1
:100D800063630199E164029E012E0AD1D2B2009FF1
:100D9000BA620022D24308E001204102616403B03C
:100DA000F0BD130A009FBB62D2B222657A680B4B7A
:100DB00013400B4A1140F2B212045118C918094AE3
:100DC0008918796028703968F2220A433A6003B0C2
:100DD000F0BDC0460000FFFFD11E0008009800FCD7
:100DE000FF03000000200001B0B586B0006818497C
:100DF000884201D006B0B0BD164D286802210843D4
:100E0000286028680840009006200590002404947B
:100E100003941220029003208002019000980E4853
:100E200001A9FFF773FC01208005A9680143A960AF
:100E3000A9680140009100981825284621462246BD
:100E400000F070F8284600F061F806B0B0BDC0466A
:100E500000580040341002400004005070477047B2
:100E60001E48007802490A68101808607047C0469A
:100E70003002002010B501242002D5490A6802433F
:100E80000A60032000F00AF8002801D0204610BDB7
:100E900000F026F80024204610BDC04670B50F4E65
:100EA00031780124002916D005467D20C00002F0CB
:100EB000F3FA0146CC48006802F0EEFA00F0A6FB17
:100EC000032D08D8002806D10024E04329462246F5
:100ED00000F028F87560204670BDC0460000002074
:100EE00082B00948416801221143416041681140C4
:100EF00001910199110702680A43026000680840E5
:100F00000090009802B070473C100240002805D4C1
:100F10001F21084001218140014801607047C046FF
:100F200000E100E0002805D40322034693430A4A67
:100F30009A1803E00C220240064BD2188007C00E1C
:100F40008901C9B28140FF23834010689843084358
:100F50001060704714ED00E000E400E0F0B581B0EF
:100F6000032569021E4E3246143A13688B4303432D
:100F70001360012461020022884204D19A4801686A
:100F80003068400502D4104601B0F0BD0092A702BF
:100F900006204843134902F07FFA201A022816D08F
:100FA0003168394217D0012811D03168394212D046
:100FB00000280CD0316839420DD0001D032806D01E
:100FC00031683942EAD1009A104601B0F0BD2A4694
:100FD000104601B0F0BD009A104601B0F0BDC04609
:100FE0001470004040420F00F0B583B00D4601215F
:100FF00000281BD00191029075480068072420400A
:10100000A84216D272490868A04328430860714E6E
:10101000FFF75AFC07466E4800682040A84208D0F7
:10102000FFF752FCC01BB042F5D90321084603B0BC
:10103000F0BD029E30688107674B0CD5410703D590
:1010400021031A680A431A600F2109021A688A43A9
:10105000B16811431960C0071BD15D48006820408A
:10106000A8422CD95A490868A04328430860594F20
:10107000FFF72AFC0646564800682040A8421ED0CA
:10108000FFF722FC801BB842F5D90321084603B0C4
:10109000F0BD0298406803285DD8810001A2515834
:1010A0008F46C046B51000085B11000865110008A6
:1010B0006F110008194608390968490559E0029A74
:1010C00010784007444B05D5200319688143D06848
:1010D0000843186018688006400F22D01A6838212B
:1010E0000A403E48082A23D01A680A40102A5ED1D6
:1010F000596803220A40032A00D039485968490632
:10110000490F491C02F0C8F9334949684904490E9E
:10111000484331494968490F491C02F0BDF92E4B3B
:1011200006E01846083800688004410F2C48C84083
:10113000196889093C220A402A4989581F220A4015
:10114000D0402949086029480068FFF7A7FE0146FA
:10115000084603B0F0BD596D0AE019460839096820
:10116000890306E0194608390968890101E0996D8B
:101170008907019900D459E71968A143014319600F
:10118000144FFFF7A1FB06461348006838210140C1
:1011900002984068C000814200D15EE7FFF794FBEF
:1011A000801BB842F0D90321084603B0F0BD18688F
:1011B0000840202802D10120C003B9E71868084080
:1011C000182801D00020B3E77D200002B0E7C04618
:1011D00000200240881300000810024000127A002C
:1011E0000024F400903600080800002004000020CD
:1011F000F0B587B00125002800D1ECE104950590F9
:101200000078C007F94F2AD0B868F96803252A4644
:101210008A433821014010204840821850425041F2
:10122000082914D0002812D1059842680120010431
:101230008A4208D005231B049A4200D0DAE08204D7
:101240003B6813433B603A680A433A60DBE0386826
:10125000800304D505984068002800D173E1059803
:101260000078800723D40598007800070CD5B8686B
:1012700038210140182971D1386E800704D50598AE
:101280008069002800D15EE1059A1078400700D4FB
:101290002EE1B86838210140202974D1F86D80070B
:1012A00000D425E19068002800D021E14BE1B96825
:1012B0003820084010214140FA6803252A400223C3
:1012C0005340CA1851425141002820D000291ED154
:1012D0003868059AD168002900D1A2E00721C90227
:1012E0008843116901433960012001023A680A43C9
:1012F0003A608402FFF7E8FA06463868204200D0D8
:10130000A1E0FFF7E1FA801B0228F6D963E1396812
:101310004905059B03D5D968002900D113E17F2138
:1013200009027A688A4359690902114379600028E1
:101330000DD10720C002396881431869084338601D
:1013400038688004400FAA49C140AA480160AA48F1
:101350000068FFF7A3FD002885D0F4E0386E0599FA
:101360008969002979D0012108433866FFF7ACFA72
:101370000646386E800787D4FFF7A6FA801B032540
:101380000228F6D927E1012003900107F86B0840F5
:10139000029006D1F86B0843F863F86B084006909A
:1013A0000698019195480068C00513D4039804027B
:1013B0009249086820430860FFF786FA06468F487E
:1013C0000068204206D1FFF77FFA801B0325022820
:1013D000F5D900E105988068894C012805D00528D9
:1013E0005AD1F86D04210143F965F86D039908435A
:1013F000F8655BE03B688B433B6081043B688B4353
:101400003B60002A3AD04404FFF75EFA064638688B
:10141000204200D023E7FFF757FA801B6428F6D953
:10142000D9E001210A02904338608C02FFF74CFAA0
:1014300006463868204200D115E7FFF745FA801BC1
:101440000228F6D9C7E07F20000279688143059819
:10145000406900020843786005E701218843386647
:10146000FFF732FA0646386E800700D40CE7FFF724
:101470002BFA801B03250228F5D9ACE04404FFF7C2
:1014800023FA06463868204200D1E8E6FFF71CFA46
:10149000801B6428F6D99EE0F96D039A9143F965A3
:1014A000F96D04229143F96500280CD0FFF70CFA7E
:1014B0000646F86D800713D4FFF706FA801B032554
:1014C000A042F6D987E0FFF7FFF90646F86D8007DE
:1014D00006D5FFF7F9F9801B0325A042F6D97AE07B
:1014E00002980028059A03D1F86B01998843F863A4
:1014F000D469002C76D0B86838210140102926D153
:10150000012C20D0F86803210140059B1A6A914202
:1015100019D1702101405A6A914214D17F210902E8
:1015200001409A6A120291420DD11F2149040140E3
:10153000DA6A9142049D4ED1072149070840196B90
:10154000884248D14EE0049D284607B0F0BD0125F1
:1015500029063868049188433860FFF7B5F90646D4
:10156000022C0BD103956C063868204211D0FFF78E
:10157000ABF9801B03250228F6D92CE06C063868ED
:1015800020422BD0FFF7A0F9801B03250228F6D9B3
:1015900021E0F8681C490140059E20366DCE0843C5
:1015A00010431902014329433143F9603868049913
:1015B0000843386003980007F9680143F960FFF7B2
:1015C00083F90646386820420CD1FFF77DF9801B6D
:1015D00003250228F6D9284607B0F0BDF868094966
:1015E0000140F9600025284607B0F0BD0010024018
:1015F0000024F400080000200400002000700040D7
:1016000088130000FCFFFEEF8C80C11F401E010EFE
:1016100001D0012070470749074A50600748036816
:101620000B400321890759180160002090600721B1
:1016300011607047FFFFFF0010E000E020ED00E0C8
:1016400070B53C22825C012A01D1022070BD0246A5
:101650003C3202235370006845688368564CA042B0
:1016600001D02E4604E00F263605B5434E682E43C2
:101670007025AE430D68354345603E4DA84204D009
:101680003E4DA84201D0A04204D18024A3438968E2
:1016900019438160002010700121517070BDC04657
:1016A00070B5002824D0044605463C3568780028EB
:1016B00004D100202870204600F06AF802206870EB
:1016C000206803683C4A904202D02A49884211D1DE
:1016D00070218B43A1681943274B98420EDC254BA0
:1016E000984214D0284B984211D090420FD03EE03F
:1016F000012070BD1946204B9842F0DD1F4A9042F0
:1017000005D01F4A904202D01E4A90422FD1032298
:101710001202914323690B4322463E322146443153
:101720008026B343A6691E430660E368C36263680C
:101730008362164BC3189B0A8605F318072B06D83D
:1017400001269E40E1231E4201D063690363012309
:1017500043610B71137053709370D3701371537195
:101760000B704B708B70CB706B70002070BD0B4694
:10177000D2E7C04600040040FF3F01400040014066
:1017800000480140004401400020004000D4FEBF5A
:1017900081B000680849884201D001B0704701203B
:1017A000C00206490A6802430A60096801400091C4
:1017B000009801B07047C046002C01404010024024
:1017C000F0B53C22825C012A01D10220F0BD024624
:1017D0003C32022353700468A0684E4B0340A36060
:1017E0000D6800234F2D1EDC1F2D37DD202D39D035
:1017F000302D37D0402D00D087E0206A256A0126A1
:10180000B5432562A569F026B543CE6836012E435F
:10181000A6610A25A843496801432162A0683E49A0
:10182000014047316BE06F2D28DD01204603B542B2
:1018300040D00003854218461CD0702D65D1FF2092
:101840000002A568854348688E68C9680643080297
:1018500030432843A060A068772139E0002D01D0F3
:10186000102D52D1A0682C4901400D430720284378
:10187000A0601846137001215170F0BD502D29D081
:10188000602D42D1206A1025A84320620F2000035A
:10189000A5698543C86800032843256AA061A02084
:1018A00085434868000128432062A0681A49014026
:1018B000673124E0FF252D02A668AE434D688F688E
:1018C000C9682F43090239433143A1608003A168ED
:1018D000014314E0206A256A0126B5432562A56903
:1018E000F026B543CE6836012E43A6610A25A843EB
:1018F000496801432162A068074901405731A1604E
:101900001846137001215170F0BD012013700121A0
:101910005170F0BD8800CEFF88FFCFFFFEE70000CA
:1019200080B50748006880694005400F03D004482F
:10193000FFF714F880BD0248FFF751F880BDC0469C
:101940001C01002080B5806A816B002901D0002233
:101950008A6301464031C26B002A01D000239363A1
:101960004A78602A07D120224A7000220A70026356
:10197000FEF7F2FF80BD00220A700263FFF738F81D
:1019800080BD0000F0B583B006464036717828224D
:101990000A400568282A21D1A969AC69AA6802927F
:1019A000EB68FE22240CC903C90FC768022F1BD1A4
:1019B00001911946029BDF0967407C07A40F1FD0E5
:1019C0000B461340002232702A68B824A2432A60D2
:1019D00001991A46FEF7C1FF03B0F0BD0020307038
:1019E0000820E86103B0F0BD002333702B68B826EF
:1019F000B3432B6014402246FEF7AFFF03B0F0BDA7
:101A0000826C521C8264826C022AEBD1064C1A460C
:101A100022400023836433700823EB610199FEF7B1
:101A20009CFF03B0F0BDC046FF030000B0B5044604
:101A3000054640356A780020A870834BE3626085D4
:101A4000636C0B4363646978283A022A0AD8282217
:101A50001140282911D0F22069781140282911D18C
:101A6000042310E0697821680A68FE239A430A601B
:101A70006A78602A0ED020220BE04220697811405B
:101A80002829EDD0B42303432168086898430860EF
:101A90002B486A706063A06B226B00281CD0212A3F
:101AA00001D0112A18D10A68520404D501229203E8
:101AB0000B6893430B60FEF713FE01281FD0002034
:101AC0002870A06B1F498163FEF7D0FD002828D045
:101AD000A06B816B8847B0BDE06B00280FD0222A35
:101AE00001D0122A0BD10A68120404D50122D203B4
:101AF0000B6893430B60FEF7F3FD012812D1687861
:101B0000602808D1202068700020287020632046BB
:101B1000FEF722FFB0BD0020287020632046FEF7AC
:101B200067FFB0BD00202870E06B06498163FEF7B7
:101B30009DFD0028F5D0E06B816B8847B0BDC046A5
:101B40006D20000845190008F0B581B00468202315
:101B5000E3610246403255785678212D07D1282579
:101B60002E40F425ED43282E0DD0AD1C0CE0222E86
:101B70000FD1557828262E40F425ED43282E00D18C
:101B8000B035122601E0B235112627682F402760B4
:101B900006636568AB4E2E40666000254563AA4E1D
:101BA000C662CE0605D51026E661466C042737438B
:101BB00047645678490705D5602E03D1616AC9B2DA
:101BC00000910099A16989070BD4A169C9070CD1BB
:101BD000A16901260E43A661416C5478602C08D19E
:101BE00017E0A562A169C907F2D0416C5478602C56
:101BF0000FD000290DD1517821290FD153700563E1
:101C0000157091789570402916D1FFF73DF801B015
:101C1000F0BD416CFFF70AFF01B0F0BD51782229F9
:101C200010D153700563157091789570402907D1D4
:101C3000FFF722F801B0F0BDFFF71CF801B0F0BDCE
:101C4000FFF717F801B0F0BD0000FFFFF0B583B05B
:101C500002910446026817680646403670782021D3
:101C60000191D161F7210140FC20C543212904D015
:101C7000222908D122212B4600E0AB1C7078106885
:101C800018401060216300950123D9035068084370
:101C9000506050686B4D05405560906980070FD4C7
:101CA0009069C007029D11D09B03780414D40F42A1
:101CB0001BD0106888431060E76B002F12D114E02E
:101CC000002090629069C007029DEDD19069184391
:101CD00090619B037804EAD5106898431060A76B65
:101CE000002F02D038684068608568070ED5606AAA
:101CF000526A0270606A401C6062228D0025002AD0
:101D000004D0501E2085608D401E6085608D0028A7
:101D100003D0606C0422024362640027B7706763DB
:101D2000606C002831D0616C2046FFF77FFE707830
:101D3000282849D14448E06227630198707067639E
:101D4000B770680712D5606A2168496A0170606AD5
:101D5000401C6062208D002808D0618D491E61857D
:101D6000401E2085606C04210143616470787078A6
:101D700020680168FE229143016037701021C16123
:101D80002046FEF775FF03B0F0BDE06A2E4A904290
:101D90000BD170780199717037702763222810D1A8
:101DA0002046FFF75BF803B0F0BD104622681568C7
:101DB000B7701D420AD10D42009B05460CD0434925
:101DC00007E02046FFF74BF803B0F0BD3E49009B0B
:101DD0000546106808401060707829280AD128202C
:101DE00070702121216337707178014028290FD04C
:101DF0000A330EE070782A2819D128207070222129
:101E00002163377071780140282909D0083308E030
:101E1000BA331068184010602046FFF720F806E03B
:101E2000B8331068184010602046FFF717F8E562D5
:101E300001987070377027632046FEF719FF03B0D2
:101E4000F0BDC04600E800FE0000FFFFB0B501682D
:101E50000C680246403200239370650403D42404C6
:101E600005D51A4C00E0184C0D6825400D605478DB
:101E7000292C0CD128245470212505631370537824
:101E80002340F422D243282B16D0921C15E054781C
:101E90002A2C10D1282454702225056313705378FE
:101EA0002340F422D243282B00D1B0320B681340D8
:101EB0000B60FEF7D3FFB0BDB2320B6813400B606E
:101EC000FEF7CDFFB0BDC046FFBFFFFFFF7FFFFFA6
:101ED000F0B583B00C4605464021405C012802D194
:101EE000022003B0F0BD16462F464037012038705F
:101EF0002240D30612D4530724D4930732D42306A6
:101F00003AD5314038D0698D002902D0298D002979
:101F100070D040212846FFF789FD90E02968102203
:101F2000CA616A6C042313436B648A69920701D502
:101F300000228A628A69D20700D080E08A6902435F
:101F40008A617CE0686A2968496A0170686A401C95
:101F50006862288D401E2885688D401E6885042093
:101F600084436CE0286D401C0DD0286D2968886280
:101F70000020C043286562E0510660D579782229A7
:101F80000ED038490DE02868696A0A788262481CD8
:101F90006862288D401E2885688D401E68854EE049
:101FA0002F49092292026B8D1B0A2F4B0DD0FF2067
:101FB00028851140E86C274A1040084329684A6880
:101FC0001A4002432548104338E06B8D02932B855D
:101FD0001140EA6C1F4B1A40029BDBB21B049A189B
:101FE0000A43296802914B681F490B40134340067E
:101FF000184322E0698D090A164A17490BD0FF20C1
:102000002885E86C10402A6853680B400343134846
:102010001843506013E06B8D01932B85E96C2B689E
:1020200002935A680C4B1A400A4B1940019BDBB2D1
:102030001B04591811434006084302994860264082
:10204000B00603D528462146FFF77EFD00203870F4
:1020500003B0F0BDFF030000009C00FC0000FF0186
:102060000024008000200080009800FCF0B583B0C0
:10207000164604464020205CE26A012802D1022074
:1020800003B0F0BD0D462046403001270290077096
:102090000E40B00609D52046294601943C46174615
:1020A000FFF7D4FD3A462746019CF0061CD4700782
:1020B00031D4300700D586E0B007029E00D4F0E0AE
:1020C000608D002800D1C2E02068616A0A788262CF
:1020D000481C6062208D401E2085608D401E6085FA
:1020E0000020307003B0F0BD608D002836D020682D
:1020F0001021C161606C0421014361646B4802429C
:10210000029E00D0CDE0616C2046FFF78FFC0020DE
:10211000307003B0F0BD608D0028029E0CD0606A64
:102120002168496A0170606A401C6062208D401E0F
:102130002085608D401E6085608D002800D0B0E055
:102140005B48824200D1ACE0206802680021B17097
:1021500053045DD412045FD5574A5AE0029E70784A
:102160005349282837D17806824234D1E1620020D1
:102170002063202171706063B070690712D5616AB5
:102180002268526A0A70616A491C6162218D0029C5
:1021900008D0628D521E6285491E2185616C042221
:1021A0000A4362647178717821680A68FE239A4351
:1021B0000A6030701020C8612046FEF759FD0020EB
:1021C000307003B0F0BD2046FFF7DCFB029E00201C
:1021D000307003B0F0BD1546727820681023C361DB
:1021E000292A5ED18D425CD08169890701D5002101
:1021F00081628169C90702D18169394381610268BD
:102200000021B17053042CD412042ED52A4A29E09F
:10221000284A0368134003607278292A28D12822AB
:10222000727021232363317073781340F421C94302
:10223000282B01D0891C00E0B23102680A400260FC
:102240002046FEF70CFE0020307003B0F0BD1748AA
:10225000024226D12046FFF7F9FD0020307003B07E
:10226000F0BD144A0368134003607278292AD6D05F
:1022700072782A2A15D128227270222323633170A2
:1022800073781340F421C943282B00D1B031026880
:102290000A4002602046FEF7E1FD0020307003B0E6
:1022A000F0BD0020307003B0F0BDC046FFFFFFFE60
:1022B0000000FFFFFFBFFFFFFF7FFFFFF0B583B010
:1022C0001C4615460E460746036899693140891B2E
:1022D0004A424A410020AA421FD1002C1FD0611C53
:1022E0002CD199693140891B4A424A41AA4214D1F2
:1022F00099693140891B4A424A41AA420DD19969E4
:102300003140891B4A424A41AA4206D1996931406B
:10231000891B4A424A41AA42E3D003B0F0BDFEF70E
:10232000D3FA38464030796C2022114379644270E8
:10233000002101708170012003B0F0BD0190089868
:102340000290FEF7C1FA0299401AA042E9D8386813
:1023500080693040801B41424141A942F1D001983F
:1023600003B0F0BDF0B58BB000240A94099459482D
:10237000016804221143016001681140059105992B
:1023800001682022114301600168114005910599FF
:1023900001680125294301600168294005910599DB
:1023A00001680222114301600168114005910599FD
:1023B00001680822039211430160006810400590F3
:1023C0000598454E454930462246FEF774FA0520E9
:1023D00002900007049042492246FEF76CFA4148F9
:1023E00029462246FEF767FA3F4840492246FEF753
:1023F00062FA08941120000401900790E802069008
:1024000006AF30463946FEF781F9089407940D204F
:102410008002069030463946FEF778F90994089410
:1024200007952E48069030463946FEF76FF9099415
:10243000089407952A48069004983946FEF766F9ED
:10244000099408940795069526483946FEF75EF9E3
:102450000894019E07962648069022483946FEF7C2
:1024600055F908940794234806901E483946FEF70C
:102470004DF90894079628020690049E3046394686
:10248000FEF744F9089407940298400206903046FB
:102490003946FEF73BF909940894079513480690CE
:1024A000114D28463946FEF731F90894032007906C
:1024B00009200003069030463946FEF727F90894B4
:1024C00007940398069028463946FEF71FF90BB08B
:1024D000F0BDC0463410024000080050CF43000059
:1024E000FF04000000040050000C005073030000C3
:1024F00002500000FCA3000010B512480021012288
:10250000114B124C046043608160C2600161416103
:102510008161C1610162FEF76DFA002801D0FEF70A
:10252000A1F808480021FEF7D5F9002801D0FEF7F0
:1025300099F804480021FEF7EEF9002801D0FEF7D3
:1025400091F810BD1C010020B57DB110005800406D
:10255000B0B588B01648802100246322154B164D73
:10256000056043608460C2600461446181610794D6
:1025700006940594FFF794F8002801D0FEF772F84E
:102580000120000304900A4804A9FFF719F9002864
:1025900001D0FEF767F8039402940194044801A95E
:1025A000FFF74EF8002801D0FEF75CF808B0B0BD88
:1025B00070010020FFF90000002C0140FEE7704789
:1025C000704780B5FEF74CFC80BD70471A208749E4
:1025D000085E7047002805D0012806D10B48801CF2
:1025E00000887047094800887047832000027047C0
:1025F0000649002804D0012805D1881D00887047AD
:10260000081D0088704700207047C04670000020F9
:1026100076480021417641838160C160016141615A
:10262000012202760162C1617047C04610B56F4C4D
:10263000607E02280BD101212176002060762222C3
:10264000A35C012B2CD0002B48D1A154B9E0607EB3
:1026500001281FD166480168E2691E32914219D9EA
:10266000032161760068E0612220215C002900D10D
:10267000B5E0012950D11A20225E2378215E9A42CA
:1026800059DA012020762170204608300021817619
:10269000017676E0607E042877D30020607674E0CF
:1026A0001A21625E615E032A26DC227891426CD197
:1026B000A060E060206160612146083102208876D8
:1026C0002078401C087601066BD12120205C002870
:1026D00079D00120E072204613306CE0022B54D1F7
:1026E0002321615C012950D160842022A15C002952
:1026F0001AD0A054217048E06278121D8A4244D159
:10270000A060E0602061606120460830022181768F
:102710006178491C417640E02021625C022A1BD38B
:1027200000232354921E1BE02122A15C00292CD0FF
:10273000A054617029E0042927DB205E6178091D1F
:10274000814222DD0120207620460830002181765A
:102750000176608B001F0DE0012A04D10022225473
:102760000023635422702121615C022904D30022DA
:102770002254881E607004E0012906D100212154F2
:10278000617021200021215429E02220205C0028B2
:1027900025D0012815D0022815D12020205C010663
:1027A00093D021460831C0B24018401E0122027069
:1027B000087E4018C01D01210170207E002805D12F
:1027C0000CE000F083FD207E002807D0002020765A
:1027D000204608301034214600F0FEF910BD00F00C
:1027E000EDFA207E0028F1D1F8E7C04678000020FD
:1027F000BC010020B0B5012809D0002818D101295A
:1028000024D1012A22D12D4C4021012540E02B4C1E
:1028100001292BD1012A29D10221012520462A464E
:10282000FEF749F8204629462A46FEF744F8B0BD8F
:10283000224C4021002520462A46FEF73CF8202164
:1028400020462A46FEF737F802212DE01B4C0129CD
:102850001CD1002A1AD1402101222046FEF72BF874
:10286000202100222046FEF726F8B0BD012919D10B
:10287000002A17D10221012520462A46FEF71BF81F
:10288000002220462946FEF716F8B0BD402100255B
:1028900020462A46FEF70FF8202120462A46FEF75A
:1028A0000AF8B0BD0221002520462A46FEF703F8AB
:1028B000012120462A46FDF7FEFFB0BD000C005066
:1028C0002422BF48002181540180C18001810185FB
:1028D000C185818041800162818381618172C16093
:1028E000016101758185418501864C228154816495
:1028F00002462832918301649172117541638163AC
:102900007047C046F0B581B000250120AC4B08E00F
:10291000183000210170012500200099C90700D15D
:102920004CE1009028266E43ECB220461F46FFF78C
:1029300051FE3B46B853A3484019017E0429E7D80D
:102940009E19C0467944097949008F44022952688A
:1029500085009E49485D04287AD1A8009C4A111838
:102960004978002900D112E128019A4A115A101819
:102970008288121F8A4200DB19E1011D0088098844
:10298000091D814200D812E13088F188091D814279
:1029900067D3B01D31880088001F88426CDC06E1D7
:1029A0008848C07E002805D1012100222046FFF77B
:1029B00021FF3B4630460A30B17A00297FD0F168CA
:1029C0001431814A12688A42A5D9002101707088A9
:1029D000318888429FD1002120460A46FFF70AFF2E
:1029E0006421204600F05CFC3B4601207549C87616
:1029F00091E7FFF7EBFD0A214143318288B2011DC7
:102A0000328891423AD20121002520462A46FFF71A
:102A1000F1FE357735756B48C5763B4673E0FFF7B9
:102A2000D5FD0A214143F0880818708280B2011D4B
:102A30003288914232D20121002520462A46FFF7F2
:102A4000D9FE2420355475775E48C5763B468AE02A
:102A5000485D032800D0AAE030883189091D8142F1
:102A600003D2012100222046A4E0308808363188B4
:102A7000091F814200DC9AE0012199E03188001FA2
:102A8000884224DD012120460A46FFF7B3FE0020DC
:102A9000307730754B49C8763B4634E03188001FAB
:102AA000884243DD012120460A46FFF7A3FE242089
:102AB0000021315471774348C1763B4653E00121F0
:102AC000017041480068F0603088708023E7307DF5
:102AD00000283B460CD135461435002120460A46D5
:102AE000FFF788FE3B460120287037480068B06138
:102AF000B0690A3034490968814204D90020307530
:102B0000307F401C3077307F032800D203E7304607
:102B10001C300021017020460A46FFF76BFE3B4641
:102B200001202849C8763088F080F4E6707F0028BC
:102B30003B460CD135461D35002120460A46FFF79D
:102B400059FE3B46012028701F4800683062306AF9
:102B50000A301D490968814205D92420315C491C8D
:102B60003154002070772420305C032800D2D2E654
:102B7000304624300021017020460A46FFF73AFE15
:102B80003B4601200F49C87630883081C3E6105C8F
:102B900000280CD030883189091F814200DD6BE7A5
:102BA000308808363188091D814200D259E700215A
:102BB00020460A46FFF71EFE3B46ACE601B0F0BDDC
:102BC000C001002080000020BC010020780000200F
:102BD000A800002010020020F0B583B00C46064685
:102BE0000278501E824101252F023C483946FDF7EC
:102BF00062FE2278501E8241052000070290A90241
:102C0000FDF759FE7278501E8241690201953448E1
:102C1000FDF751FE6278501E824131483946FDF77A
:102C20004AFEB278501E824180212C4F3846FDF773
:102C300042FEA278501E824140213846FDF73BFEFD
:102C4000F278501E8241A9033846FDF734FEE2783F
:102C5000501E8241022721483946FDF72CFE327969
:102C6000501E82411D482946FDF725FE2279501E3F
:102C70008241029D28463946FDF71DFE7279501E9D
:102C80008241042100912846FDF715FE6279501E0D
:102C90008241082728463946FDF70DFEB279501EBD
:102CA000824110212846FDF706FEA279501E82417E
:102CB00028460199FDF7FFFDF279501E8241074D2C
:102CC00028460099FDF7F7FDE279501E824128461B
:102CD0003946FDF7F0FD03B0F0BDC04600080050D6
:102CE000000C005092B0FEF7C5F800250B950A9530
:102CF00009950895079501267002FEF72FF97007D0
:102D0000119010200F900E9502240C943004069020
:102D1000059603200D904004109005A8FEF768FA70
:102D2000002803D0EFF3108072B6FEE704950395F8
:102D300007200190029401A82146FEF755F90028CA
:102D400003D0EFF3108072B6FEE7FFF70BFBFFF73F
:102D5000D3FBFFF7FDFBFFF75BFC1648FDF75EFAC0
:102D6000FFF7AEFD00F004F900F0F8F96420FDF77C
:102D7000BBFCFDF743FB022806D10A20FDF7B4FC9B
:102D8000FDF73CFB0228F8D00B4C2078002805D03A
:102D90000A20FDF7A9FC20780028F9D1FFF746FCAE
:102DA000FDF75EFAFFF7AEFD00F0F2F800F0DCF997
:102DB000F4E7C0461C010020B0000020364801782E
:102DC00000290AD00178012910D1012202818274E0
:102DD000002181721302038222E00021018101227D
:102DE00082748172FF230233038219E00178022981
:102DF00008D100210182012282748172FF230233F3
:102E000003810DE000210182817401218172FF2183
:102E1000023101810178C91E4A424A414B1E994143
:102E2000C274C172417800290CD04178012914D1B3
:102E30000122828182750021817313028382C2750F
:102E4000C173704700218181012282758173FF2344
:102E500002338382C275C1737047417802290AD157
:102E600000218182012282758173FF2302338381D5
:102E7000C275C17370470021818281750121817300
:102E8000FF21023181814178C91E4A424A414B1ECD
:102E90009941C275C17370477800002070B514461F
:102EA0000D46012811D0002820D1012D36D1012C4A
:102EB00034D10520000780210022FDF7FCFCF648F4
:102EC00001210A46FDF7F7FC70BD05200607012D1C
:102ED00034D1012C32D1202100223046FDF7EBFC09
:102EE000402101223046FDF7E6FC70BDEA48012191
:102EF00000242246FDF7DFFC052005078021284637
:102F00002246FDF7D8FC402128462246FDF7D3FC97
:102F1000202128462246FDF7CEFC70BDDE48012167
:102F20000022FDF7C8FC05200007012D15D1002C5B
:102F300013D180210122FDF7BEFC70BD402100228B
:102F40003046FDF7B8FC012D0CD1002C0AD1202110
:102F500001223046FDF7AFFC70BD80210022FDF755
:102F6000AAFC70BD202100223046FDF7A4FC70BDF4
:102F7000754800210180818001824180C160017219
:102F8000C1804182C1610176C18281827047C046A1
:102F9000F0B581B0002601206B4F08E01830002109
:102FA000017001260020E907674F00D1CAE00546FD
:102FB000F4B22046FFF71CFB3101785263488019B8
:102FC000027E042AEAD87F187A4412795200974484
:102FD000080202021A00002120460A46FFF75EFF9F
:102FE000DFE75D49885D042824D1B000594A1118F3
:102FF000497800296CD03888B988091F814200DCE3
:1030000086E00121E8E738460830397A002938D0CF
:10301000F96814319F4A12688A4239D90021017037
:1030200078883988814233D101204849C876388868
:10303000B8802DE0885D0328CDD128207043444A14
:10304000115A10180289121F8A42AADA0188083020
:103050000088001D8842A4D9B0003E4A1118497862
:103060000029CED1105C002859D1002120460A4603
:10307000FFF714FF64262046314600F01BF9FE805E
:103080008FE70121017083480068F86038887880F4
:10309000282070432E4A115A10180289121F8A42A2
:1030A00000DB7EE7018808300088001D884200D8D8
:1030B00077E7B000274A11184978002935D0012157
:1030C00020460A46FFF7EAFE00202049C87668E756
:1030D000105C002800D17EE7282070431C4A115A5A
:1030E00010180289121F8A4200DB5AE70188083053
:1030F0000088001D884200D853E7F888011F3A88ED
:10310000914200DD7DE73988001D884207D362E7E0
:10311000381D39880088001D884200D35BE70121F3
:1031200000222046FFF7BAFE3BE7105C002800D1E2
:1031300051E70121002620463246FFF7AFFE034843
:10314000C6762EE701B0F0BD1002002080000020FE
:10315000C0010020A8000020780000204C48002179
:103160008160C1607047C046F0B581B0484D696864
:10317000484802688A4200D887E000686860464C88
:1031800020212046FDF792FB287040212046FDF7C4
:103190008DFB6870401E414241412878401E4242EA
:1031A00042410A43012A06D1A87A0A2801D30A20FB
:1031B00000E0401CA872012708212046FDF776FB9D
:1031C000287010212046FDF771FB6870411E4842AF
:1031D000484129780129394600D00146012906D104
:1031E000E87A0A2801D30A2000E0401CE872012690
:1031F00071022046FDF75AFB2870B1022748FDF7FF
:1032000055FB6870411E48424841297801293946DA
:1032100000D00146012906D1A87B0A2801D30A2043
:1032200000E0401CA87380212046FDF73FFB28707A
:1032300031022046FDF73AFB6870411E4842484182
:103240002978012900D00746012F06D1E87B0A28FA
:1032500001D30A2000E0401CE873A97A0020042969
:10326000314600D801462972E97A0429314600D84E
:1032700001466972A97B0429314600D801462973A9
:10328000E97B042900D806466E7301B0F0BDC04644
:10329000A0000020BC0100200004005000080050E5
:1032A000002804D0012804D10748801C00E006480B
:1032B00001807047044A002803D0012803D1901DE3
:1032C00000E0101D018070477000002010B57148AB
:1032D0000178032911D8C0467944097949008F44FF
:1032E000011D283300214182417481601A22825ECF
:1032F000042A00DA012101746CE0418B00292ED0F0
:10330000418B012926D0418B022949D0418B0329C9
:103310005DD100210161012109065AE0418B00299C
:1033200022D0002101741A22825E042A25DB0A467B
:1033300024E0418B00291BD0418B012925D100229B
:1033400002820123114632E0418B002907D0418BD4
:10335000012922D1002101610121090239E0012165
:1033600081600021016135E000220274012105E045
:10337000002202820121134619E001220023438228
:10338000437201724274438124E0002101821A22B7
:10339000825E042A09DB0A4608E0418B02290DD12E
:1033A000002101610121090413E001220B460024E0
:1033B000C47443720172827444810BE0418B03290F
:1033C00005D10021816001210906016102E000218F
:1033D00001618160417802290DD0012910D00029B6
:1033E00018D10021C18241751A22825E032A00DDB4
:1033F0000121017510BD418B042911D1012114E077
:10340000418B042917D10121017500210022C282BC
:10341000417510BD418B042918D10121416110BDB6
:10342000418B052919D10121090281820021002245
:10343000C275817510BD002101751A22825E042AB1
:10344000E4DD01210022C282417510BD418B0529B6
:103450000ED101210902416110BD002181821A2291
:10346000825E052AE3DD01210022C275817510BD4F
:10347000418B062903D101210904416110BD418B13
:10348000072903D101210906416110BD00214161D5
:1034900010BDC0467800002043088B421AD300229A
:1034A00003098B4279D3030A8B425ED3030B8B4211
:1034B00042D3030C8B4227D30902FF2212BA030C1A
:1034C0008B4202D31212090203D0030B8B4233D377
:1034D0001AE0D3E0411A8041401C704703460B4379
:1034E00071D443088B42F5D3002203098B4254D395
:1034F000030A8B4239D3030B8B421DD3030C8B423F
:1035000002D394466EE0090AC30B8B4201D3CB036E
:10351000C01A5241830B8B4201D38B03C01A524114
:10352000430B8B4201D34B03C01A5241030B8B4216
:1035300001D30B03C01A5241C30A8B4201D3CB0201
:10354000C01A5241830A8B4201D38B02C01A5241E6
:10355000430A8B4201D34B02C01A5241030A8B42E9
:1035600001D30B02C01A5241CDD2C3098B4201D301
:10357000CB01C01A524183098B4201D38B01C01A7F
:10358000524143098B4201D34B01C01A52410309F6
:103590008B4201D30B01C01A5241C3088B4201D3A5
:1035A000CB00C01A524183088B4201D38B00C01A52
:1035B000524143088B4201D34B00C01A5241411A79
:1035C000524110007047CA0F00D04942031000D387
:1035D0004042534000229C4603098B422DD3030AEC
:1035E0008B4212D38901FC2212BA030A8B420CD3FC
:1035F000890192118B4208D3890192118B4204D325
:10360000890137D0921100E08909C3098B4201D3A7
:10361000CB01C01A524183098B4201D38B01C01ADE
:10362000524143098B4201D34B01C01A5241030955
:103630008B4201D30B01C01A5241C3088B4201D304
:10364000CB00C01A524183088B4201D38B00C01AB1
:103650005241D9D243088B4201D34B00C01A524188
:10366000411A00D201465241104663465B1000D316
:103670004042704763465B1000D3404201B50021D1
:10368000004201D0C9430846C046C04602BD000002
:10369000000000000000000000000000000000002A
:1036A000000000000000000000000000000000001A
:1036B0000100000002000000030000000400000000
:1036C00006000000070000000800000009000000DC
:1036D000F03600080000002010000000140100086F
:1036E00000370008100000202808000034010008FE
:1036F00001000000040000000024F40000000000AD
:04000005080000B936
:00000001FF
