:020000040800F2
:1000000058050020CD000008A11800089F1800081E
:1000100000000000000000000000000000000000E0
:10002000000000000000000000000000A51800080B
:100030000000000000000000A3180008A718000836
:10004000DF00000800000000DF000008DF000008FB
:10005000DF00000869010008DF00000873010008E4
:100060000000000059010008DF000008DF00000860
:10007000DF000008DF000008DF00000800000000CB
:10008000DF000008DF000008DF000008DF000008D4
:10009000DF000008DF000008DF000008DF000008C4
:1000A000DF000008DF000008DF000008A11D0008D5
:1000B000DF000008DF0000080348854600F034F840
:1000C00000480047AD1D000858050020044880473F
:1000D00004480047FEE7FEE7FEE7FEE7FEE7FEE72F
:1000E000AF180008B900000870B50446002903D015
:1000F00000202022012310E0002801D00020C0436E
:10010000C046C0460DE02546D5408D4205D30D467C
:100110009540641B1D46954040191546521E002D02
:10012000F1DC214670BD00001CB50948009009486B
:10013000019005460126009C05E0E36807CC3343A7
:100140000C3C98471034AC42F7D3FFF7B9FF0000DE
:10015000C0210008E021000880B5024800F08AF8BC
:1001600080BDC0461000002080B5022000F076F966
:1001700080BD10B50124200200F070F9200300F0CA
:100180006DF9A00300F06AF910BDEFF3108072B6AC
:10019000FEE7000070B500282CD0014624314A78D3
:1001A000022A29D103681C68012294431C601C6840
:1001B0000E25AC431C60446C25682D4B1D4025600A
:1001C000046C1C2525401446AC40624D2E68264325
:1001D0002E60846CC56C6560046D002C05D02568AC
:1001E0001D402560436D806D58604A7000200022DC
:1001F0000A7070BD012070BD0422C263012000227C
:100200000A7070BD70B5014624314A78022A2BD19C
:1002100003681C68012294431C601C680E25AC43D3
:100220001C60446C2568124B1D402560046C1C2525
:1002300025401446AC40474D2E6826432E60846C02
:10024000C56C6560046D002C05D025681D402560D7
:10025000436D846D5C6000240C704A70816B0029D2
:1002600000D08847204670BD0421C163012070BDC5
:10027000FFFEFFFFF0B585B03649091F0E68026822
:100280001368042502932B405F425F410490046C85
:100290001C232340294699400C4603963440604273
:1002A0006041384331D0019201210227029E30463D
:1002B0003840444244419F40039D2F420A4600D0AB
:1002C000214604980446243400292FD008200640F3
:1002D00077427741DD40280700D53A46002A23D1EE
:1002E000019A10680E218843106001252946994023
:1002F000184802680A4302600498C563002121700F
:100300006570416B00290ED10EE01068800602D4A2
:100310001068A84310600F4A1068084310600498E2
:10032000016B002900D0884705B0F0BD019B19681A
:10033000890605D41A680A218A431A60012161706E
:1003400000212170034A116839431160C16A0029F4
:10035000E9D1E9E704000240F0B587B000284AD0AF
:100360000446014624310220069148702768386807
:10037000344901403960344E30468030A0643348FF
:10038000381814252946FFF7AFFE80008119206434
:1003900005916164FC20384008382946FFF7A4FE27
:1003A0001F23034001210A469A40E264A06804909A
:1003B000E5682646103649CE0196E6690296266A19
:1003C000039628431843019B18430E46029908439D
:1003D0000399084339680143049B19433960B10309
:1003E0001B488B420AD1002305990B6063600260B1
:1003F0001D461A461CE0012007B0F0BD61683F278A
:100400000F40059B1F600260491E002303291D4603
:100410001A460DD8791E8A0083180022DA67032550
:100420000D403246AA400B490A607C33BC30054679
:100430000020E06323656565A265069908704E702B
:1004400007B0F0BD0F80FFFF00080240F8FFFDBFBE
:10045000840802404409024070470000B0B50446D9
:10046000074D2868204203D02C60204600F00AF88F
:100470006868204203D06C602046FFF7EDFFB0BDF6
:100480000C18024070470000F0B58AB00991096865
:10049000002900D1BCE006465E48864201D0052016
:1004A00000E003200090002707973C46089710E0E3
:1004B0000A432A607F1C099801680846F840089A98
:1004C00008320892079A121D0792A41C002800D136
:1004D0009EE001250295BD402940EBD00397019194
:1004E000324603231846A040C14327460998446872
:1004F00020461840461E012E06910594049710D8F8
:1005000093680B400999CE68BE401E439660E3068F
:10051000DB0F039FBB405668AE431E435660164632
:1005200007E003281646039F03D11846059A049C4A
:100530001DE0F36806990B40099A9568049CA54054
:100540001D43F5600228059A11D11C200799084027
:100550000F228240FB089B00F3181D6A95430999FE
:100560000A6982402A431A624A6803201040A04068
:10057000336806990B40034333609003800F99D092
:1005800003203A46824324488018026E05231B0745
:100590009E420AD08E4B9E4205D0214B9E4200992E
:1005A00004D1022102E0029900E000211823089DF5
:1005B0002B400F259D40AA436030994011430160B4
:1005C000154D2A6809984068C30207D501990A4366
:1005D0002A606A68830207D48A4306E001998A4345
:1005E0002A606A688302F7D50A436A600B4D6A681D
:1005F000830305D50A436A602A68C00306D557E716
:100600008A436A602A68C00300D551E78A4350E7ED
:100610000AB0F0BD000C00500018024080180240E3
:1006200000080050002A02D018228150704728226A
:10063000815070476B4800687047C046B0B50246AD
:10064000034640335C780220202C17D11C78012C03
:1006500014D024205870106802680124A24302605C
:10066000220305689543056002680A430260016839
:10067000214301600020187020215970B0BDB0B531
:100680000246034640335C780220202C17D11C78A8
:10069000012C14D024205870106802680124A24351
:1006A00002600F2212020568954309022943016086
:1006B0000168214301600020187020215970B0BDED
:1006C000F0B581B0002822D0044605464035687850
:1006D000002804D100202870204600F04BF8242088
:1006E00068702068026801218A4302600F221206A6
:1006F00063689343036183681C4A13408360A36863
:10070000E668012E06D1CE03334383600CE001205E
:1007100001B0F0BD2127BF023B438360022E03D10D
:10072000CB0246681E4302E0CB0246689E43466009
:1007300043680F4E1E434660C3681340C36022697E
:1007400063691343A26912021A43C260E269236A11
:100750001343036002680A430260002060642021A2
:1007600069702063A87001B0F0BDC046FF7FFFFF35
:100770000080000210B586B000681349884201D09D
:1007800006B010BD114C206802210843206020688B
:10079000084000900620059000200490039012204D
:1007A00002900320800201900098094801A9FFF7F8
:1007B0006BFE01208005A1680143A160A168014092
:1007C0000091009806B010BD00580040341002405F
:1007D000000400501F48007802490A681018086099
:1007E0007047C0465401002010B50124200208497A
:1007F0000A6802430A60032000F00CF8002801D0C8
:10080000204610BD00F028F80024204610BDC04648
:100810000020024070B50F4E31780124002916D017
:1008200005467D20C000FFF75FFC01464B4800688D
:10083000FFF75AFC00F0B2FC032D08D8002806D1BF
:100840000024E0432946224600F028F8756020463F
:1008500070BDC0460000002082B0094841680122F6
:1008600011434160416811400191019911070268EB
:100870000A430260006808400090009802B0704788
:100880003C100240002805D41F210840012181406E
:10089000014801607047C04600E100E0002805D42F
:1008A0000322034693430A4A9A1803E00C220240AB
:1008B000064BD2188007C00E8901C9B28140FF23C0
:1008C00083401068984308431060704714ED00E0BF
:1008D00000E400E0F0B581B0032569021E4E324607
:1008E000143A13688B43034313600124610200220E
:1008F000884204D1F54801683068400502D41046AA
:1009000001B0F0BD0092A702062048431449FFF74A
:10091000EBFB201A022816D03168394217D0012883
:1009200011D03168394212D000280CD031683942D8
:100930000DD0001D032806D031683942EAD1009A53
:10094000104601B0F0BD2A46104601B0F0BD009A35
:10095000104601B0F0BDC0461470004008000020F1
:1009600040420F00F0B587B0064680788007564FAA
:1009700001D4002050E00596012319073A46183AA1
:1009800010680840049006D1106808431060106891
:100990000840069006980292039101931E024B4C68
:1009A000206830432060FFF745FE0546206830424E
:1009B0000AD1FFF73FFE401B0228F7D90320059E0E
:1009C0000499002923D027E0032000900102B86891
:1009D0000840059E11D0B16988420ED0B8680199CF
:1009E0000904BA680A43BA60BA688A43BA60014621
:1009F000374A1140B960C00755D1B868344908403A
:100A0000B1690143B96000200499002904D1029B17
:100A10001968039A914319603568E90707D1A90756
:100A20000DD4A90613D401216A041AD428E0396828
:100A30000322914372680A433A60A907F1D53968E5
:100A40000C229143B2680A433A60A906EBD5032110
:100A500009033A688A43F1681143396001216A0445
:100A60000ED53A681B4B1A40746922433A605A1CEF
:100A7000944205D10A043B46483B1C6814431C6061
:100A80002A050ED58C03032292033B6893433269F7
:100A900013433B60A24204D10A04483F3968114322
:100AA000396007B0F0BDFFF7C5FD0546854CB86855
:100AB0008007A2D4FFF7BEFD401BA042F7D90098E3
:100AC00004990029A3D0A7E7541002400070004009
:100AD000FFFCFFFFFFFFFF3FF0B583B00D46012194
:100AE00000281BD00191029075480068072420401F
:100AF000A84216D272490868A04328430860714E84
:100B0000FFF798FD07466E4800682040A84208D0CD
:100B1000FFF790FDC01BB042F5D90321084603B092
:100B2000F0BD029E30688107924B0CD5410703D57A
:100B300021031A680A431A600F2109021A688A43BE
:100B4000B16811431960C0071BD15D48006820409F
:100B5000A8422CD95A490868A04328430860594F35
:100B6000FFF768FD0646564800682040A8421ED0A0
:100B7000FFF760FD801BB842F5D90321084603B09A
:100B8000F0BD0298406803285DD8810001A2515849
:100B90008F46C046A50B00084B0C0008550C0008FA
:100BA0005F0C0008194608390968490559E0029A9E
:100BB000107840076F4B05D5200319688143D06832
:100BC0000843186018688006400F22D01A68382140
:100BD0000A406948082A23D01A680A40102A5ED1C0
:100BE000596803220A40032A00D06448596849061C
:100BF000490F491CFFF778FA5E4949684904490ED4
:100C000048435C494968490F491CFFF76DFA594B45
:100C100006E01846083800688004410F5748C8406D
:100C2000196889093C220A40274989581F220A402D
:100C3000D0402F49086026480068FFF7EBFD0146C9
:100C4000084603B0F0BD596D0AE019460839096835
:100C5000890306E0194608390968890101E0996DA0
:100C60008907019900D459E71968A1430143196024
:100C7000144FFFF7DFFC06463E480068382101406C
:100C800002984068C000814200D15EE7FFF7D2FCC5
:100C9000801BB842F0D90321084603B0F0BD1868A4
:100CA0000840202802D10120C003B9E71868084095
:100CB000182801D00020B3E77D200002B0E7C0462D
:100CC00000200240881300002821000808000020AE
:100CD000040000200648006826490968890A1C2289
:100CE0000A40044989581F220A40D0407047C04634
:100CF000080000206821000810B51E4C20688006FE
:100D0000400F06D0226838210A401B48082A07D124
:100D100010BD083C20688004410F1848C84010BD31
:100D200022680A40102A15D1616803220A40032A6A
:100D300000D0124861684906490F491CFFF7D4F9F1
:100D400061684904490E48436168490F491CFFF72F
:100D5000CBF910BD20680840202802D10120C00333
:100D600010BD20680840182801D0002010BD7D204B
:100D7000000210BD0810024000127A000024F400A6
:100D8000F0B587B00125002800D1ECE1049505906D
:100D90000078C007F94F2AD0B868F96803252A46B9
:100DA0008A43382101401020484082185042504167
:100DB000082914D0002812D10598426801200104A6
:100DC0008A4208D005231B049A4200D0DAE082044C
:100DD0003B6813433B603A680A433A60DBE038689B
:100DE000800304D505984068002800D173E1059878
:100DF0000078800723D40598007800070CD5B868E0
:100E000038210140182971D1386E800704D5059822
:100E10008069002800D15EE1059A1078400700D46F
:100E20002EE1B86838210140202974D1F86D80077F
:100E300000D425E19068002800D021E14BE1B96899
:100E40003820084010214140FA6803252A40022337
:100E50005340CA1851425141002820D000291ED1C8
:100E60003868059AD168002900D1A2E00721C9029B
:100E70008843116901433960012001023A680A433D
:100E80003A608402FFF7D6FB06463868204200D05D
:100E9000A1E0FFF7CFFB801B0228F6D963E1396898
:100EA0004905059B03D5D968002900D113E17F21AD
:100EB00009027A688A435969090211437960002856
:100EC0000DD10720C0023968814318690843386092
:100ED00038688004400FAA49C140AA480160AA4866
:100EE0000068FFF797FC002885D0F4E0386E05997C
:100EF0008969002979D0012108433866FFF79AFBF8
:100F00000646386E800787D4FFF794FB801B0325C5
:100F10000228F6D927E1012003900107F86B084069
:100F2000029006D1F86B0843F863F86B084006900E
:100F30000698019195480068C00513D403980402EF
:100F40009249086820430860FFF774FB06468F4803
:100F50000068204206D1FFF76DFB801B03250228A5
:100F6000F5D900E105988068894C012805D005284D
:100F70005AD1F86D04210143F965F86D03990843CE
:100F8000F8655BE03B688B433B6081043B688B43C7
:100F90003B60002A3AD04404FFF74CFB0646386811
:100FA000204200D023E7FFF745FB801B6428F6D9D9
:100FB000D9E001210A02904338608C02FFF73AFB26
:100FC00006463868204200D115E7FFF733FB801B47
:100FD0000228F6D9C7E07F2000027968814305988E
:100FE000406900020843786005E7012188433866BC
:100FF000FFF720FB0646386E800700D40CE7FFF7AA
:1010000019FB801B03250228F5D9ACE04404FFF747
:1010100011FB06463868204200D1E8E6FFF70AFBDC
:10102000801B6428F6D99EE0F96D039A9143F96517
:10103000F96D04229143F96500280CD0FFF7FAFA04
:101040000646F86D800713D4FFF7F4FA801B0325DA
:10105000A042F6D987E0FFF7EDFA0646F86D800763
:1010600006D5FFF7E7FA801B0325A042F6D97AE000
:1010700002980028059A03D1F86B01998843F86318
:10108000D469002C76D0B86838210140102926D1C7
:10109000012C20D0F86803210140059B1A6A914277
:1010A00019D1702101405A6A914214D17F2109025D
:1010B00001409A6A120291420DD11F214904014058
:1010C000DA6A9142049D4ED1072149070840196B05
:1010D000884248D14EE0049D284607B0F0BD012566
:1010E00029063868049188433860FFF7A3FA06465A
:1010F000022C0BD103956C063868204211D0FFF703
:1011000099FA801B03250228F6D92CE06C06386872
:1011100020422BD0FFF78EFA801B03250228F6D938
:1011200021E0F8681C490140059E20366DCE084339
:1011300010431902014329433143F9603868049987
:101140000843386003980007F9680143F960FFF726
:1011500071FA0646386820420CD1FFF76BFA801B03
:1011600003250228F6D9284607B0F0BDF8680949DA
:101170000140F9600025284607B0F0BD001002408C
:101180000024F4000800002004000020007000404B
:1011900088130000FCFFFEEF8C80C11F401E010E73
:1011A00001D0012070470749074A5060074803688B
:1011B0000B40032189075918016000209060072126
:1011C00011607047FFFFFF0010E000E020ED00E03D
:1011D000B0B58421415C012901D10220B0BD024695
:1011E00084322421516001680B680C680125AC43EE
:1011F0000C606C07A3430B60002141661170202036
:1012000050600846B0BD704770470000F0B581B02F
:10121000054668352A7F012A02D1022001B0F0BDBF
:1012200024222A620668376832680124A2433260A9
:1012300007225206B36893430B43B360406E002805
:10124000204615D00097B768B068400F2B49095C5D
:101250002B4A105CC000FEF747FF04463801009F90
:10126000400F2649095C264A105CC000FEF73CFF8F
:1012700028806C803760002028772021296201B007
:10128000F0BDC046F0B581B0054668352A7F012A19
:1012900002D1022001B0F0BD24222A62066837681C
:1012A00032680124A243326007225207B368934395
:1012B0000B43B360406E0028204615D00097B768F6
:1012C000B068400F0D49095C0D4A105CC000FEF784
:1012D0000BFF04463801009F400F0849095C084A8B
:1012E000105CC000FEF700FF28806C803760002093
:1012F00028772021296201B0F0BDC046B82100083E
:10130000B02100087047704770470000F0B589B001
:1013100003460068C76920240126F20211462F31D6
:101320003940056808935C3307930690806820294C
:101330000494059010D12946214001231B07034046
:10134000C918384618D00898416F002900D153E1D8
:101350000898884709B0F0BD03920F32174238460B
:101360000AD0CC4929403207541C03460598044052
:101370001846611800D08DE01027294639404B42AD
:101380004B41014639404C424C411C430899C96EBF
:10139000491E4B1E9941214338D001240126B10535
:1013A000059F39404B424B41C1022146069A00D568
:1013B0001946002900D1A2E0010606D58021294066
:1013C000F2051740C91900D0ADE14022294611406D
:1013D0004B424B414106214600D51946002900D118
:1013E00042E1B10729404A424A410102214600D563
:1013F0001146002900D1A1E1002D00DAA3E1C001CE
:1014000000D5A4E1002C00D0F6E0A4E10698076224
:101410008068400600D579E0079E7388318872881D
:10142000002A00D1E8E0994200D1E5E00693EFF30D
:101430001083012282F3108809246401089D286822
:101440000668A643066083F31088EFF3108382F3E7
:1014500010882C68A068C24E0640A66083F31088EE
:101460000498079B186300236B67EB66EFF3108308
:1014700082F310882A681468BC43146083F31088D0
:1014800002222A670698081A81B22846FFF7BBFE97
:1014900009B0F0BD0192014631404B424B4131024F
:1014A000029529404D424D411D43069A05D1012127
:1014B0001162079D6B6B0B436B630127059B3B40E0
:1014C0005D425D418107314600D5294600290BD197
:1014D0000221116207994D6B009504253A46009F41
:1014E0003D431746069A4D635D425D4141073146D3
:1014F0005BD400295CD00107089D63D46DE0300502
:1015000010620898FFF7FFFE09B0F0BD079E328811
:10151000706A0068436899B2002900D198E091424E
:1015200000D395E073800068800633D4EFF3108118
:10153000012080F310888C4A2032089D2B681C689B
:1015400014401C6081F31088EFF3108180F3108841
:101550002A6893688343936081F31088EFF31081C6
:1015600080F310882A6893684024A343936081F332
:101570001088049931630021E966EFF3108180F34C
:10158000108828680268BA43026081F31088706A84
:10159000FEF700FE02210898016732887188511A0F
:1015A00089B2FFF730FE09B0F0BD29460029A2D16B
:1015B00004211162079D696B02230B436B630107D2
:1015C000089D0AD50299049B19400C4305D00821B7
:1015D0001162079C636B0B436363B906029B19405E
:1015E0004B424B410399084208D1002E079E049BB1
:1015F00009D0716B00290DD109B0F0BD1E46002E37
:10160000079E049BF5D11162716B19437163716B75
:101610000029F1D018400CD005990198014002989A
:101620001840084305D0696F002902D02846884732
:101630002A68706B282101409268402002405118AE
:101640002AD12846FFF760FE0020706309B0F0BD84
:101650008A42D1D100688006CED50222089802675E
:10166000FFF7D1FD09B0F0BDEFF3108086F31088CD
:10167000089C21680B6893430B6080F3108800205E
:10168000A06707980499C162204600F007F909B0E5
:10169000F0BDC04620010004EFF3108187F31088ED
:1016A000092252012B681C6894431C6081F3108846
:1016B000EFF3108187F310882A689368284C1C4048
:1016C000946081F31088E96E01290AD1EFF310814B
:1016D00087F310882A6813681024A343136081F3EA
:1016E0001088049931630021E9666967296889686F
:1016F00049061ED5EFF3108187F310882A68936896
:101700008343936081F31088706A002811D01549D3
:101710008163FEF777FD002800D16DE7706A816B69
:10172000884709B0F0BD0898816F002900D00FE606
:1017300062E72846FFF7E8FD09B0F0BD0898FFF71B
:10174000E1FD09B0F0BD0026C00100D45AE63446E0
:10175000002C00D050E70898FFF756FD09B0F0BD07
:10176000FEFFFFEF491A0008DFFEFFFFB0B50028BB
:101770001ED00446054684356868002804D1002040
:101780002870204600F02AF824206860206801684C
:101790000125A9430160A06A002802D0204600F07C
:1017A00087F8204600F056F9002803D02846B0BD3F
:1017B0000120B0BD0920C00221684A6882434A6006
:1017C00088682A22904388600868012202430A60E0
:1017D000204600F0D7F805462846B0BD70B58EB05B
:1017E0000446002608960796069605960496006815
:1017F000F149884201D00EB070BD039601250295D3
:1018000002A8FFF7AFF8002801D0FEF7BEFC1F4882
:10181000C1680D95AA031143C160C16811400191CF
:101820000199016804221143016000681040019091
:101830000C960B9602200A903020099001981448CB
:1018400009A9FEF721FE6803124D286280201021AD
:101850003322114B2B606A60A960EE6028616E61D3
:10186000AE61EE612846FEF777FD002801D0FEF755
:101870008CFCAC62E5671B24002120460A46FFF77A
:101880000DF82046FEF7FEFF0EB070BD341002408A
:101890000008005010000020080002407047FEE7DA
:1018A000FEE77047704780B5FEF794FF80BD704734
:1018B000B0B5816A0A070CD4CA0714D18A071CD4B0
:1018C0004A0724D4CA062CD48A0634D44A063CD407
:1018D0004CE00122D20303685C689443826B22438C
:1018E0005A60CA07EAD00122520403685C68944334
:1018F000C26A22435A608A07E2D5012212040368B1
:101900005C689443026B22435A604A07DAD501228D
:10191000920403685C689443426B22435A60CA068F
:10192000D2D50122120303689C689443C26B224300
:101930009A608A06CAD50122520303689C689443C0
:10194000026C22439A604A0610D5012213050268F0
:1019500054689C43456C2C4354609D4206D103233C
:101960005B0554689C43836C23435360090607D589
:101970000121C904026853688B43C06C184350604E
:10198000B0BD0000F0B583B004460646843600279B
:10199000F760FEF74FFE03462068016809071FD570
:1019A00028480090012002904105002220461D4653
:1019B00000F014F9002811D0EFF31080029981F3A0
:1019C000108821680A6880239A430A6080F310888F
:1019D000202070600320377003B0F0BD20682B46D4
:1019E0000068400725D5174800900125A905002269
:1019F000204600F0F3F800281BD0EFF3108085F3A9
:101A0000108809214901226813688B43136080F311
:101A10001088EFF3108085F3108821688A68AA4344
:101A20008A6080F310882020B0600320377003B0F4
:101A3000F0BD20207060B060E766276738463770D9
:101A400003B0F0BDFFFFFF0180B5806AFFF75CFCCB
:101A500080BD0000F0B581B0044600680168524ABC
:101A60000A40A16823690B43616919431143E26984
:101A7000114301600321090343688B43E168194363
:101A80004160A169236A0B438168484D0D401D43A5
:101A90008560C36A0F218B43616A0B43C3620023D5
:101AA000434DA84206DC454DA84212D0444DA84201
:101AB00015D00CE03F4DA84211D03F4B984206D1C3
:101AC000404800688007000F3F4B1B5807E0102379
:101AD00005E03C4800680C2303403B48C3582646B9
:101AE00068360125EF033948BA420FD1082B52D886
:101AF0007B441B795B009F44044E204E194E4E4E92
:101B00001F00FFF7E7F8002814D143E0082B42D864
:101B10007B441B795B009F44043E2C3E253E3E3EA9
:101B20002B00FFF7D7F8002820D133E0FFF7E4F8C7
:101B300000282FD0616A00E038464900244A515AF3
:101B4000FEF7D2FA400061684A081018FEF7CCFA96
:101B50000246103A1F498A421DD201400007400F39
:101B6000084315E0FFF7C8F8002813D0616A00E0C9
:101B700038464900164A515AFEF7B6FA61684A08D3
:101B80001018FEF7B1FA01461039124A914202D2FA
:101B90002168C86000251048306000206067A06799
:101BA000284601B0F0BDC046F369FFCFFFF4FF1136
:101BB000FF4B0040004C0040003801400044004012
:101BC0000048004054100240A02100080024F40006
:101BD00088210008F0FF000001000100F0B585B089
:101BE0001F4615460E460368D9693140891B4A4293
:101BF0004A410021AA4222D10A9C002C22D0039102
:101C0000611C24D1D9693140891B4A424A41AA4208
:101C100031D1D9693140891B4A424A41AA422AD16D
:101C2000D9693140891B4A424A41AA4223D1D96924
:101C30003140891B4A424A41AA42E3D01BE0084690
:101C400005B0F0BDFEF7F6FC032005B0F0BD402E58
:101C5000049001D0802E14D1FEF7ECFCC01BA042F2
:101C60000CD8049800680168C0693040801B41426C
:101C70004141A942F0D0039805B0F0BD032005B062
:101C8000F0BD8430019001200090C002029006E077
:101C9000C8693040801B41424141A942EBD1FEF767
:101CA000C9FCC11B0320A1423FD8049909680A68F6
:101CB0005207EDD5CA69120739D4CA69029B1A4284
:101CC000E6D0029A0A62EFF31082012181F31088B4
:101CD00009235B01049C246825689D43256082F3E9
:101CE0001088EFF3108281F31088049B1B689C68B6
:101CF0002A4D25409D60049B82F31088DA6E012AEC
:101D00000BD1EFF3108281F3108819680B6810244F
:101D1000A3430B60049B82F310882021019CA160E7
:101D20000022DA665A672270E16005B0F0BD08252E
:101D30000D62EFF31081009880F3108809225201A0
:101D4000049B1B681C6894431C6081F31088EFF3AC
:101D5000108180F31088049A126893680F4C1C401D
:101D6000049B946081F31088D96E01290CD1EFF3A4
:101D70001081012282F310881A6813681024A3438B
:101D80001360049B81F310882021019A9160002147
:101D9000D96659671170D56005B0F0BDFEFFFFEF41
:101DA00080B5D748FFF7B2FA80BDC0469CB0FEF7B9
:101DB0001BFD0027159714971397129711971097EB
:101DC00001267002FEF786FD70071B9070041A90C2
:101DD00008241994189702201790169040251495FE
:101DE00009971397370212970A900F900FA8FEF7E2
:101DF000C7FF002803D0EFF3108072B6FEE705940A
:101E0000069708960795099C0E940D9407200B9051
:101E10000A9D0C950BA82946FEF75EFE002803D00C
:101E2000EFF3108072B6FEE713941294A84A10687C
:101E3000042108431060106808400B900B9810684C
:101E4000202108431060106808400B900B98106820
:101E5000089E30431060106830400B900B9810685B
:101E600028431060106828400B900B981068059963
:101E700008431060106808400B900B9895489649ED
:101E80002246FEF7CFFB05200490000702909349FD
:101E90002246FEF7C7FB924831462246FEF7C2FBB8
:101EA000904891492246FEF7BDFB119410940320FF
:101EB0000590C10203910F910FAF864D2846394618
:101EC000FEF7E2FA12941194109683480F90284678
:101ED0003946FEF7D9FA1194059810906120400216
:101EE0000F9028463946FEF7CFFA129411941096B7
:101EF0007A480F90029D28463946FEF7C5FA12949B
:101F0000119410960F96764E30463946FEF7BCFA7D
:101F10001194112000040190109074480F903046E5
:101F20003946FEF7B1FA1194109471480F9030467B
:101F30003946FEF7A9FA11940198109006980F906F
:101F400028463946FEF7A0FA119410944120400229
:101F50000F9028462E463946FEF796FA12941194B1
:101F60000898109060480F905E483946FEF78CFA4A
:101F70001194059D109503980F9030463946FEF751
:101F800083FA119410950C2006900F905548054641
:101F90003946FEF779FA1194109407980F90284665
:101FA0003946FEF771FA0A9D119510944E4E30464F
:101FB000C5300F904A483946FEF766FA11951094DD
:101FC0003046CD300F9043483946FEF75DFA049E07
:101FD000304621462246FEF761FC3046FEF752FCB1
:101FE0000726304621462246FEF758FC3046FEF7CB
:101FF00049FC37494868089D28434860486828409C
:102000000F900F980926304621462246FEF746FCDF
:102010003046FEF737FC37483749384A0260021D20
:1020200032C2046144618461C4610462FEF748FB0A
:10203000002803D0EFF3108072B6FEE7069D2D480E
:102040000021FEF7FBFA002803D0EFF3108072B6F0
:10205000FEE7284800242146FEF711FB002803D0A4
:10206000EFF3108072B6FEE7254826490462446209
:102070008462E122520216C0046044608560C4603C
:1020800004610C38FFF772FB002803D0EFF31080D7
:1020900072B6FEE71A480021FFF7F4F8002803D0D3
:1020A000EFF3108072B6FEE715480021FFF7AEF897
:1020B000002803D0EFF3108072B6FEE71048FFF758
:1020C00087F8002803D0EFF3108072B6FEE7FEE732
:1020D0003410024000080050CF210000FF0400002F
:1020E00000040050000C00503303000002500000B8
:1020F00004A000006C000020B57DB1100058004025
:10210000C00000200038014002E008C8121F08C1CA
:10211000002AFAD170477047002001E001C1121F68
:10212000002AFBD170470000000000000000000002
:10213000000000000000000000000000000000009F
:10214000000000000000000001000000020000008C
:10215000030000000400000006000000070000006B
:10216000080000000900000000000000000000005E
:10217000000000000000000001000000020000005C
:10218000030000000400000001000200040006003B
:1021900008000A000C001000200040008000000130
:1021A0000000000004000000020000000800000021
:1021B00001010103070100000804020408010101F4
:1021C000E0210008000000201000000008210008A5
:1021D000F021000810000020480500001821000828
:1021E00001000000040000000024F40000000000D2
:04000005080000B936
:00000001FF
