:020000040800F2
:1000000060080020CD000008491B0008971A00086E
:1000100000000000000000000000000000000000E0
:100020000000000000000000000000004D1B000860
:1000300000000000000000004B1B00084F1B0008E0
:10004000DF00000800000000DF000008DF000008FB
:10005000DF00000899010008DF000008A301000884
:100060000000000089010008DF000008DF00000830
:10007000DF000008DF000008DF00000800000000CB
:10008000DF000008DF000008DF000008DF000008D4
:10009000DF000008DF000008DF000008DF000008C4
:1000A000DF000008DF000008DF000008A1210008D1
:1000B000DF000008DF0000080348854600F04CF828
:1000C00000480047E92100086008002004488047F4
:1000D00004480047FEE7FEE7FEE7FEE7FEE7FEE72F
:1000E000571B0008B9000008D2B201E00270401CA2
:1000F000491EFBD270470022F6E710B513460A46A8
:1001000004461946FFF7F0FF204610BD421C017857
:10011000401C0029FBD1801A704770B504460029A5
:1001200003D000202022012310E0002801D000206D
:10013000C043C046C0460DE02546D5408D4205D39C
:100140000D469540641B1D46954040191546521EAC
:10015000002DF1DC214670BD1CB50948009009480E
:10016000019005460126009C05E0E36807CC334377
:100170000C3C98471034AC42F7D3FFF7A1FF0000C6
:10018000302600085026000880B5024800F08EF89E
:1001900080BDC0461001002080B5022000F0EAF9C1
:1001A00080BD10B50124200200F0E4F9E00200F067
:1001B000E1F9200300F0DEF9600300F0DBF9A003B1
:1001C00000F0D8F910BDEFF3108072B6FEE7000022
:1001D00070B500282AD0014624314A78022A27D156
:1001E00003681C68012294431C601C680E25AC4304
:1001F0001C60446C25682C4B1D402560046C1C253C
:1002000025401446AC40D14D2E6826432E60846CA8
:10021000C56C6560046D002C05D025681D40256007
:10022000436D806D58604A70002004E0012070BD6D
:100230000422C263012000220A7070BD70B501461D
:1002400024314A78022A2BD103681C680122944386
:100250001C601C680E25AC431C60446C2568124B66
:100260001D402560046C1C2525401446AC40B74D4C
:100270002E6826432E60846CC56C6560046D002C6E
:1002800005D025681D402560436D846D5C600024A9
:100290000C704A70816B002900D08847204670BDE1
:1002A0000421C163012070BDFFFEFFFFF0B585B0E2
:1002B000A649091F0E6802681368042502932B40A3
:1002C0005F425F410490046C1C23234029469940FF
:1002D0000C460396344060426041384331D001926D
:1002E00001210227029E30463840444244419F404B
:1002F000039D2F420A4600D0214604980446243428
:1003000000292FD00820064077427741DD4028079A
:1003100000D53A46002A23D1019A10680E2188435D
:100320001060012529469940884802680A43026006
:100330000498C563002121706570416B00290ED1BE
:100340000EE01068800602D41068A84310607F4A4F
:100350001068084310600498016B002900D088479A
:1003600005B0F0BD019B1968890605D41A680A21F9
:100370008A431A600121617000212170734A11685B
:1003800039431160C16A0029E9D1E9E7F0B587B0C6
:1003900000285ED0044601462431022006914870B0
:1003A00027683868324901403960324E3046803023
:1003B000A0643148381814252946FFF7AEFE8000A6
:1003C0008119206405916164FC2038400838294671
:1003D000FFF7A3FE1F220240012005469540E56479
:1003E000A168039126460C364ACEA2690192E269C1
:1003F0000292226A04920B43334301990B43029900
:100400000B4304990B4339681943039A114339602C
:10041000064681038A4201D10021616061683F2361
:100420000B4005980360154A1560481E032813D831
:10043000581E810051180023CB67BC3203230340B0
:10044000304698407C3121656265A0650C490860A2
:1004500006E0012007B0F0BD002020656065A065C2
:100460000020E063069908704E7007B0F0BDC046EA
:100470000F80FFFF00080240F8FFFDBF8408024024
:1004800044090240F0B582B004462420205C0128D3
:1004900002D1022002B0F0BD1746254624350120C6
:1004A00028706A78012A2DD1022068700020E0634C
:1004B00025682A6801260196B2432A60A26CE66C80
:1004C0005660226D0092002A02D0626DA66D5660C1
:1004D000226C1C261640019AB2401C4E3668164308
:1004E0001A4A16606B60A368102B3A4600D00A4681
:1004F000AA60102B00D03946E960216B002907D093
:100500000E210AE0002129708021E16302B0F0BDD4
:1005100029680422914329600A212A680A432A6033
:1005200001990902626C1368DB0302D513680B435F
:100530001360009B002B02D01A680A431A602968D6
:10054000019A1143296002B0F0BDC0460400024088
:10055000B0B5044600F0F0F80546601C02D0E4484F
:100560000078041900F0E8F8401BA042FAD3B0BDAF
:1005700070470000B0B50446074D2868204203D0FC
:100580002C60204600F00AF86868204203D06C60B6
:100590002046FFF7EDFFB0BD0C1802407047000089
:1005A000F0B589B006900B68002B00D1B1E05A4835
:1005B000069A824201D0052000E003200090002628
:1005C00008963446374603910EE01843544A1060AB
:1005D0007F1C0B681846F8400836089A121D0892CE
:1005E000A41C002800D194E001250195BD402B40BA
:1005F0000493EDD0496803220B461340581E01288E
:100600000796059211D81046A040069EB268824314
:100610000398C068A0401043B060C806C00FB8403F
:100620007268AA4302437260059A032B0399069DE0
:100630001CD01046A040EA6882438868A04010435E
:10064000059AE860022B11D11C20089908400F215F
:100650008140FA089200AA18136A8B4303990D6926
:1006600085401D4303991562059A069D1046A040DA
:100670002B6883434868860302961040A0401843C5
:1006800028600298800F079EA2D038469043234AE4
:1006900013181E6E05200007069A82420AD08F4862
:1006A000824205D01F488242009D04D1022502E00B
:1006B000019D00E000251820079A10400F2282407B
:1006C00096436033854035431D60144800684D688B
:1006D000EA0202D5049B184301E0049B9843079E5D
:1006E0000E4A10605068AA0201D5184300E09843F2
:1006F0000A4A50600A484068AA0301D5184300E03E
:100700009843074A50601068EA0300D55DE79843B4
:100710005CE709B0F0BDC046000C00500018024074
:100720008018024000080050002A02D01822815090
:1007300070472822815070476E4800687047C04655
:10074000B0B50246034640335C780220202C17D116
:100750001C78012C14D024205870106802680124E1
:10076000A2430260220305689543056002680A43BC
:100770000260016821430160002018702021597037
:10078000B0BDB0B50246034640335C780220202C51
:1007900017D11C78012C14D02420587010680268DE
:1007A0000124A24302600F22120205689543090248
:1007B0002943016001682143016000201870202155
:1007C0005970B0BDF0B581B0002821D0044605466F
:1007D00040356878002804D100202870204600F0B9
:1007E00049F8242068700120C24321680B68134037
:1007F0000B600F221206636893430B618B681B4AE0
:1008000013408B60E368012B05D02126B60203E07C
:10081000012001B0F0BDC603A76837438F609B1E5F
:100820005E425E41F302C6024F68B743FB184B605D
:100830004B680F4E1E434E60CB681340CB6022695D
:1008400063691343A26912021A43CA60E269236A08
:1008500013430B600A6802430A6000206064202191
:1008600069702063A87001B0F0BDC046FF7FFFFF34
:100870000080000210B586B000210591049103911B
:10088000029101910068134A904201D006B010BD58
:10089000114C206802221043206020681040009014
:1008A00006200590049103911220029003208002FB
:1008B00001900098094801A9FFF772FE0120800508
:1008C000A1680143A160A16801400091009806B0B1
:1008D00010BDC046005800403410024000040050D3
:1008E0002048007803490A68101808607047C0461D
:1008F000080000205C04002010B5012420020849F3
:100900000A6802430A60032000F00CF8002801D0B6
:10091000204610BD00F02AF80024204610BDC04635
:1009200000200240B0B505460E4801780124002998
:1009300016D07D20C000FFF7F0FB01463C48006860
:10094000FFF7EBFB00F088FC032D09D8002807D146
:100950000024E0432946224600F02AF802480560B8
:100960002046B0BD080000200C00002082B00948DD
:100970004168012211434160416811400191019990
:10098000110702680A43026000680840009000985E
:1009900002B070473C100240002805D41F210840D7
:1009A00001218140014801607047C04600E100E03C
:1009B000002805D40322034693430A4A9A1803E009
:1009C0000C220240064BD2188007C00E8901C9B222
:1009D0008140FF23834010689843084310607047AC
:1009E00014ED00E000E400E0F0B581B003256902F9
:1009F0006B4E32688A430243326001214A0200246E
:100A0000904212D1E9480268706940050DD58F0205
:100A1000062050430749FFF780FB801C401E03D08F
:100A200071693942FAD100E02C46204601B0F0BD90
:100A30000400002040420F00F0B587B007468078E0
:100A40008007564E01D4002063E00597012211076C
:100A5000183E30680840049006D130680843306082
:100A6000306808400690069802960391019216029B
:100A70004B4C206830432060FFF75EFE0546276838
:100A8000374006D1FFF758FE401B0328F7D3032059
:100A900000E00020414E002F01D1059F31E00325E9
:100AA0002C02B1682140059F21D0BA6991421ED025
:100AB000B168019A1204B3681343B360B3689343F7
:100AC000B3600A46A243B260C90710D000950190F6
:100AD000FFF732FE0546334CB068800706D4FFF7B7
:100AE0002BFE401BA042F7D3009800E0019800289D
:100AF00007D103200002B1688143B8690843B060A0
:100B000000200499002904D1029B1968039A91439B
:100B100019603D68E9072FD1A90735D4A90606D584
:100B20000321090332688A43F968114331600121C6
:100B30006A040ED532681C4B1A407C69224332602D
:100B40005A1C944205D10A043346483B1C6814439E
:100B50001C602A050ED58C0303229203336893434D
:100B60003A6913433360A24204D10A04483E316813
:100B70001143316007B0F0BD3168032291437A68B8
:100B80000A433260A907C9D531680C229143BA687B
:100B90000A433260A906C3D4C9E7C04654100240D4
:100BA0000070004089130000FFFFFF3FF0B583B0E5
:100BB0000D460121002800D1CFE00191029070483C
:100BC000006807242040A84213D26D490868A0435A
:100BD000284308606B4EFFF7AFFD07466848006882
:100BE0002040A84205D0FFF7A7FDC01BB042F5D9B1
:100BF000B2E0029E306881078D4B0CD5410703D5CA
:100C000021031A680A431A600F2109021A688A43ED
:100C1000B16811431960C00718D1594800682040D5
:100C2000A84228D956490868A04328430860554F70
:100C3000FFF782FD0646524800682040A8421AD0BD
:100C4000FFF77AFD801BB842F5D985E0029840682D
:100C500003285AD8810001A251588F466D0C000814
:100C60000F0D0008190D0008230D0008194608395A
:100C70000968490557E0029A107840076C4B05D582
:100C8000200319688143D0680843186018688006FB
:100C9000400F22D01A6838210A406648082A23D01B
:100CA0001A680A40102A5BD1596803220A40032AB5
:100CB00000D0614859684906490F491CFFF72DFAD1
:100CC0005B4949684904490E484359494968490FF5
:100CD000491CFFF722FA564B06E018460838006810
:100CE0008004410F5448C840196889093C220A40D1
:100CF000254989581F220A40D0402C4908602348C2
:100D00000068FFF70FFE014627E0596D0AE019461B
:100D100008390968890306E0194608390968890114
:100D200001E0996D8907019917D51968A14301431D
:100D30001960144FFFF700FD06463D480068382152
:100D4000014002984068C000814200D165E7FFF78A
:100D5000F3FC801BB842F0D90321084603B0F0BD74
:100D600018680840202802D10120C003BCE7186899
:100D70000840182801D00020B6E77D200002B3E724
:100D80000020024088130000702500080C0000209D
:100D90000648006826490968890A1C220A40044955
:100DA00089581F220A40D0407047C04604000020E6
:100DB000B025000810B51E4C20688006400F06D0F4
:100DC000226838210A401B48082A07D110BD083C78
:100DD00020688004410F1848C84010BD22680A40AE
:100DE000102A15D1616803220A40032A00D0124854
:100DF00061684906490F491CFFF78FF9616849048A
:100E0000490E48436168490F491CFFF786F910BD38
:100E100020680840202802D10120C00310BD2068AE
:100E20000840182801D0002010BD7D20000210BD10
:100E30000810024000127A000024F400F0B587B0D8
:100E40000127002800D1F4E1049705900078C0073D
:100E5000F94E2CD10598007880074CD4059800787D
:100E600000070DD5B06838210140182900D0A4E052
:100E7000306E800704D505988069002800D18CE188
:100E800005980078400700D45BE1B0683821014044
:100E9000202900D0A8E0F06D800700D44EE105982D
:100EA0008068002800D049E10020012747E1B068B0
:100EB000F16803273A468A43382101401020484010
:100EC000821850425041082945D0002843D1059846
:100ED0004268052000048242039200D1B6E001205E
:100EE00001048A4200D1B7E032688A43326081044B
:100EF00030688843B2E0B168382008401021414092
:100F0000F26803273A4002235340CA185142514124
:100F100000282AD0002928D1306801218C02059BA5
:100F2000DA68002A00D1B6E00722D20290431A699B
:100F3000024332600802316801433160FFF7FCFB75
:100F400005463068204200D0B5E0FFF7F5FB401BB6
:100F50000228F6D96DE13068800300D47AE705985D
:100F60004068002800D075E717E131684905059B06
:100F700003D5D968002900D10FE17F2109027268E9
:100F80008A43596909021143716000280DD1072075
:100F9000C0023168814318690843306030688004BA
:100FA000400FA649C140A6480160A6480068FFF767
:100FB000B9FC002800D0F0E050E7306E059989694F
:100FC000002900D181E0012108433066FFF7B4FB1E
:100FD0000546306E800700D552E7FFF7ADFB401B9A
:100FE00003270228F5D924E1012003900107F06BC3
:100FF0000840029006D1F06B0843F063F06B0840A4
:10100000069006980191904C2068C00510D4039872
:101010000702206838432060FFF78EFB05462068F2
:10102000384205D1FFF788FB401B0228F7D973E04F
:1010300005988468052C59D0012C5BD0F06D03997C
:101040008843F065F06D0421884356E00120810457
:1010500032680A433260010430680843306001207E
:101060004404FFF769FB0546039800280FD0306859
:10107000204200D0EEE6FFF75FFB401B6428F6D964
:10108000D7E0FFF759FB401B642800D9D1E0306856
:101090002042F6D1DEE6090288433060FFF74CFBC0
:1010A00005463068204200D1D8E6FFF745FB401BDB
:1010B0000228F6D9BDE07F200002716881430598BF
:1010C0004069000208437060C8E601218843306629
:1010D000FFF732FB0546306E800700D4D0E6FFF7FD
:1010E0002BFB401B03270228F5D9A2E0F06D042159
:1010F0000143F165F06D03990843F065534FFFF725
:101100001BFB0546002C0FD0F06D80070FD4FFF7B6
:1011100013FB401BB842F7D9002003270FE0FFF76D
:101120000BFB401BB842F7D8F06D8007F7D402984C
:10113000002803D1F06B01998843F0630120002857
:1011400077D00598C469002C72D0B068382101406E
:10115000102924D1012C20D0F06803210140059BE7
:101160001A6A914219D1702101405A6A914214D1F0
:101170007F21090201409A6A120291420DD11F217A
:1011800049040140DA6A9142049F52D1072149077C
:101190000840196B88424BD04BE0049F49E001277F
:1011A00039063068049188433060FFF7C5FA054678
:1011B000022C0BD103977C063068204211D0FFF738
:1011C000BBFA401B03270228F6D932E07C063068C0
:1011D000204229D0FFF7B0FA401B03270228F6D996
:1011E00027E0F0681B490140059F2037ADCF084339
:1011F00010431902014329433943F16030680499CF
:101200000843306003980007F1680143F160FFF77D
:1012100093FA0546306820420AD1FFF78DFA401B49
:1012200003270228F6D904E0F06809490140F1607B
:101230000027F8B207B0F0BD001002400024F4000F
:10124000040000200C000020007000408813000003
:10125000FCFFFEEF8C80C11F401E010E01D001205B
:1012600070470749074A5060074803680B4003214D
:1012700089075918016000209060072111607047AC
:10128000FFFFFF0010E000E020ED00E0B0B584219A
:10129000415C012901D10220B0BD024684322421E3
:1012A000516001680B680C680125AC430C606C0749
:1012B000A3430B6000214166117020205060084656
:1012C000B0BD704770470000F0B581B002460446DB
:1012D0006834207F012802D1022001B0F0BD242013
:1012E000206215682E682B68012083432B602077CD
:1012F00007235B06AF689F430F43AF60516E002921
:1013000014D0AF68A868400F2B49095C2B4A105CC9
:10131000C000FEF702FF60803801400F2649095CDB
:10132000264A105CC000FEF7F8FE00E060802E60E8
:101330002080002020772021216201B0F0BDC0462E
:10134000F0B581B0024604466834207F012802D1FE
:10135000022001B0F0BD2420206215682E682B68A1
:10136000012083432B60207707235B07AF689F43EF
:101370000F43AF60516E002914D0AF68A868400FCA
:101380000D49095C0D4A105CC000FEF7C6FE608086
:101390003801400F0849095C084A105CC000FEF79C
:1013A000BCFE00E060802E6020800020207720219D
:1013B000216201B0F0BDC04600260008F8250008F3
:1013C0007047704770470000F0B58BB00668F5694C
:1013D000202401210891CF023A462F322A40336857
:1013E000B168202A0A9307D11A46224001231B071D
:1013F0000B40D21800D0A6E00991059404973A4614
:101400000F3206952A40074603465C3307930A9B32
:10141000002A09D0E54A1A4001252807441C0999E9
:101420000C40A21800D095E010201A46049002400B
:10143000544254413D46FA6E012A08990B4600D1A8
:101440002346069FFA060A46099800D51A46002A3E
:101450003CD00124A205024053425341FA020A46FD
:1014600000D51A46002A00D1F4E03A0609D58022B8
:1014700001460A980240E30519405218089900D025
:10148000A9E1284640230A9A1A40554255417A0656
:101490000A4600D52A46002A00D189E1A2070A9B04
:1014A0001A40534253413A020A4600D51A46002ACE
:1014B00000D195E10A9A002A00DB95E10024FA01A7
:1014C00000D594E1002900D194E195E104983062BF
:1014D000B0684006079C00D5C3E060882188628818
:1014E000002A00D188E1814200D185E1EFF3108329
:1014F000012282F31088092464012F683E68A64304
:101500003E6083F31088EFF3108382F310882C6819
:10151000A768BA4E3E40A66083F31088059B079CDF
:10152000236300236B67EB66EFF3108382F310886D
:101530002A681468049EB443146083F3108802225E
:101540002A67081AD4E0416F002900D154E1884786
:101550000BB0F0BD029703952A021A405342534143
:10156000069FFA0708990D4600D01D46002D039DE1
:1015700004D13562079B5A6B2A435A63099B2B405F
:101580005D425D41BA070A4600D52A46002A09D1C4
:1015900002223262079A516B0191042501990D4391
:1015A000089955635D425D417A070A4600D52A468F
:1015B000002A0A9B07D104223262079D6A6B02232C
:1015C00013436B630A9B01903A07029D0CD51A46A0
:1015D000059B1A400A9B144306D008223262079CDE
:1015E000636B134363630A9B039A92061A40534248
:1015F00053410498074200D019460029079C05D1A1
:1016000004983062616B059801436163616B002946
:101610000A9900D1F0E0059807400BD0099A01988B
:10162000024005980140114304D0696F002901D0A0
:1016300028468847606B282101402868826840203E
:101640000240511865D12846FFF7BCFE00206063B8
:101650000BB0F0BD200530622846FFF7B2FE0BB09C
:10166000F0BD606A006841688AB2002A46D02388CB
:101670009A4243D261800068800634D4EFF310812F
:10168000012080F310885F4A20322B681C681440C8
:101690001C6081F31088EFF3108180F310882A68B2
:1016A00093688343936081F31088EFF3108180F394
:1016B00010882A6893684024A343079C936081F3B1
:1016C0001088059921630021E966EFF3108180F30A
:1016D000108828680268049B9A43026081F310888E
:1016E000606AFEF775FD0220286720886188401A2D
:1016F00081B22846FFF7E5FD0BB0F0BD218891428D
:1017000000D079E00068800600D475E002202867E8
:10171000EFE7EFF31081039E86F310880922520150
:101720002B681C6894431C6081F31088EFF31081D0
:1017300086F310882A689368304C1C40946081F3CB
:101740001088E96E01290BD1EFF31081039A82F31F
:1017500010882A6813681024A343136081F310884B
:10176000079C059921630021E966696729688968F2
:10177000490616D5EFF31081039A82F310882A6880
:1017800093688343936081F31088606A002808D0CF
:101790001B498163FEF752FD00282DD0606A816BE2
:1017A000D5E62846FFF70EFE0BB0F0BD2001000481
:1017B000EFF3108584F3108801680A689A430A6081
:1017C00085F31088002181670799059ACA6200F0A5
:1017D0000DF90BB0F0BDA96F00290DD02846B6E673
:1017E000FFF7EEFD0BB0F0BDFA0100D46AE621462A
:1017F000002901D1FFF766FD0BB0F0BDFEFFFFEF42
:10180000E91C0008DFFEFFFFB0B500281ED004462B
:10181000054684356868002804D1002028702046D9
:1018200000F02AF824206860206801680125A94397
:101830000160A06A002802D0204600F08DF9204601
:1018400000F0E2FA002803D02846B0BD0120B0BD68
:101850000920C00221684A6882434A6088682A22B7
:10186000904388600868012202430A60204600F025
:10187000DDF905462846B0BD70B58EB00446002699
:101880000D960C960B960A9609960896079606965C
:10189000059604960396029600687A49884201D01C
:1018A0000EB070BD03960125029502A8FFF7C4F89B
:1018B000002801D0FEF787FC1F48C1680D95AA03D8
:1018C0001143C160C168114001910199016804226E
:1018D000114301600068104001900C960B960220A5
:1018E0000A90302009900198144809A9FEF758FE83
:1018F0006803134D2862802010213322114B2B6086
:101900006A60A960EE6028616E61AE61EE61284692
:10191000FEF73CFD002801D0FEF755FCAC62E56700
:101920001B24002120460A46FFF742F82046FFF715
:1019300033F80EB070BDC0463410024000080050AD
:101940001001002008000240F0B581B004460646B0
:101950005436706B202811D1012500290FD0134671
:10196000002A0CD001273803A26882420AD1C80796
:1019700008D02069002805D13D4600E00225284610
:1019800001B0F0BD73800025F5633380216521200F
:101990007063E06F002812D0134AC262114A0263DA
:1019A0000F4A4263856322682832FEF76BFD0028E8
:1019B00005D01020F063202070633D46DFE72068EB
:1019C00040210162EFF31080012181F3108821682A
:1019D0008A68802313438B6080F31088CFE7C0466A
:1019E000F51C0008FD1D0008B91D0008F0B581B008
:1019F00000682449884201D001B0F0BD224C002586
:101A00002570EFF3108072B62078002802D062B6FD
:101A100001B0F0BD34480188354F3A88914202D177
:101A200062B601B0F0BD0121217062B6EFF3108102
:101A300072B63E88018862B68E420FD000202D4AD1
:101A4000124B2A4FB5B2555D1D54761C3E40451CC5
:101A5000FE2802D88E422846F4D1254F2804CBD048
:101A6000AAB20B480949FFF76FFF002803D00020F6
:101A7000207001B0F0BDEFF3108072B63E8062B608
:101A800001B0F0BD003801405A02002010000020D3
:101A9000C40100207047FEE7F0B581B00446FEF7B0
:101AA00035FB00281ED000270F49114B3E4604E0AD
:101AB00062B6761CB7B2B84214D9E75DEFF3108571
:101AC00072B60D886D1C094A15401A889542EFD0F0
:101AD0000A8821461C46074B9F5423460C46024960
:101AE0000D80E5E701B0F0BD6C010020FF010000B2
:101AF000580200205B02002010B57D20C400204663
:101B0000FEF726FD0948FFF7C7FF2046FEF720FD38
:101B1000074800F01DFD2046FEF71AFD05A000F065
:101B200017FD0120FEF714FD10BDC0460826000871
:101B30001B26000853797374656D205374617274A9
:101B40006564210D00000000FEE77047704780B516
:101B5000FEF7C6FE80BD7047B0B5816A0A070CD497
:101B6000CA0714D18A071CD44A0724D4CA062CD425
:101B70008A0634D44A063CD44CE00122D2030368DE
:101B80005C689443826B22435A60CA07EAD0012200
:101B9000520403685C689443C26A22435A608A070D
:101BA000E2D50122120403685C689443026B22436D
:101BB0005A604A07DAD50122920403685C689443AC
:101BC000426B22435A60CA06D2D50122120303682F
:101BD0009C689443C26B22439A608A06CAD501224C
:101BE000520303689C689443026C22439A604A063D
:101BF00010D501221305026854689C43456C2C43A0
:101C000054609D4206D103235B0554689C43836C5A
:101C100023435360090607D50121C90402685368AC
:101C20008B43C06C18435060B0BD0000F0B583B06A
:101C30000446064684360027F760FEF77DFD03461E
:101C40002068006800071CD52648009001200290FB
:101C50004105002220461D4600F0FCF92B460028D5
:101C60000FD0EFF31080029981F3108821680A6881
:101C700080239A430A6080F310882020706003203C
:101C80002DE020680068400723D516480090012504
:101C9000A9050022204600F0DDF9002819D0EFF355
:101CA000108085F3108809214901226813688B434D
:101CB000136080F31088EFF3108085F3108821689B
:101CC0008A68AA438A6080F310882020B0600320CD
:101CD00005E020207060B060E766276738463770FF
:101CE00003B0F0BDFFFFFF0180B5806AFFF76AFB1C
:101CF00080BD0000F0B581B0806A8821435801465C
:101D000088314A680468A46824061AD5212B18D1A2
:101D1000EFF31083012484F3108805682E68C02730
:101D2000BE432E6083F31088EFF3108384F3108892
:101D3000E4050568AE68A643AE6083F310882023EF
:101D40000B6003689B685B062CD5222A2AD1EFF32F
:101D50001083012282F310880924640105682E682B
:101D6000A6432E6083F31088EFF3108382F310886C
:101D70000468A5680F4E2E40A66083F31088C36EDA
:101D8000012B0AD1EFF3108382F3108802681468E4
:101D90001025AC43146083F3108820224A6000228F
:101DA0004267C2668A68102313438B60FFF70AFB01
:101DB00001B0F0BDFEFFFFEFB0B50146806A0968D3
:101DC0000968890617D4EFF31081012282F3108885
:101DD00003689C688025AC439C6081F31088EFF316
:101DE000108182F310880068026840231343036067
:101DF00081F31088B0BDFFF7F9FDB0BD80B5806AF2
:101E0000FFF748FE80BD0000F0B581B004460068D1
:101E100001685C4A0A40A16823690B4365691D4358
:101E20001543E1690D4305600322120343689343A0
:101E3000E2681A434260A269236A13438268524DE2
:101E400015401D438560C26A0F239A43636A13439A
:101E5000C36200224D4B984206DC4F4B984210D093
:101E60004E4B984215D013E0494B984211D0494A45
:101E700090420DD14A4800688007000F494A125825
:101E800007E0474800680C2202404648825800E0BC
:101E90001022264668360125EB034348994211D1AA
:101EA000082A21D80027C0467A4412795200974464
:101EB000041B221B201B1B1B3A00FEF769FF002896
:101EC0001BD155E0082A32D80027C0467A4412793F
:101ED00052009744042C332C312C2C2C4A00FEF752
:101EE00057FF00282CD143E000200127002804D10F
:101EF0003EE0FEF75FFF00283AD0616A49002B4AB6
:101F0000515AFEF70AF9400061684A081018FEF7B6
:101F100004F90246103A26498A422AD201400007B3
:101F2000400F08431DE018460028E6D120E00020BD
:101F30000127002804D11BE0FEF73CFF002817D042
:101F4000616A4900194A515AFEF7E7F861684A0880
:101F50001018FEF7E2F801461039154A914208D2EE
:101F600080B23D462168C86003E018460028E7D1EA
:101F70003D461048306000206067A067284601B0E9
:101F8000F0BDC046F369FFCFFFF4FF11FF4B0040E7
:101F9000004C004000380140004400400048004030
:101FA00054100240E82500080024F400D025000861
:101FB000F0FF000001000100F0B581B0EFF31080E8
:101FC00072B6224C2078002802D062B601B0F0BD73
:101FD00081480188824F3A88914202D162B601B0AD
:101FE000F0BD0121217062B6EFF3108172B63E8818
:101FF000008862B6864204D10025280413D101B0BE
:10200000F0BD0021774A124B744FB5B2555D5D5457
:10201000761C3E404D1CFE2902D886422946F4D14A
:102020006F4F2804EBD0AAB260480949FFF78CFC37
:10203000002803D00020207001B0F0BDEFF3108025
:1020400072B63E8062B601B0F0BDC0465A020020B2
:1020500010000020F0B585B004930F4604460068D8
:10206000C0690840401A414241410020914200D0DD
:1020700091E0164602902046843001900A9D01208E
:102080000090C002039007E02068C0693840C01B80
:1020900041424141B14248D1681CF5D0FEF74CFBAA
:1020A00001460320002D00D175E0049A891AA94247
:1020B00000D970E0206801684907E5D5402FE3D0DA
:1020C000802FE1D0C169090732D4C169039A114256
:1020D000DAD003990162EFF31080012282F31088B5
:1020E0000921490123681D688D431D6080F3108814
:1020F000EFF3108082F3108821688B68274D1D4014
:102100008D6080F31088E36E03202021012B019F56
:102110003AD1EFF3108382F31088226815681026F5
:10212000B543156083F310882EE0029805B0F0BD2A
:1021300008210162EFF31080009E86F310880922C7
:10214000520123681D6895431D6080F31088EFF3EA
:10215000108086F3108822689368104D1D409560AA
:1021600080F31088E06E01280CD1EFF3108201207B
:1021700080F3108823681D681026B5431D6082F324
:10218000108800E03046019F2022BA600022E266FB
:1021900062673A70F96005B0F0BDC046FEFFFFEF20
:1021A00080B5E148FFF710F980BDC046C4010020AA
:1021B00010B5EFF3108172B607490A88531C074A1D
:1021C0001A40074B1B889A4203D00B88054CE054F9
:1021D0000A8062B610BDC0466C010020FF010000FD
:1021E000580200205B02002098B0FEF785FB0BAC84
:1021F00034212046FDF77FFF00250A9509950895B3
:10220000079501267002FEF7EFFB12954020109013
:1022100006950F9535020E9502270B972046FEF77F
:102220000DFE002803D0EFF3108072B6FEE705958F
:10223000069C0A94099408940720079007A8214651
:10224000FEF7B4FC002803D0EFF3108072B6FEE76F
:102250000F940E940D940C940B94A64A10680421CC
:102260000843106010680840079007981068202104
:1022700008431060106808400790079810683546BA
:10228000304310601068304007900798106838435A
:1022900010601068384007900798106808210843BC
:1022A00010601068084007900798934893492246A9
:1022B000FEF73AFA0521080704900E46029190496C
:1022C0002246FEF731FA8F4829462246FEF72CFABD
:1022D0008D488E492246FEF727FA0D9411200004FE
:1022E00001900C90F0020B900BAF834E30463946B4
:1022F000FEF756F90D940C9428030B90304639469E
:10230000FEF74EF90E940D940C957C480B903046D8
:102310003946FEF745F90D9403260C9621208002DC
:102320000B9075483946FEF73BF90D940C960B96C9
:1023300077483946FEF734F90E940D940C957048A1
:102340000B9004983946FEF72BF90E940D940395E3
:102350000C950B956B483946FEF722F90D94019DBB
:102360000C956C480B9067483946FEF719F90D94A7
:102370000C9469480B9063483946FEF711F90D94A7
:102380000C9505980B90049D28463946FEF708F9F0
:102390000D940C94412040020B9028463946FEF7DC
:1023A000FFF80E940D9403980C9058480B905648E3
:1023B0003946FEF7F5F80D940C96F0020B9028467E
:1023C0003946FEF7EDF80D940C960C2005900B9015
:1023D0004D483946FEF7E4F80D940C964B4885308D
:1023E0000B9048483946FEF7DBF8029E30462146FE
:1023F0002246FEF7DDFA3046FEF7CEFA07263046D3
:1024000021462246FEF7D4FA3046FEF7C5FA39498E
:102410004868039D28434860486828400B900B9803
:102420000926304621462246FEF7C2FA3046FEF71C
:10243000B3FA3A483A493B4A0260021D32C204618B
:1024400044618461C4610462FEF7BCF9002803D0D2
:10245000EFF3108072B6FEE7059D30480021FEF7CD
:102460006FF9002803D0EFF3108072B6FEE72B4817
:1024700000242146FEF785F9002803D0EFF31080F1
:1024800072B6FEE728482949046244628462E12268
:10249000520216C0046044608560C46004610C3858
:1024A000FFF7B2F9002803D0EFF3108072B6FEE711
:1024B0001D480021FEF744FF002803D0EFF31080F1
:1024C00072B6FEE718480021FEF7FEFE002803D092
:1024D000EFF3108072B6FEE71348FEF7D7FE002830
:1024E00003D0EFF3108072B6FEE7FFF705FBFFF7AE
:1024F00063FDFAE73410024000080050CF430000AB
:10250000FF04000000040050000C005073030000A2
:10251000001400500250000004A0000070010020D0
:10252000583D500000580040C401002000380140D0
:1025300002E008C8121F08C1002AFAD1704770478C
:10254000002001E001C1121F002AFBD170470000EA
:1025500010B5044601E0FFF72BFE2078641C034908
:102560000028F8D10A20FFF723FE10BD000000204C
:10257000000000000000000000000000000000005B
:10258000000000000000000000000000000000004B
:102590000100000002000000030000000400000031
:1025A000060000000700000008000000090000000D
:1025B000000000000000000000000000000000001B
:1025C0000100000002000000030000000400000001
:1025D000010002000400060008000A000C001000C0
:1025E0002000400080000001000000000400000006
:1025F00002000000080000000101010307010000C3
:102600000804020408010101544553542053657223
:1026100069616C20545832210D0A005445535420EE
:1026200053657269616C20545833210D000000001D
:10263000502600080000002010000000302500088F
:102640006026000810000020500800004025000807
:10265000000000000024F40001000000040000005D
:04000005080000B936
:00000001FF
