:020000040800F2
:10000000F8080020CD000008DD5200087133000818
:1000100000000000000000000000000000000000E0
:10002000000000000000000000000000E552000891
:100030000000000000000000E152000839530008F1
:10004000DF00000800000000DF000008DF000008FB
:10005000E3520008DF000008AD0A0008B70A0008F4
:10006000000000001D0A0008DF000008DF00000893
:10007000DF000008BD530008DF000008000000009A
:10008000DF000008DF000008DF000008DF000008D4
:10009000DF000008DF000008DF000008DF000008C4
:1000A00075330008DF000008DF000008DF000008EB
:1000B000DF000008DF0000080348854600F046F82E
:1000C0000048004791730008F80800200448804762
:1000D00004480047FEE7FEE7FEE7FEE7FEE7FEE72F
:1000E000BB530008B9000008D2B201E00270401C06
:1000F000491EFBD270470022F6E710B513460A46A8
:1001000004461946FFF7F0FF204610BD70B50446BF
:10011000002903D000202022012310E0002801D074
:100120000020C043C046C0460DE02546D5408D4264
:1001300005D30D469540641B1D4695404019154654
:10014000521E002DF1DC214670BD00001CB509488F
:1001500000900948019005460126009C05E0E368EF
:1001600007CC33430C3C98471034AC42F7D3FFF72D
:10017000A7FF0000C8860008E886000883B0029048
:1001800021490020087001A90870FFE701A8007844
:100190000B280CDCFFE701A8007842001B49002077
:1001A0008852FFE70198401C01A90870EEE76946F4
:1001B00000200870FFE768460078012821DCFFE78F
:1001C0006A461078400011490B18002018831378F4
:1001D0005B00CB18988313785B00CB1818841378D6
:1001E0005B00CB18988413785B00CB1818851278C5
:1001F00089182C228854FFE70098401C6946087033
:10020000D9E703B07047C0463E0000201000002030
:1002100010B586B0E848007804284CD1FFE700F01C
:10022000F3FFE6490968884205D2FFE700F0ECFFDA
:10023000E2490860FFE700F0E7FFE0490968491D6F
:10024000884237D9FFE700F0DFFFDC490860DC486F
:10025000007801282DDBFFE705A900200870FFE7E3
:1002600005A80078032819DCFFE705A908784000F5
:10027000DB4BC018008A000A0A785400D14A105596
:1002800008784000C018008A097849008918487029
:10029000FFE70598401C05A90870E1E708200190D8
:1002A000C8480090E348A0211022012301F030FB50
:1002B000FFE7FFE72CE0DE480078022827D1FFE7C0
:1002C00000F0A2FFBD490968884205D2FFE700F0AF
:1002D0009BFFBA490860FFE700F096FFB74909683D
:1002E000491D884212D9FFE7D248A02101231A46AE
:1002F00001F046F9002808D1FFE7B1490020087055
:10030000CB49087000F074F9FFE7FFE7FFE7FFE76C
:10031000AD480068AD4909684B221201891888422E
:1003200000D810E1A8480068A8490860A8480078EB
:10033000002800D006E1A6480079002800D001E19D
:10034000A3484078002800D0FCE0A148407900286C
:1003500000D0F7E09F482421405C002800D0F0E066
:100360009C482521405C002800D0EAE004A9002038
:100370000870FFE704A80078012800DDB3E004A9B5
:1003800008782C22424397488018C08809784A0090
:1003900093498918898B884210D0FFE704A908780F
:1003A0002C2242438F488018C08809784A008C4923
:1003B00089188883884901200870FFE704A9087814
:1003C0002C2242438748805A09784A008449891878
:1003D000098B88420FD0FFE704A908782C224243FA
:1003E0008048805A09784A007D49891808837A49EB
:1003F00001200870FFE704A908782C2242437948BD
:100400008018008909784A0075498918098C884242
:1004100010D0FFE704A908782C22424371488018C5
:10042000008909784A006E49891808846A490120C0
:100430000870FFE704A90878182242436A48805AE6
:1004400009784A0066498918898C88420FD0FFE7ED
:1004500004A90878182242436348805A09784A0060
:100460005F49891888845C4901200870FFE704A966
:100470000878182242435C488018808809784A002E
:1004800057498918098D884210D0FFE704A90878D8
:100490001822424354488018808809784A005049FD
:1004A000891808854C4901200870FFE704A80278E4
:1004B0004A48805C4A4989182C22895C88420CD0C1
:1004C000FFE704A802784548805C454989182C223A
:1004D0008854414901200870FFE7FFE70498401C59
:1004E00004A9087046E73C480078012828D1FFE7B6
:1004F0004F480078002823D1FFE7374900200870D3
:10050000364B1878364903910880364AD08848809F
:10051000108888801089C880334804880C818488BA
:100520004C815B788B81538ECB81938D0B82928E25
:100530004A82028B8A82808BC88200F033FAFFE7FE
:10054000FFE7FFE7FFE7052000070121C90300F0EF
:100550002BFE411E4842414124480170007800288A
:1005600028D1FFE708F014F8FB4B1878F9490291FD
:100570000880FA4AD0884880108888801089C8800E
:10058000F74804880C8184884C815B788B81538E7A
:10059000CB81938D0B82928E4A82028B8A82808BD2
:1005A000C882EA480078002803D1FFE700F0FAF992
:1005B000FFE7FFE706B010BD3E000020400000202E
:1005C0003F000020E5020020DC0100204800002060
:1005D0009C020020E00100204400002008000020D0
:1005E000100000200C0200206C020020D402002029
:1005F00080B584B0E9480078002804D0FFE703A95B
:10060000022008700FE0E5490320087018200190CF
:10061000CD4800900748A0210022012301F0E4F812
:1006200003A90870FFE703A8007804B080BDC046A6
:100630003E000020A800002010B586B0C248007817
:10064000FF2825D1FFE7C0484078FF2820D1FFE7E9
:10065000C14B1878F04904910880C04AD08848807E
:10066000108888801089C880BD4804880C818488DF
:100670004C815B788B81538ECB81938D0B82928ED4
:100680004A82028B8A82808BC88200F08BF958E103
:10069000DD490020087005A90870FFE705A800786B
:1006A0000B2811DCFFE705A80178A7484A0081184C
:1006B000805C000249784018D7498852FFE70598C6
:1006C000401C05A90870E9E7A148007800285CD122
:1006D000FFE7D1480088A049097888424DD1FFE75B
:1006E000CD4840889D49C988884246D1FFE7CA481D
:1006F00080889A49098888423FD1FFE7C648C08868
:1007000096490989884238D1FFE7C348008994494E
:100710000988884231D1FFE7BF48408990498988DC
:1007200088422AD1FFE7BC4880898B4949788842B2
:1007300023D1FFE7B848C0898849498E88421CD137
:10074000FFE7B548008A8549898D884215D1FFE7C2
:10075000B148408A8149898E88420ED1FFE7AE4870
:10076000808A7F49098B884207D1FFE7AA48C08A5F
:100770007B49898B884207D0FFE7754902200870C2
:10078000784901200870FFE7FFE7714800780128E9
:1007900000DDD2E0A04801886F4801700078401E5B
:1007A0000390032843D80398810001A0405887464E
:1007B00013080008F9070008DD070008C107000852
:1007C00095484188654AD18081881180C18811810E
:1007D000028963490A804089888034E08E484288D3
:1007E0005E49CA8082880A80C08808815C495F4867
:1007F00008805D48888026E0874842885749CA803B
:1008000080880880584808815549584A0A8088805D
:1008100019E052497D20C000C8807F488088088048
:10082000514808814E49514A0A8088800BE04B4963
:100830007D20C000C8804D4A0A804B480881484945
:100840000A808880FFE77448818943484170407876
:10085000401E0290032844D80298810001A040580D
:100860008746C046C7080008AD0800089108000880
:10087000750800086848C189384A5186018A9185FF
:10088000418A9186828A36490A83C08A888334E005
:100890006148C28931494A86028A8A85408A8886A7
:1008A0002F49324808833048888326E05A48C28955
:1008B0002A494A86008A88852B48888628492B4AF7
:1008C0000A83888319E025497D20C0004886524864
:1008D000008A8885244888862149244A0A83888397
:1008E0000BE01E497D20C0004886204A8A851E48AC
:1008F00088861B490A838883FFE7184A108846497F
:1009000001910883D088888310890884144803885B
:100910008B8483880B85938D4B83538ECB83928EF0
:100920004A84028BCA84808B48850B4802782C232A
:10093000CA542C3140784870FFE705490020087000
:10094000FFE706B010BDC046BC0200203E000020FC
:100950000000002010000020080000200C020020F1
:100960006C0200204400002050C30000102700004B
:1009700080B526480178491C01700078012804DC04
:10098000FFE721490420087003E01F490220087096
:10099000FFE700F039FC0249086080BD3E000020FE
:1009A0004000002010B584B003A900200870FFE7C4
:1009B00003A80078072817DCFFE703A9087842009E
:1009C0001548825A130A0A785400114A13550B78B5
:1009D0005B00C05A0978490089184870FFE70398FE
:1009E000401C03A90870E3E7074801230370074888
:1009F0000022027010200190054800900548A021B7
:100A000000F086FF04B010BD3E0000203F00002033
:100A1000D5020020A80000201000002080B5024868
:100A200000F0C6F880BDC0464C00002080B582B002
:100A300001900199086C032290430B4A8018486486
:100A40000198007808381421FFF760FB00900199A5
:100A50000648886400991F200140012088400199C0
:100A6000C86402B080BDC046000802408008024051
:100A700082B00190019840683F21084000900098A2
:100A800080000849401801990865019906484865A1
:100A90000098411E0320014001208840019988658B
:100AA00002B07047FC0802404009024080B50420B3
:100AB00000F0E0F980BD80B582B0012001904002D5
:100AC00000F0D8F90198400300F0D4F90198C00370
:100AD00000F0D0F902B080BD81B0EFF3108072B6A3
:100AE0000090FFE7FEE7000080B582B00190694604
:100AF0000020087001982521405C022807D0FFE7FC
:100B000001990420C86369460120087043E00198F8
:100B1000016808680122904308600198016808682C
:100B20000E23984308600198416C086813029843AB
:100B300008600198006C1C210840824077490868D1
:100B4000104308600199C86C896C48600198006D79
:100B500000280CD0FFE70198016D086801221202FD
:100B6000904308600199886D496D4860FFE70199DD
:100B7000252201208854FFE701992422002088546F
:100B8000FFE70198806B002804D0FFE70198816B94
:100B90008847FFE7FFE76846007802B080BDC0469F
:100BA00081B0009000982521405C01B070470000A2
:100BB00080B584B00390584800680290039800689C
:100BC0000068019002980399096C1C221140C840EA
:100BD0004007002828D5FFE701A800784007002833
:100BE00022D5FFE70398006800688006002807D434
:100BF000FFE7039801680868042290430860FFE754
:100C00000398006C1C210840042282404349086874
:100C1000104308600398006B002804D0FFE7039896
:100C2000016B8847FFE774E002980399096C1C2266
:100C30001140C8408007002832D5FFE701A800789E
:100C4000800700282CD5FFE703980068006880061D
:100C500000280BD4FFE70398016808680A22904334
:100C600008600399252201208854FFE70398006C4F
:100C70001C2108400222824028490868104308606D
:100C8000FFE70399242200208854FFE70398C06AF5
:100C9000002804D0FFE70398C16A8847FFE737E0E0
:100CA00002980399096C1C221140C84000070028D3
:100CB0002CD5FFE701A800780007002826D5FFE71C
:100CC0000398016808680E22904308600398016C3D
:100CD0001C200140012003468B40104A1168194333
:100CE00011600399C863039925228854FFE703998B
:100CF000242200208854FFE70398406B002804D08A
:100D0000FFE70398416B8847FFE700E0FFE7FFE755
:100D1000FFE704B080BDC04600000240040002406E
:100D200080B584B002900298002804D1FFE703A99F
:100D3000012008706EE00298009000683749401862
:100D40001421FFF7E3F90099800008640299252235
:100D500002208854029801680868314A10400860EF
:100D6000029801908268C1680A4301690A43416997
:100D70000A4381690A43C1690A43016A0A43016857
:100D80000868104308600298FFF750FE02988068D8
:100D900001218903884204D1FFE7029900204860BD
:100DA000FFE7029948683F221040496C08600299A9
:100DB000C86C896C486002984068002811D0FFE731
:100DC0000298406804280CD8FFE70298FFF750FE0D
:100DD0000298016D002008600299886D496D486095
:100DE00007E0029900200865029948650299886524
:100DF000FFE702990020C863029925220120885448
:100E0000FFE70299242200208854FFE703A900206D
:100E10000870FFE703A8007804B080BDF8FFFDBFAD
:100E20000F80FFFF80B584B0039000F0EDF90290D1
:100E3000039801900198401C002806D0FFE709485C
:100E40000178019840180190FFE7FFE700F0DCF916
:100E50000299401A0199884201D2FFE7F6E704B0EF
:100E600080BDC0460A00002081B06946088001B0FC
:100E70007047000080B582B001A908800F48006863
:100E80000988084208D0FFE701A801880B4A1160D1
:100E9000008800F017F8FFE70948006801A90988F1
:100EA000084208D0FFE701A80188054A11600088C0
:100EB000FFF7DAFFFFE702B080BDC0460C18024022
:100EC0001018024080B582B0014601A80180008858
:100ED00005F062F802B080BD8AB009900891002048
:100EE0000790FFE7089800680799C840002800D1DC
:100EF00047E108980068079A012191400840069050
:100F00000698002800D138E108984068032108407D
:100F1000012807D0FFE7089840680321084002280D
:100F20002CD1FFE7099880680590079840000321BD
:100F300081400598884305900898C168079840004B
:100F4000814005980843059005980999886009989B
:100F500040680590079801218140059888430590D5
:100F600008984068102108400109079881400598B9
:100F700008430590059809994860FFE7089840687C
:100F800003210840032816D0FFE70998C0680590A0
:100F900007984000032181400598884305900898F0
:100FA000816807984000814005980843059005989E
:100FB0000999C860FFE708984068032108400228A3
:100FC00020D1FFE709980799C90889004018006AED
:100FD000059007984007C00E0F218140059888436F
:100FE00005900898016907984007C00E8140059850
:100FF0000843059005980999079AD2089200891824
:101000000862FFE7099800680590079841000320EF
:1010100002468A4005999143059108994968014023
:101020000798400081400598084305900598099964
:101030000860089880798007002800D19CE0079814
:101040000321884350494058059007988007C00EF7
:101050000F218140059888430590099805210907CB
:10106000884203D1FFE70020049022E00998474915
:10107000884203D1FFE70120039017E00998444913
:10108000884203D1FFE7022002900CE00999414A0F
:101090000320052300939142019001D00098019014
:1010A00001980290FFE702980390FFE703980490ED
:1010B000FFE7049907988007C00E81400598084310
:1010C000059005980799032291432F4A885032488A
:1010D00000680590069905988843059008988079DE
:1010E000C006002805D5FFE7069905980843059036
:1010F000FFE7059828490860284800680590069988
:10110000059888430590089880798006002805D5C1
:10111000FFE70699059808430590FFE705981F49E2
:1011200008601F4800680590069905988843059057
:10113000089880798007002805D5FFE7069905986B
:1011400008430590FFE705981549086015480068B1
:101150000590069905988843059008988079C007FE
:10116000002805D0FFE70699059808430590FFE79A
:1011700005980C490860FFE7FFE70798401C0790B7
:10118000B0E60AB07047C046601802400004005044
:1011900000080050000C00500018024004180240E3
:1011A000841802408018024084B0009101460098E3
:1011B000039102A90880039800690988084204D0B5
:1011C000FFE701A90120087003E001A900200870D1
:1011D000FFE701A8007804B0704783B0029001A82F
:1011E0000180684602700078002805D0FFE701A85A
:1011F00000880299886104E001A800880299886249
:10120000FFE703B070470000014800687047C04620
:10121000F002002010B583B00190009101984121A7
:10122000405C202839D1FFE7FFE701984021405C6E
:10123000012804D1FFE702A90220087031E00199DA
:10124000402201208854FFE7FFE701994122242032
:101250008854019801680868012398430860019840
:10126000016808681C03A0430860009C019801689D
:1012700008682043086001980168086818430860FE
:10128000019920208854FFE70199402200208854CA
:10129000FFE702A90020087003E002A902200870FD
:1012A000FFE702A8007803B010BD84B0029001915E
:1012B00002984121405C20283FD1FFE7FFE70298D8
:1012C0004021405C012804D1FFE703A902200870F7
:1012D00037E00299402201208854FFE7FFE7029996
:1012E0004122242088540298016808680123984309
:1012F0000860029800680068009000980F210902B9
:1013000088430090019801020098084300900098DB
:101310000299096808600298016808681843086023
:10132000029920208854FFE7029940220020885427
:10133000FFE703A90020087003E003A9022008705A
:10134000FFE703A8007804B0704781B0009001B0B7
:10135000704783B0029001A801706846028003B014
:10136000704780B584B0039003980068806902904C
:10137000039800680068019002A84078C007002820
:1013800010D0FFE701A80078C00900280AD0FFE7C5
:10139000039A516C012001435164039909680002CA
:1013A000C861FFE702A840780421084080080028AF
:1013B00011D0FFE701A80078C00900280BD0FFE793
:1013C0000399486C0822104348640398016801207F
:1013D0008002C861FFE702A8407802210840400867
:1013E000002811D0FFE701A80078C00900280BD021
:1013F000FFE70399486C0222104348640398016890
:1014000001204002C861FFE70398406C00906846E5
:1014100000780B21084205D0FFE70398009902F0FD
:1014200097F9FFE704B080BD80B584B003900398BE
:101430000068806902900398006800680190039832
:10144000406B002806D0FFE70398436B0299019A8E
:101450009847FFE704B080BD81B0009001B07047AD
:1014600080B582B000900098002804D1FFE701A960
:10147000012008707EE000984121405C002808D1DE
:10148000FFE70099402200208854009800F0DEFA1F
:10149000FFE70099412224208854009801680868D9
:1014A000012290430860009948680F231B06984367
:1014B00009680861009801688868D20390438860D1
:1014C0000098C068012808D1FFE7009988680122C8
:1014D000D20310430968886007E0009988682122D8
:1014E0009202104309688860FFE70098C0680228EC
:1014F00008D1FFE70098016848680122D202104332
:10150000486007E00098016848680122D2029043D1
:101510004860FFE7009801684868184A104348602F
:1015200000980168C8680122D3039843C8600099F5
:1015300008694B6918438B691B0218430968C86026
:101540000099C8690B6A1843096808600098016827
:10155000086810430860009900204864009A4123FD
:101560002021D1540099086300994222885401A98E
:101570000870FFE701A8007802B080BD008000027B
:1015800010B58CB00A9009A801800892079300203A
:1015900005900A984121405C202800D0FCE00A9880
:1015A0000068806980B2C00B012804D1FFE70BA955
:1015B00002200870F4E0FFE70A984021405C01280F
:1015C00004D1FFE70BA902200870E9E00A99402244
:1015D00001208854FFE7FFE70A994122242088541C
:1015E0000A9900204864FFE70A98C068012808D1DA
:1015F000FFE709A800886C4908406D49401802902F
:1016000007E009A800886849084068494018029026
:10161000FFE702980A9909684860FFF7F5FD069010
:101620000A980068806920210840400904A90870D0
:101630000A980068806910210840000903A9087011
:10164000FFE704A8017800200029019006D1FFE7F8
:1016500003A80078414248410190FFE70198C00784
:10166000002835D0FFE70798401C00281FD0FFE76F
:10167000FFF7CAFD0699401A0799884204D8FFE788
:101680000798002812D1FFE70A98412120224254EE
:101690000A99486C10434864FFE70A9940220020E9
:1016A0008854FFE70BA90120087079E0FFE70A984A
:1016B0000068806920210840400904A908700A9840
:1016C0000068806910210840000903A90870B8E784
:1016D0000A980068806910210840000900282BD171
:1016E000FFE70A98079B069900912021002203F04A
:1016F000B4FB00280ED0FFE70A98406C042808D1FC
:10170000FFE70A9801682020C8610A990020486410
:10171000FFE710E00A9801682020C8610A99412279
:101720008854FFE70A99402200208854FFE70BA95C
:101730000020087034E014E00A9801681020C861A5
:101740000A98079B069900912021002203F085FB4F
:10175000002805D1FFE70A9801682020C861FFE74B
:10176000FFE70598401C0590FFE705980899884217
:1017700000D239E70A984121202242540A99486C44
:1017800010434864FFE70A99402200208854FFE78D
:101790000BA90120087003E00BA902200870FFE7E5
:1017A0000BA800780CB010BDFF0300000028000259
:1017B0000020000281B0009001B0704781B000901D
:1017C00001B0704781B0009001B0704780B582B021
:1017D0000190FEF731FF02B080BD80B582B001906C
:1017E000FFF7C6F802B080BDB0B588B004460D98CA
:1017F0000C9D069405AC218004A90A8003A90B80E6
:1018000002A9088006984121405C202878D1FFE792
:101810000C98002805D0FFE702A80088002807D10F
:10182000FFE7069A01204102516407A908706BE0A6
:1018300006980068806980B2C00B012804D1FFE7D8
:1018400007A9022008705FE0FFE706984021405C8E
:10185000012804D1FFE707A90220087054E0069987
:10186000402201208854FFE7FFE706994122222009
:1018700088540699422240208854069900204864E2
:101880000C980699486202980699488506996C4812
:10189000C86206996B48486305A800880699C86421
:1018A00003A8008801280AD1FFE704A80078069958
:1018B0000968886206990020C043086508E004A80A
:1018C0004178069A12689162007806990865FFE7E8
:1018D000069805A9098803AA12785B4B0093002398
:1018E00003F068FAFFE70699402200208854FFE7DA
:1018F0000698012101F0D8FD07A90020087003E037
:1019000007A902200870FFE707A8007808B0B0BD5B
:10191000B0B588B004460D980C9D069405AC2180A6
:1019200004A90A8003A90B8002A908800698412116
:10193000405C20287BD1FFE70C98002805D0FFE70A
:1019400002A80088002807D1FFE7069A012041027B
:10195000516407A908706EE006980068806980B23B
:10196000C00B012804D1FFE707A90220087062E03C
:10197000FFE706984021405C012804D1FFE707A952
:101980000220087057E00699402201208854FFE7A2
:10199000FFE70699412221208854069942224020DF
:1019A0008854069900204864069908850C98069981
:1019B000486202980699488506992148C8620699A6
:1019C0002048486305A800880699C86403A80088D1
:1019D00001280AD1FFE704A80078069909688862FF
:1019E00006990020C043086508E004A84178069ADB
:1019F00012689162007806990865FFE7069805A9C4
:101A0000098803AA1278104B009301231B0603F0E8
:101A1000D1F9FFE70699402200208854FFE7069895
:101A2000012101F041FD07A90020087003E007A98A
:101A300002200870FFE707A8007808B0B0BDC046D4
:101A40000000FFFF9D4600080020008080B58AB09E
:101A5000099000200890079006900590049009983E
:101A600000681A4988422FD1FFE7FFE7184802684B
:101A700002210A4302600068084003900398FFE7D0
:101A80000320800204901220059001200690079008
:101A9000062008900F4804A9FFF71EFAFFE75948EF
:101AA0000268012189050A4302600068084002902B
:101AB0000298FFE7182001900022114600F0AFF8CD
:101AC000019800F0A1F8FFE70AB080BD005800407F
:101AD000341002400004005081B0009001B0704703
:101AE00081B0009001B0704731480278024908681F
:101AF000801808607047C046F002002080B582B0B0
:101B000001A9002008700B49086801221202104345
:101B10000860032000F010F8002804D0FFE701A9B6
:101B20000120087002E000F047F8FFE701A8007804
:101B300002B080BD0020024080B584B0039002A9AD
:101B4000002008701A480078002829D0FFE757487D
:101B500000680190164801787D20C000FEF7D6FA93
:101B600001460198FEF7D2FA00F0ECFE002812D1EF
:101B7000FFE70398032809D8FFE703990022D04321
:101B800000F04DF803980B49086003E002A901201A
:101B90000870FFE703E002A901200870FFE703E0F7
:101BA00002A901200870FFE702A8007804B080BDF8
:101BB0000A0000200C00002080B584B0FFE7104828
:101BC000026801210A4302600068084003900398FC
:101BD000FFE7FFE7C5480268012109070A430260E1
:101BE0000068084002900298FFE70420019000225C
:101BF000114600F014F8019800F006F804B080BD1A
:101C0000401002403C10024080B582B0014601A85D
:101C100001700021405604F067F902B080BD80B524
:101C200084B0034603A8037002910192002140563C
:101C3000029904F06FF904B080BD000080B584B053
:101C40000290AB490868032252029043029A104363
:101C5000086002980121490288421ED1FFE713481B
:101C60000168062048431249FEF750FA401C0190D3
:101C7000FFE710480068400500280DD5FFE70198F0
:101C8000002804D0FFE70198401E019003E003A95B
:101C90000320087005E0ECE7FFE703A900200870C7
:101CA000FFE703A8007804B080BDC0460400002010
:101CB00040420F001470004080B588B0079004A91E
:101CC0000020087003A90870079880788007002812
:101CD00000D49DE002A90020087084480068C0007C
:101CE000002810D4FFE7FFE78048026801210907B8
:101CF0000A4302600068084001900198FFE702A9CA
:101D000001200870FFE77A49086801221202104397
:101D10000860FFF779FA0590FFE775480068C0058D
:101D200000280CD4FFE7FFF76FFA0599401A032843
:101D300004D3FFE704A90320087000E0EDE704A83E
:101D40000078002853D1FFE76A48006803210902A0
:101D5000084006900698002817D0FFE706980799D4
:101D60008969884211D0FFE7F54908680322120209
:101D70009043069008680122120410430860086826
:101D80009043086006980860FFE706A80078C0073F
:101D9000002818D0FFE7FFF737FA0590FFE7E8487B
:101DA0000068800700280DD4FFE7FFF72DFA05999A
:101DB000401AE749884204D3FFE704A903200870CA
:101DC00000E0ECE7FFE704A8007800280AD1FFE76D
:101DD000DB490868032212029043079A9269104374
:101DE000086003E0049803A90870FFE703E0049883
:101DF00003A90870FFE702A80078012807D1FFE7D0
:101E00003A4908680122120790430860FFE7FFE79C
:101E100007980078C007002809D0FFE7364908680E
:101E200003229043079A526810430860FFE707981F
:101E300000788007002809D5FFE72F4908680C22A1
:101E40009043079A926810430860FFE7079800786C
:101E5000800600280AD5FFE72749086803221203F5
:101E60009043079AD26810430860FFE707984078CC
:101E70004006002818D5FFE71F490868032292078B
:101E80009043079A526910430860079840690121FE
:101E90008907884207D1FFE7184908680122120420
:101EA00010430860FFE7FFE7079840780007002825
:101EB00018D5FFE710490868032292039043079A58
:101EC000126910430860079800690121890388425C
:101ED00007D1FFE7F04908680122120410430860A7
:101EE000FFE7FFE703A8007808B080BD3C10024080
:101EF000007000405C100240541002400C10024080
:101F000080B584B0029001910298002804D1FFE7C7
:101F100003A9012008700CE101988849096807228B
:101F20001140884221D9FFE784490868072290437D
:101F3000019A10430860FFF767F90090FFE77F48B8
:101F4000006807210840019988420DD0FFE7FFF79C
:101F50005BF90099401A7E49884204D3FFE703A940
:101F600003200870E5E0EAE7FFE7029800788007C1
:101F7000002817D5FFE7029800784007002807D50A
:101F8000FFE7C44908680722120310430860FFE70F
:101F9000C04908680F2212029043029A92681043C7
:101FA0000860FFE702980078C007002872D0FFE7BA
:101FB0000298406801280BD1FFE7BA480068800307
:101FC000002804D4FFE703A901200870B1E03DE038
:101FD0000298406802280BD1FFE7B24800688001F0
:101FE000002804D4FFE703A901200870A1E02CE039
:101FF0000298406800280BD1FFE7AA480068400516
:10200000002804D4FFE703A90120087091E01BE039
:102010000298406803280BD1FFE74A480068800710
:10202000002804D4FFE703A90120087081E00AE03A
:10203000434800688007002804D4FFE703A9012073
:10204000087076E0FFE7FFE7FFE7FFE791490868E0
:1020500007229043029A526810430860FFF7D4F8B1
:102060000090FFE78B4800683821084002994968D2
:10207000C90088420DD0FFE7FFF7C6F80099401A63
:102080003349884204D3FFE703A90320087050E0D6
:10209000E8E7FFE7019829490968072211408842CB
:1020A00021D2FFE72549086807229043019A10438F
:1020B0000860FFF7A9F80090FFE7204800680721B3
:1020C0000840019988420DD0FFE7FFF79DF800997D
:1020D000401A1F49884204D3FFE703A90320087070
:1020E00027E0EAE7FFE702980078400700280AD5D2
:1020F000FFE768490868072212039043029AD268F2
:1021000010430860FFE700F03FF8624909680F22BA
:10211000120211408A090C4989581F221140C840F7
:102120000E49086009480068FFF706FD03A908701A
:10213000FFE703A8007804B080BDC046002002403D
:102140005C10024060100240308600080C00002045
:1021500089130000014800687047C0460400002051
:1021600080B582B0FFF7F6FF019002F0D7FE01467E
:102170000198090B8A00034989581F221140C84061
:1021800002B080BD7086000880B588B04148006804
:102190008006400F00280FD1FFE742480068072162
:1021A000C9020840C10A01208840039003993C48B5
:1021B000FDF7ACFF029069E036480068382108401E
:1021C000082803D1FFE7354802905EE031480068F7
:1021D0003821084010283CD1FFE72F48016803222E
:1021E000114006910068702108400009401C0490CD
:1021F00006980190022812D0FFE7019803280FD11A
:10220000FFE704992548FDF781FF01462248006851
:102210007F2212021040000A484307900EE0FFE7B9
:1022200004991F48FDF772FF01461B4800687F2292
:1022300012021040000A48430790FFE71648006862
:10224000400F401C059007980599FDF75FFF02902D
:102250001AE01048006838210840202804D1FFE720
:102260000120C00302900EE00A48006838210840AF
:10227000182804D1FFE77D200002029002E0002030
:102280000290FFE7FFE7FFE7FFE7FFE7029808B0EC
:1022900080BDC046081002400C10024000127A00B7
:1022A0000024F4000010024010B588B00690069893
:1022B000002804D1FFE707A9012008702AE3069847
:1022C0000078C007002800D188E0FC480068382169
:1022D00008400490FA4800680321084003900498DD
:1022E000102804D1FFE70398032804D0FFE70498DF
:1022F000082810D1FFE7F84800688003002809D5B6
:10230000FFE706984068002804D1FFE707A90120ED
:102310000870FFE261E0FFE70698406801210904C8
:10232000884207D1FFE7EC490868012212041043F4
:1023300008601DE0069840680521090488420BD119
:10234000FFE7E5490868012293041843086008681C
:102350001204104308600AE0DF49086801221304F0
:10236000984308600868920490430860FFE7FFE71D
:10237000FFE706984068002817D0FFE7FEF744FF04
:102380000590FFE7D4480068800300280CD4FFE7DD
:10239000FEF73AFF0599401A652804D3FFE707A91D
:1023A00003200870B6E2EDE716E0FEF72DFF05907A
:1023B000FFE7C9480068800300280CD5FFE7FEF757
:1023C00023FF0599401A652804D3FFE707A90320D6
:1023D00008709FE2EDE7FFE7FFE7FFE70698007868
:1023E0008007002800D4A3E0B448006838210840E2
:1023F0000490B34800680321084003900498102813
:1024000004D1FFE70398022804D0FFE704980028CE
:102410003BD1FFE7B04800684005002809D5FFE739
:102420000698C068002804D1FFE707A901200870BA
:1024300070E2AA4908687F2212029043069A526904
:102440001202104308600498002811D1FFE7A24847
:1024500002680721C9028A43069B1B691A4302606E
:1024600000680840C10A9E48C8409E490860FFE7CE
:102470009D480068FFF760FB002804D0FFE707A92C
:102480000120087046E2FFE751E00698C068002886
:102490002FD0FFE7904908680722D2029043069A9E
:1024A0001269104308600868012212021043086094
:1024B000FEF7AAFE0590FFE7874800684005002860
:1024C0000CD4FFE7FEF7A0FE0599401A032804D3B9
:1024D000FFE707A9032008701CE2EDE77F490868C1
:1024E0007F2212029043069A52691202104308603A
:1024F0001CE0794908680122120290430860FEF747
:1025000083FE0590FFE774480068400500280CD55D
:10251000FFE7FEF779FE0599401A032804D3FFE789
:1025200007A903200870F5E1EDE7FFE7FFE7FFE704
:10253000069800780007002856D5FFE7F74800689E
:1025400038210840182810D1FFE7F74800688007B5
:10255000002809D5FFE706988069002804D1FFE725
:1025600007A901200870D5E13DE0069880690028A0
:102570001CD0FFE7EC490868012210430860FEF711
:1025800043FE0590FFE7E8480068800700280CD468
:10259000FFE7FEF739FE0599401A032804D3FFE749
:1025A00007A903200870B5E1EDE71BE0DE490868E4
:1025B000012290430860FEF727FE0590FFE7DA4806
:1025C0000068800700280CD5FFE7FEF71DFE05997F
:1025D000401A032804D3FFE707A90320087099E1F4
:1025E000EDE7FFE7FFE7FFE70698007840070028E0
:1025F00000D4CAE002A900200870C8480068382149
:102600000840202810D1FFE7CA480068800700284A
:1026100009D5FFE706988068002804D1FFE707A9DD
:102620000120087076E1AFE0C0480068C0000028D3
:1026300010D4FFE7FFE7BD480268012109070A43FC
:1026400002600068084001900198FFE702A901209C
:102650000870FFE7B6480068C00500281DD4FFE7F2
:10266000B34908680122120210430860FEF7CCFD4E
:102670000590FFE7AE480068C00500280CD4FFE7CE
:10268000FEF7C2FD0599401A032804D3FFE707A906
:10269000032008703EE1EDE7FFE7FFE7069880685A
:1026A000012806D1FFE7A34908680122104308600A
:1026B00027E006988068052818D103E0081002403A
:1026C0000C1002409B490868042210430860086807
:1026D00001221043086013E0001002400410024081
:1026E0000024F400040000200C0000209149086838
:1026F0000122904308600868042290430860FFE7C5
:10270000FFE7FFE706988068002818D0FFE7FEF78C
:102710007BFD0590FFE787480068800700280DD4FF
:10272000FFE7FEF771FD0599401A8349884204D3FB
:10273000FFE707A903200870ECE0ECE717E0FEF7DD
:1027400063FD0590FFE77B480068800700280DD5F2
:10275000FFE7FEF759FD0599401A7749884204D3EF
:10276000FFE707A903200870D4E0ECE7FFE702A821
:102770000078012807D1FFE76C4908680122120799
:1027800090430860FFE7FFE7FFE70698C06900286D
:1027900000D1BBE06148006838210840102876D09D
:1027A000FFE70698C06902284ED1FFE75D49086837
:1027B0000122120690430860FEF726FD0590FFE710
:1027C00058480068800100280CD5FFE7FEF71CFD83
:1027D0000599401A032804D3FFE707A903200870CE
:1027E00098E0EDE74E490868554A1040069B1A6A82
:1027F0005C6A22439C6A24022243DC6A22431B6BEC
:102800001A4310430860474B1868012214062043FE
:1028100018600868120710430860FEF7F5FC059081
:10282000FFE740480068800100280CD4FFE7FEF76E
:10283000EBFC0599401A032804D3FFE707A90320FE
:10284000087067E0EDE721E03649086801221206CA
:1028500090430860FEF7D8FC0590FFE73148006818
:10286000800100280CD5FFE7FEF7CEFC0599401A41
:10287000032804D3FFE707A9032008704AE0EDE727
:10288000274908682D4A10400860FFE73DE0069898
:10289000C069012804D1FFE707A90120087039E0C9
:1028A0001F48006803900398032108400699096AAD
:1028B000884224D1FFE70398702108400699496AAD
:1028C00088421CD1FFE703987F210902084006993E
:1028D000896A0902884212D1FFE703981F2149043F
:1028E00008400699C96A884209D1FFE70398072181
:1028F000490708400699096B884204D0FFE707A9F9
:102900000120087006E0FFE7FFE7FFE707A90020C6
:102910000870FFE707A8007808B010BD0810024053
:102920000C10024000100240601002403C100240B7
:10293000007000405C10024089130000FCFFFEEFB5
:102940008C80C11F80B582B00190019802F0CCFC50
:1029500002B080BD81B0009001B0704781B000909E
:1029600001B0704781B0009001B0704785B003900E
:102970000291FFE703983C21405C012804D1FFE766
:1029800004A9022008705DE003993C2201208854CC
:10299000FFE7FFE703993D2202208854039800686F
:1029A0004068019003980068806800900398006870
:1029B0008B4988420BD1FFE701980F210905884315
:1029C000019002984168019808430190FFE701983F
:1029D0007021884301900298016801980843019092
:1029E0000198039909684860039800687C49884207
:1029F0000CD0FFE7039800687A49884206D0FFE7C9
:102A000003980068784988420ED1FFE7009880213A
:102A100088430090029881680098084300900098CD
:102A2000039909688860FFE703993D2201208854D3
:102A3000FFE703993C2200208854FFE704A9002007
:102A40000870FFE704A8007805B0704780B582B031
:102A500000900098002804D1FFE701A90120087028
:102A600045E000983D21405C002808D1FFE700992F
:102A70003C2200208854009800F03EF8FFE70099BF
:102A80003D2202208854009901C902F09FFC009960
:102A9000482201208854FFE700993E2201208854F3
:102AA00000993F228854009940228854009941227D
:102AB0008854009942228854009943228854FFE7A1
:102AC000FFE7009944220120885400994522885448
:102AD000009946228854009947228854FFE70099BC
:102AE0003D220120885401A900200870FFE701A8B9
:102AF000007802B080BD000080B584B003900398D8
:102B000000683749884216D1FFE7FFE70B480268A3
:102B10000121C9020A43026000680840029002983D
:102B2000FFE70D20019000221146FFF778F8019889
:102B3000FFF76AF8FFE704B080BDC04640100240CE
:102B400083B0019001983D21405C012804D0FFE74B
:102B500002A9012008703EE001993D22022088541C
:102B600001980168C86801221043C8600198006894
:102B70001B4988420CD0FFE7019800681949884238
:102B800006D0FFE7019800681749884218D1FFE78F
:102B90000198006880681549084000900098062850
:102BA0000DD0FFE7009801210904884207D0FFE714
:102BB000019801680868012210430860FFE706E0F9
:102BC000019801680868012210430860FFE702A924
:102BD00000200870FFE702A8007803B07047C046E5
:102BE000002C0140000400400040014007000100AB
:102BF00080B586B00490039102A900200870FFE719
:102C000004983C21405C012804D1FFE705A902207B
:102C10000870AEE004993C2201208854FFE7FFE7EA
:102C200004993D220220885404980068806801902D
:102C300001985249084001900198FF2109028843F8
:102C400001900198049909688860039800680090D1
:102C5000002875D0FFE70098102871D0FFE7009892
:102C600020286DD0FFE70098302869D0FFE7009852
:102C7000402858D0FFE7009850283AD0FFE7009846
:102C8000602843D0FFE7009870280DD0FFE7009838
:102C900001210903884206D0FFE70098012149037A
:102CA000884216D053E056E004980068039B996868
:102CB0005A68DB6802F008FC04980068806801909C
:102CC0000198772108430190019804990968886068
:102CD00041E004980068039B99685A68DB6802F039
:102CE000F3FB04980168886801229203104388600E
:102CF00031E004980068039A5168D26802F018FC29
:102D000004980068502102F0FBFB24E0049800685E
:102D1000039A5168D26802F04FFC04980068602161
:102D200002F0EEFB17E004980068039A5168D2683D
:102D300002F0FEFB04980068402102F0E1FB0AE08B
:102D4000049800680399096802F0DAFB03E002A91D
:102D500001200870FFE704993D2201208854FFE715
:102D600004993C2200208854FFE7029805A90870C6
:102D7000FFE705A8007806B080BDC04688FFCEFFFB
:102D800081B0009001B0704780B584B00390039883
:102D90000068C0680290039800680069019001A86B
:102DA00000788007002825D5FFE702A80078800773
:102DB00000281ED5FFE7039801680220C043086180
:102DC000039901200877039800688069800700282C
:102DD00004D0FFE70398FFF7D3FF06E0039800F065
:102DE00005F9039800F006F9FFE70399002008773A
:102DF000FFE7FFE701A800784007002826D5FFE796
:102E000002A80078400700281FD5FFE70398016853
:102E10000420C043086103990220087703980068E2
:102E200080698005800F002804D0FFE70398FFF732
:102E3000A7FF06E0039800F0D9F8039800F0DAF84D
:102E4000FFE7039900200877FFE7FFE701A8007874
:102E50000007002825D5FFE702A800780007002812
:102E60001ED5FFE7039801680820C0430861039955
:102E70000420087703980068C0698007002804D000
:102E8000FFE70398FFF77CFF06E0039800F0AEF839
:102E9000039800F0AFF8FFE7039900200877FFE7F9
:102EA000FFE701A80078C006002826D5FFE702A8A2
:102EB0000078C00600281FD5FFE70398016810209E
:102EC000C043086103990820087703980068C06927
:102ED0008005800F002804D0FFE70398FFF750FF1C
:102EE00006E0039800F082F8039800F083F8FFE70B
:102EF000039900200877FFE7FFE701A80078C007E3
:102F0000002810D0FFE702A80078C007002809D0E9
:102F1000FFE7039801680120C0430861039800F0AF
:102F20006DF8FFE7FFE7019880210840802806D070
:102F3000FFE701A84078800600280FD5FFE702A828
:102F400000780006002808D5FFE7039801682548A7
:102F500008610398FFF702FDFFE7FFE701A840784B
:102F6000C00700280FD0FFE702A80078000600285D
:102F700008D5FFE7039801681B4808610398FFF72D
:102F8000E9FCFFE7FFE701A800784006002810D51C
:102F9000FFE702A800784006002809D5FFE703985C
:102FA00001684020C0430861039800F03BF8FFE748
:102FB000FFE701A800788006002810D5FFE702A8E7
:102FC00000788006002809D5FFE7039801682020D3
:102FD000C04308610398FFF7C5FCFFE7FFE704B0B3
:102FE00080BDC0467FDFFFFFFFFEFFFF81B0009086
:102FF00001B0704781B0009001B0704781B000907F
:10300000009800680549884205D1FFE7044908682F
:10301000401C0860FFE701B07047C046002C01402B
:10302000DC01002081B0009001B0704783B00190B6
:10303000FFE701988421405C012804D1FFE702A941
:10304000022008702BE00199842201208854FFE7B8
:10305000FFE70199882224208850019800680068C1
:10306000009001980368186801218843186000984F
:10307000490788430090019900204866009801990B
:1030800009680860019920208850FFE7019984228F
:1030900000208854FFE702A900200870FFE702A87B
:1030A000007803B0704780B586B004900391FFE7C5
:1030B00004988421405C012804D1FFE705A902207F
:1030C000087034E00499842201208854FFE7FFE768
:1030D000049988220192242088500498006800688E
:1030E00002900498016808680122904308600498DF
:1030F00000688068072149068843039908430499BA
:1031000009688860049802F0AFFA019A029804995D
:1031100009680860049920208850FFE704998422F8
:1031200000208854FFE705A900200870FFE705A8E4
:10313000007806B080BD80B586B004900391FFE7AB
:1031400004988421405C012804D1FFE705A90220EE
:10315000087034E00499842201208854FFE7FFE7D7
:1031600004998822019224208850049800680068FD
:10317000029004980168086801229043086004984E
:103180000068806807214907884303990843049928
:1031900009688860049802F067FA019A0298049915
:1031A00009680860049920208850FFE70499842268
:1031B00000208854FFE705A900200870FFE705A854
:1031C000007806B080BD80B582B0009000980028DD
:1031D00004D1FFE701A9012008704AE00098806946
:1031E000002801D0FFE700E0FFE700988821405861
:1031F000002808D1FFE70099842200208854009815
:1032000000F03CF8FFE700998822242088500098BD
:10321000016808680122904308600098806A0028CD
:1032200004D0FFE7009802F069FAFFE7009802F087
:103230001FFC012804D1FFE701A90120087018E054
:103240000098016848680922D202904348600098BB
:10325000016888682A22904388600098016808689D
:10326000012210430860009802F0F6FA01A90870E4
:10327000FFE701A8007802B080BD000080B594B0DF
:103280001390002004901290119010900F900E90C7
:103290000D900C900B900A9009900890079013984D
:1032A00000682D49884255D1FFE701200790002092
:1032B000089007A8FEF700FD002803D0FFE7FDF700
:1032C0000BFCFFE7FFE725480268012189030A4359
:1032D00002600068084006900698FFE7FFE7204874
:1032E000026804210A4302600068084005900598BE
:1032F000FFE730200E9002200F90002001901090E8
:10330000119001200290129016480EA9FDF7E4FDDD
:10331000019A029914480390144B036033234360CD
:1033200010238360C2608023036142618261C261B5
:1033300049030162FDF7F4FC002803D0FFE7FDF725
:10334000CBFBFFE7FFE713980749C1671398886233
:10335000FFE7FFE714B080BD003801404010024095
:1033600034100240000800504C00002008000240C9
:10337000FFE7FEE780B50848006880694005400F18
:10338000002804D0FFE70448FDF7EBFF03E0024804
:10339000FEF74AF8FFE780BDA800002080B582B0A4
:1033A00001900198806A00900098806B002805D0F9
:1033B000FFE70098816B00208863FFE70098C06BEF
:1033C000002805D0FFE70098C16B00208863FFE765
:1033D000009801F019FD02B080BD83B0029001A8F1
:1033E0000180002100910088C007002812D0FFE76B
:1033F000009842210843009002984121405C282116
:103400000840282805D0FFE70098B0210843009025
:10341000FFE7FFE701A800888007002812D5FFE733
:10342000009844210843009002984121405C2821E3
:103430000840282805D0FFE70098B02108430090F5
:10344000FFE7FFE701A800880004002805D5FFE793
:103450000098B82108430090FFE701A800881028D1
:1034600005D1FFE70098902108430090FFE701A8ED
:103470000088202805D1FFE700982021084300900C
:10348000FFE701A80088402805D1FFE70098402108
:1034900008430090FFE7009A02980168086890438B
:1034A000086003B07047000083B0029001A801805B
:1034B000002000900298406B4649884242D0FFE7C6
:1034C0000298406B444988423CD0FFE70298406B29
:1034D0004249884236D0FFE701A80088000400284E
:1034E00005D5FFE70098B82108430090FFE701A841
:1034F0000088C007002805D0FFE70098F2210843A4
:103500000090FFE701A800888007002805D5FFE7A5
:103510000098F42108430090FFE701A800881028D4
:1035200005D1FFE70098902108430090FFE701A82C
:103530000088202805D1FFE700982021084300904B
:10354000FFE73FE001A800880004002805D5FFE759
:103550000098B82108430090FFE701A80088C00741
:10356000002805D0FFE70098F22108430090FFE70C
:1035700001A800888007002805D5FFE70098F421FE
:1035800008430090FFE701A80088102805D1FFE755
:103590000098902108430090FFE701A800882028A8
:1035A00005D1FFE70098602108430090FFE701A8DC
:1035B0000088402805D1FFE700984021084300908B
:1035C000FFE7FFE7009A0298016808681043086067
:1035D00003B07047E941000835490008114400086C
:1035E00081B000900098006880690221084040087E
:1035F000002805D0FFE70098016800208862FFE7F7
:10360000009800688069C007002807D1FFE700988C
:1036100001688869012210438861FFE701B07047A3
:1036200080B586B00590049105984121405C282121
:10363000084028287CD1FFE70598006880690121AF
:1036400009040840000C03A9087005980068806907
:103650007F2149040840000C02A9088005980068F1
:1036600080683A49084001A9088005980068C06848
:10367000FE210840694608800598C068022843D1A9
:10368000FFE702A80088062210400199C9091140ED
:10369000884222D1FFE7019802A908800599886C29
:1036A000401C88640598806C022815D1FFE70599B5
:1036B00000208864059801680820C861FFE7059923
:1036C000402200208854FFE7059803A9097802AA40
:1036D0001288FDF73EFEFFE715E0009802A908807A
:1036E00005980121C903FFF778FEFFE705994022FD
:1036F00000208854FFE7059803A9097802AA1288D8
:10370000FDF727FEFFE712E005980121C903FFF747
:1037100064FEFFE70599402200208854FFE70598E2
:1037200003A9097802AA1288FDF713FEFFE70AE051
:10373000059801680820C861FFE70599402200202C
:103740008854FFE7FFE706B080BDC046FF030000D6
:1037500080B584B00390029103984121415C01A897
:103760000170039A42230021D154039B984ADA62E4
:10377000039A5185029B039A516C19435164007856
:1037800028280AD0FFE701A80078292805D0FFE7FC
:1037900001A800782A280CD1FFE703980321FFF73E
:1037A0001CFE0399412228208854039960484863ED
:1037B00035E003988749FFF710FE0398FFF710FFE5
:1037C00003984121405C602825D0FFE703984122FF
:1037D000202181540398006880690840400901282D
:1037E00018D1FFE70398006880691021084000099C
:1037F00001280AD1FFE7039801681020C8610399E6
:10380000486C042210434864FFE7039801682020B5
:10381000C861FFE7FFE7039900204863FFE70398CB
:10382000006B00900398806B00283AD0FFE7009867
:10383000112804D0FFE70098212832D1FFE7039830
:10384000006800684004002808D5FFE70398016875
:1038500008680122920390430860FFE70398806B99
:10386000FDF79EF9012817D0FFE70398816B3148D7
:103870008863FFE70399402200208854FFE70398FC
:10388000806BFDF731F9002805D0FFE70398806BC6
:10389000816B8847FFE703E0039801F0B5FAFFE783
:1038A00043E00398C06B00283AD0FFE70098122845
:1038B00004D0FFE70098222832D1FFE70398006880
:1038C00000680004002808D5FFE70398016808682D
:1038D0000122D20390430860FFE70398C06BFDF715
:1038E0005FF9012817D0FFE70398C16B114888637F
:1038F000FFE70399402200208854FFE70398C06B3C
:10390000FDF7F2F8002805D0FFE70398C06B816B44
:103910008847FFE703E0039801F076FAFFE703E04A
:10392000039801F071FAFFE7FFE704B080BDC046DD
:10393000694B00089D33000880B582B0019000916A
:1039400001999148C862019900200863019A4123B6
:103950002021D15401994222885401994863684634
:10396000007804210840800800281ED0FFE7019855
:103970000068406A0199496A08700199486A401CC8
:1039800048620198008D00280ED0FFE70199088D4C
:10399000401E08850199488D401E48850199486C54
:1039A000042210434864FFE7FFE701980949FFF745
:1039B00014FD019801681020C861FFE701994022B9
:1039C00000208854FFE70198FDF7F4FE02B080BDA7
:1039D0000000FFFF0380000080B586B005900491D1
:1039E00004980290059801682020C861059841213B
:1039F000405C212808D1FFE705980121FFF7EDFC85
:103A00000599112008630FE005984121405C2228A8
:103A100008D1FFE705980221FFF7DFFC0599122086
:103A2000086300E0FFE7FFE7059801684868554A2A
:103A30001040486005990020486305995248C862C3
:103A400002A8007810210840000900280AD0FFE7EA
:103A5000059801681020C8610599486C042210433C
:103A60004864FFE705984121405C60280FD1FFE7DB
:103A700002A80078042108408008002807D0FFE74A
:103A800005980068406AC0B201900198FFE7059868
:103A9000FFF7A6FD0598406C039005984121405C16
:103AA000602804D0FFE70398002805D0FFE70598B9
:103AB000416CFFF74DFE62E005984121405C2128F2
:103AC0002AD1FFE70599412220208854059900203A
:103AD000086305984221405C40280ED1FFE7059914
:103AE000422200208854FFE7059940220020885494
:103AF000FFE70598FDF771FE0DE0059942220020D1
:103B00008854FFE70599402200208854FFE7059874
:103B1000FDF758FEFFE731E005984121405C22287F
:103B20002AD1FFE7059941222020885405990020D9
:103B3000086305984221405C40280ED1FFE70599B3
:103B4000422200208854FFE7059940220020885433
:103B5000FFE70598FDF73AFE0DE0059942220020A7
:103B60008854FFE70599402200208854FFE7059814
:103B7000FDF724FEFFE700E0FFE7FFE7FFE706B001
:103B800080BDC04600E800FE0000FFFF80B582B0A7
:103B90000190019942220020885401984121405C03
:103BA000212818D1FFE7019941222020885401994A
:103BB0001120086301990020486301980121FFF753
:103BC0000CFCFFE70199402200208854FFE7019890
:103BD000FDF7F8FD17E00199412220208854019952
:103BE0001220086301990020486301980221FFF721
:103BF000F4FBFFE70199402200208854FFE7019879
:103C0000FDF7DCFDFFE702B080BD000080B586B0A7
:103C1000059004910598006800680390049802904C
:103C20000598C06A019005984121415C6846017081
:103C300005990A682021D1610078212805D0FFE785
:103C400068460078292808D1FFE70598B249FFF7B0
:103C5000C4FB05992120086321E0684600782228EA
:103C600005D0FFE7684600782A2808D1FFE70598C5
:103C7000A849FFF7B2FB0599222008630EE06846C9
:103C80000078282808D1FFE70598A149FFF7A5FB90
:103C900005990020086300E0FFE7FFE7FFE70598CC
:103CA000016848680122D203104348600598016802
:103CB00048689A4A104048600598FFF791FC03A8AD
:103CC0004078402108408009002814D0FFE705987B
:103CD0000168086801229203904308600598806B90
:103CE000002807D0FFE70598806B006840680599B9
:103CF0004885FFE71BE003A84078C009002814D0DE
:103D0000FFE70598016808680122D2039043086024
:103D10000598C06B002807D0FFE70598C06B0068C6
:103D2000406805994885FFE700E0FFE7FFE702A844
:103D3000007804210840800800281DD0FFE7029881
:103D400004218843029005980068406A0599496AF1
:103D500008700599486A401C48620598008D002843
:103D600009D0FFE70599088D401E08850599488D03
:103D7000401E4885FFE7FFE70598408D002806D0E4
:103D8000FFE70599486C042210434864FFE702A846
:103D90000078102108400009002855D0FFE703A84B
:103DA000007810210840000900284DD0FFE7059851
:103DB000408D00282ED1FFE705984121405C28283E
:103DC0000BD1FFE7019801214906884205D1FFE7A1
:103DD00005980299FFF7B0FD1BE005984121405C72
:103DE000292810D1FFE701984D4988420BD0FFE701
:103DF000059801681020C8610598FFF7F1FB059848
:103E000000F090F804E0059801681020C861FFE711
:103E1000FFE718E0059801681020C8610599486C13
:103E20000422104348640198002806D0FFE7019857
:103E300001210906884205D1FFE70598416CFFF78B
:103E400087FCFFE7FFE7FFE705994222002088543F
:103E5000059948630598406C002810D0FFE7059845
:103E6000416CFFF775FC05984121405C282805D17D
:103E7000FFE705980299FFF75FFDFFE746E0059829
:103E8000C06A2749884217D0FFE7059800F04AF832
:103E900005992348C8620599412220208854059934
:103EA00000200863FFE70599402200208854FFE7BF
:103EB0000598FDF77FFC28E005984121405C222809
:103EC00011D1FFE70599412220208854059900204F
:103ED0000863FFE70599402200208854FFE7059812
:103EE000FDF7FAFD10E0059941222020885405993C
:103EF00000200863FFE70599402200208854FFE76F
:103F00000598FDF7EDFDFFE7FFE7FFE706B080BD91
:103F100003800000028000000180000000E800FE35
:103F20000000FFFF80B582B0019001980068006832
:103F30000090019942220020885468464078402130
:103F400008408009002808D0FFE701980168086848
:103F500001229203904308600FE068464078C00950
:103F6000002808D0FFE70198016808680122D20301
:103F70009043086000E0FFE7FFE701984121405CC3
:103F8000292815D1FFE70199412228208854019959
:103F90002120086301980121FFF71FFAFFE701992B
:103FA000402200208854FFE70198FDF799FD1CE0AE
:103FB00001984121405C2A2815D1FFE7019941224F
:103FC0002820885401992220086301980221FFF7D4
:103FD00004FAFFE70199402200208854FFE7019886
:103FE000FDF77AFD00E0FFE7FFE702B080BD0000CB
:103FF00080B58AB009900891079206A90020087040
:10400000099909688969059104900798039005A8A2
:104010000078C006002800D484E0099801681020C8
:10402000C861FFE7099800688069202108404109BC
:1040300000200029009006D1FFE706A80078414241
:1040400048410090FFE70098C007002858D0FFE7DC
:104050000898401C002852D0FFE7FDF7D5F80399D7
:10406000401A0899884204D8FFE70898002845D1EB
:10407000FFE7099800684068012189030840029021
:1040800009984221405C01A908700998006880697C
:1040900080B2C00B002816D0FFE7029801218903E7
:1040A000884210D0FFE701A8007820280BD0FFE756
:1040B0000998016848680122920310434860FDF79F
:1040C000A3F80390FFE7FFE70998006880692021C3
:1040D00008404009002810D1FFE7FDF795F8039943
:1040E000401A1A2808D3FFE70498202108430490B7
:1040F00006A90120087000E0E6E7FFE7FFE791E787
:1041000006A80078002805D1FFE70998016820205B
:10411000C861FFE7049804210843049006A9012020
:104120000870FFE7099800688069059005A8407845
:10413000C00700280BD0FFE7049901200143049138
:1041400009990A680102D16106A90870FFE705A86C
:104150004078400700280CD5FFE704980821084361
:1041600004900998026801208102D16106A90870B3
:10417000FFE705A84078800700280CD5FFE70498E2
:104180000221084304900998026801204102D1618C
:1041900006A90870FFE706A8007800281DD0FFE7F1
:1041A0000998FFF71DFA0998016848680D4A104000
:1041B0004860049A0999486C10434864099941225F
:1041C000202088540999422200208854FFE7099949
:1041D000402200208854FFE7FFE706A800780AB0D5
:1041E00080BDC04600E800FE10B588B0069005917D
:1041F0000492FFE706984021405C012804D1FFE7C4
:1042000007A902200870FBE006994022012088548B
:10421000FFE7FFE705A80078102108400009002803
:1042200019D0FFE704A800781021084000090028F1
:1042300011D0FFE7069801681020C8610699486C04
:1042400004221043486406982021FFF72DF90698B0
:10425000FFF7C6F9CAE005A80078C009002874D0A5
:10426000FFE704A8007840210840800900286CD0AE
:10427000FFE70698016808684022904308600698A6
:10428000408D00284DD0FFE70698006840685F49E0
:10429000084003A908800698408D000A002807D02E
:1042A000FFE70699FF20088501200006029012E032
:1042B0000698408D069908850698C06A524988423A
:1042C00004D0FFE70698C06A029003E00120400690
:1042D0000290FFE7FFE7069803A909882822825C7D
:1042E000029B0024009400F065FD06990A8D488D1C
:1042F000801A488506984121405C222808D1FFE7B2
:104300000698016808680122D2031043086007E09C
:104310000698016808680122920310430860FFE7CD
:1043200012E006980068406801214906084088426A
:1043300004D0FFE70698FFF729FC04E00698402127
:10434000FFF706FAFFE7FFE74FE005A800784021F6
:1043500008408009002830D0FFE704A800784021F9
:1043600008408009002828D0FFE70698408D0028E3
:104370001DD1FFE706980068406801214906084002
:10438000884213D0FFE70698C06A1F49884208D1C7
:10439000FFE70698016848680122920310434860CD
:1043A00003E00698FFF7F2FBFFE7FFE704E006985B
:1043B0004021FFF7CDF9FFE716E005A8007820219E
:1043C0000840400900280DD0FFE704A8007820210C
:1043D00008404009002805D0FFE706980599FFF737
:1043E000FBFA00E0FFE7FFE7FFE7FFE7FFE70699DB
:1043F000402200208854FFE707A900200870FFE74B
:1044000007A8007808B010BD0000FFFFFF03000000
:1044100080B586B00490039102929F480190FFE717
:1044200004984021405C012804D1FFE705A902203F
:1044300008702CE10499402201208854FFE7FFE72F
:1044400003A80078102108400009002819D0FFE7D0
:1044500002A80078102108400009002811D0FFE7C9
:10446000049801681020C8610499486C0422104324
:10447000486404982021FFF717F80498FFF7B0F874
:10448000FBE003A80078022108404008002812D071
:10449000FFE702A8007802210840400800280AD05F
:1044A000FFE70498006D0499096888620499002068
:1044B000C0430865E0E003A80078C00900285ED08A
:1044C000FFE702A80078402108408009002856D064
:1044D000FFE704980121FEF780FF04981021FEF702
:1044E000E3FF0498408D002843D0FFE70498408DF7
:1044F000000A002810D0FFE70499FF2008850498DF
:10450000C16C049A2823D25C0023009389B2012352
:104510001B0600F04FFC10E00498408D04990885BC
:104520000498C16C049A2823D25C0023009389B2BA
:1045300001235B0600F03EFCFFE704990A8D488DDD
:10454000801A488504984121405C222808D1FFE761
:104550000498016808680122D2031043086007E04C
:104560000498016808680122920310430860FFE77D
:1045700004E004984021FFF7EBF8FFE77BE003A895
:10458000007840210840800900285CD0FFE702A89D
:104590000078402108408009002854D0FFE70498A3
:1045A0000121FEF71AFF04981021FEF77DFF049801
:1045B0004121405C222803D1FFE7DD480190FFE75D
:1045C0000498408D000A002810D0FFE70499FF20CE
:1045D00008850498C16C049A2823D25C019B00933F
:1045E00089B201231B0600F0E5FB10E00498408D22
:1045F000049908850498C16C049A2823D25C019B15
:10460000009389B201235B0600F0D4FBFFE7049915
:104610000A8D488D801A488504984121405C2228E3
:1046200008D1FFE70498016808680122D20310430B
:10463000086007E0049801680868012292031043AB
:104640000860FFE716E003A8007820210840400931
:1046500000280DD0FFE702A800782021084040097B
:10466000002805D0FFE704980399FFF7B5F900E0AB
:10467000FFE7FFE7FFE7FFE7FFE7FFE704994022D7
:1046800000208854FFE705A900200870FFE705A86F
:10469000007806B080BDC0460020008080B588B09C
:1046A000069005910492A148039005980290FFE7B7
:1046B00006984021405C012804D1FFE707A90220A9
:1046C00008702FE10699402201208854FFE7FFE798
:1046D00002A80078102108400009002815D0FFE743
:1046E00004A8007810210840000900280DD0FFE739
:1046F000069801681020C8610699486C042210438E
:1047000048640698FEF76CFFEDE002A800780421EB
:104710000840800800281FD0FFE704A80078042183
:1047200008408008002817D0FFE70298042188433A
:10473000029006980068406A0699496A08700699CE
:10474000486A401C48620699088D401E08850699F3
:10475000488D401E4885C5E002A800780221084027
:10476000400800282BD0FFE704A800780221084069
:104770004008002823D0FFE70698006D401C002861
:1047800012D1FFE70699486A00780968886206999D
:10479000486A401C48620699088D401E08850699A3
:1047A000488D401E488509E00698006D0699096805
:1047B000886206990020C0430865FFE791E002A8DF
:1047C0000078C009002840D0FFE704A80078402105
:1047D00008408009002838D0FFE70698408D00285F
:1047E0002DD0FFE70698008D002828D1FFE7069816
:1047F000408D000A002810D0FFE70699FF200885A9
:104800000698C16C069A2823D25C0023009389B2D3
:1048100001231B0600F0CEFA10E00698408D0699A1
:1048200008850698C16C069A2823D25C0023009361
:1048300089B201235B0600F0BDFAFFE704E00698A9
:104840004021FEF785FFFFE74AE002A800784021FB
:1048500008408009002841D0FFE704A800784021E3
:1048600008408009002839D0FFE706980121FEF7AB
:10487000B4FD06980221FEF717FE06984121405C20
:10488000222803D1FFE72A480390FFE70698408DCE
:10489000000A002810D0FFE70699FF200885069837
:1048A000C16C069A2823D25C039B009389B2012332
:1048B0001B0600F07FFA10E00698408D06990885E7
:1048C0000698C16C069A2823D25C039B009389B298
:1048D00001235B0600F06EFAFFE700E0FFE7FFE769
:1048E000FFE7FFE7FFE702A8007820210840400922
:1048F00000280DD0FFE704A80078202108404009D7
:10490000002805D0FFE706980299FFF765F8FFE752
:10491000FFE70699402200208854FFE707A90020FE
:104920000870FFE707A8007808B080BD002000806D
:104930000024008080B588B0069005910492069806
:10494000C06A039000200290FFE706984021405C77
:10495000012804D1FFE707A902200870FFE00699AB
:10496000402201208854FFE7FFE705A800782021B6
:104970000840400900280DD0FFE704A80078202156
:1049800008404009002805D0FFE706980599FFF781
:104990003DF9DAE005A80078102108400009002858
:1049A00000D1BAE004A800781021084000090028CE
:1049B00000D1B2E004A840784021084080090028D6
:1049C00006D1FFE704A84078C009002800D19EE086
:1049D0000698C06B002812D0FFE704A84078C009F1
:1049E00000280BD0FFE70698C06B006840680028DD
:1049F00003D1FFE701200290FFE7FFE7FFE70698FA
:104A0000806B002814D0FFE704A8407840210840BC
:104A1000800900280BD0FFE70698806B006840688B
:104A2000002803D1FFE701200290FFE7FFE7FFE73F
:104A3000029801282ED1FFE706984121405C2828E2
:104A40000BD1FFE7039801214906884205D1FFE712
:104A500006980599FEF770FF1BE006984121405C1F
:104A6000292810D1FFE70398D14988420BD0FFE7EE
:104A7000069801681020C8610698FEF7B1FD0698F7
:104A8000FFF750FA04E0069801681020C861FFE7BC
:104A9000FFE73BE0069801681020C8610699486C62
:104AA00004221043486406984121405C01A9087023
:104AB0000398002806D0FFE70398012109068842E1
:104AC00023D1FFE701A80078212805D0FFE701A83E
:104AD0000078292804D1FFE70699212008630FE018
:104AE00001A80078222805D0FFE701A800782A282D
:104AF00004D1FFE706992220086300E0FFE7FFE703
:104B00000698416CFEF724FEFFE7FFE704E00698F5
:104B100001681020C861FFE716E005A800780821A9
:104B20000840C00800280DD0FFE704A8007808213D
:104B30000840C008002805D0FFE706980599FEF751
:104B40006FFD00E0FFE7FFE7FFE7FFE70699402280
:104B500000208854FFE707A900200870FFE707A896
:104B6000007808B080BDC04680B586B0049003913F
:104B700002920498C06A019003980090FFE704989D
:104B80004021405C012804D1FFE705A902200870FC
:104B900009E10499402201208854FFE7FFE76846B5
:104BA000007820210840400900280DD0FFE702A826
:104BB0000078202108404009002805D0FFE704982C
:104BC0000099FFF723F8E4E06846007810210840D8
:104BD0000009002855D0FFE702A8007810210840FE
:104BE000000900284DD0FFE70498408D00282ED101
:104BF000FFE704984121405C28280BD1FFE701988A
:104C000001214906884205D1FFE704980099FEF783
:104C100093FE1BE004984121405C292810D1FFE756
:104C20000198634988420BD0FFE70498016810207F
:104C3000C8610498FEF7D4FC0498FFF773F904E008
:104C4000049801681020C861FFE7FFE718E00498A6
:104C500001681020C8610499486C0422104348641C
:104C60000198002806D0FFE7019801210906884233
:104C700005D1FFE70498416CFEF76AFDFFE7FFE707
:104C800086E06846007804210840800800282FD07C
:104C9000FFE702A80078042108408008002827D0F8
:104CA000FFE70498408D002813D0FFE704980068C0
:104CB000406A0499496A08700499486A401C48622D
:104CC0000499088D401E08850499488D401E48852A
:104CD000FFE70498408D002809D1FFE70198344987
:104CE000884204D0FFE70498FFF71CF9FFE74EE085
:104CF0006846007808210840C00800280DD0FFE76A
:104D000002A8007808210840C008002805D0FFE765
:104D100004980099FEF784FC38E068460078022188
:104D20000840400800282FD0FFE702A800780221A1
:104D300008404008002827D0FFE70498408D00284D
:104D400012D0FFE70499486A0078096888620499DC
:104D5000486A401C48620499488D401E4885049961
:104D6000088D401E08850EE0019801210906884241
:104D700004D0FFE70198002804D1FFE70498FFF76B
:104D8000D1F8FFE7FFE700E0FFE7FFE7FFE7FFE716
:104D9000FFE7FFE70499402200208854FFE705A9B8
:104DA00000200870FFE705A8007806B080BDC04667
:104DB0000000FFFF10B585B0079C049003A8018098
:104DC00002A90A70019300880D4A1040097809046D
:104DD000401801990843079908430121C9078843EE
:104DE00000900498006840680799490D8843054978
:104DF00008400099084304990968486005B010BD4F
:104E0000FF030000009C00FC80B582B00190019877
:104E10004121405C602811D1FFE701994122202007
:104E20008854019900200863FFE70199402200207F
:104E30008854FFE70198FCF788FA0CE001990020FC
:104E40000863FFE70199402200208854FFE701989A
:104E5000FCF702FBFFE702B080BD10B586B0089CEE
:104E60000490039102A802700193FFE70498006880
:104E7000806903990840401A4142484102A90978D3
:104E8000884243D1FFE704980199089AFFF7B0F8E8
:104E9000002804D0FFE705A9012008703AE0019836
:104EA000401C002831D0FFE7FCF7AEF90899401A02
:104EB0000199884204D8FFE70198002824D1FFE730
:104EC00004980068806903990840401A41424841AB
:104ED00002A90978884216D1FFE7049A516C202074
:104EE00001435164049941228854049942220020CC
:104EF0008854FFE70499402200208854FFE705A961
:104F00000120087006E0FFE7FFE7AFE705A90020F2
:104F10000870FFE705A8007806B010BD02480068D9
:104F200007210903084070470810024080B582B08D
:104F3000FFE70A48026801210A430260006808404E
:104F400001900198FFE70920009000221146FCF72C
:104F500066FE0098FCF758FE02B080BD3810024093
:104F6000B0B598B00020179016901590149013903B
:104F7000FFE77648026804210A430260006808409F
:104F800012901298FFE7FFE77048026820210A4359
:104F900002600068084011901198FFE7FFE76B4836
:104FA000026801210A4302600068084010901098CE
:104FB000FFE7FFE76548026802210A4302600068D4
:104FC00008400F900F98FFE7FFE76048026808214C
:104FD0000A430260006808400E900E98FFE75C48A4
:104FE00002905C49019100220C92FCF7F6F80C9AB1
:104FF00005200007079058490391FCF7EEF80C9A3A
:1050000056480490012506952946FCF7E6F80C9AC7
:1050100053480990534C2146FCF7DFF802980C994D
:1050200007220D92920213921491159113A90A91DD
:10503000FBF752FF019B02980A990C9A139314955F
:1050400015921692FBF748FF02980A990C9A612371
:105050005B0213930323089314931592FBF73CFF11
:10506000039B07980A990C9A13931495159216921C
:10507000FBF732FF04980A990C9A13951495159230
:105080001692FBF729FF04980A990C9A364B139352
:1050900014921592FBF720FF04980A990C9A334B4F
:1050A000139311231B04059314931592FBF714FF1C
:1050B00007980A990C9A81231B0213931492159254
:1050C000FBF70AFF059B07980A990C9A6D02139546
:1050D00014931592FBF700FF069B09980A990C9A06
:1050E0001394149315921692FBF7F6FE0798089BFB
:1050F0000A990C9ADC02139414931592FBF7ECFEB8
:10510000089B09980A990C9A0C24139414931592ED
:10511000FBF7E2FE09980A990C9A40231393149224
:105120001592FBF7D9FE0C9A06200B901146FCF75E
:1051300076FD0B98FCF768FD0C9A0D981146FCF76C
:105140006EFD0D98FCF760FD18B0B0BD3410024044
:1051500000080050CF210000FF04000000040050B0
:10516000000C005033030000FA53000004A00000BC
:1051700080B582B016480190164901601649416019
:10518000002181600122C260016141618161C161D0
:105190000162FCF765F9002803D0FFE7FBF79CFCF0
:1051A000FFE70B480021FCF735F8002803D0FFE7A4
:1051B000FBF792FCFFE706480021FCF776F8002891
:1051C00003D0FFE7FBF788FCFFE702B080BDC046D5
:1051D000A800002000580040201B828080B58AB0C3
:1051E000002101910991089107910691059104917F
:1051F000039175480290EF4A0260174A426081604D
:105200006322C2600161416180218161FDF71EFC62
:10521000002803D0FFE7FBF75FFCFFE70120000356
:105220000690694806A9FDF7E3FC002803D0FFE7D4
:10523000FBF752FCFFE700200390049005906248C2
:1052400003A9FDF793FB002803D0FFE7FBF744FC1D
:10525000FFE70AB080BDC046FFF9000080B582B00C
:105260001C4800901C490160E12149024160002175
:1052700001918160C16001610C2242618161C16163
:10528000016241628162FDF79EFF002803D0FFE7C3
:10529000FBF722FCFFE70F480021FDF74CFF002839
:1052A00003D0FFE7FBF718FCFFE70A480021FDF7F2
:1052B000FAFE002803D0FFE7FBF70EFCFFE70548E6
:1052C000FDF7B4FE002803D0FFE7FBF705FCFFE77E
:1052D00002B080BD4801002000380140FFE7FEE732
:1052E000704770477047000080B584B00290029804
:1052F000401E000E002803D0FFE70120039011E0BC
:105300000298401E0949086000200190C043032113
:1053100000F000FE019806490860064A0721116066
:105320000390FFE7039804B080BDC04614E000E09E
:1053300018E000E010E000E080B5FCF7D5FB80BD90
:1053400080B594B007A802903421FAF7D4FE00206B
:105350000090069005900490039001200190400277
:10536000FCF76CFC009B0199029807910A040892D3
:1053700002220E9203220F921093102311935204D3
:10538000129249071391FCF78FFF002803D0FFE723
:10539000FBF7A2FBFFE70720039002210491002006
:1053A0000590069003A8FCF7ABFD002803D0FFE7AB
:1053B000FBF792FBFFE714B080BD704780B5024851
:1053C000FDF7E2FC80BDC046FC00002083B00290E7
:1053D000019102980068009002989F49884205D088
:1053E000FFE70298364988420AD1FFE7009870210A
:1053F0008843009001984168009808430090FFE7B7
:1054000002989549884219D0FFE702982C498842B2
:1054100014D0FFE702982B4988420FD0FFE702988B
:105420008E4988420AD0FFE702988D49884205D00C
:10543000FFE702988B4988420BD1FFE700980321D0
:105440000902884300900198C168009808430090C1
:10545000FFE700988021884301994969084300903B
:10546000019880680299C862019800680299886270
:105470000298794988420FD0FFE70298774988421D
:105480000AD0FFE702987649884205D0FFE70298E4
:105490007449884205D1FFE70198006902990863C1
:1054A000FFE702990868042210430860029901206E
:1054B0004861BFF34F8F00980299086003B07047AE
:1054C000000400400020004085B004900391029247
:1054D00001930498806800900098FF210902884396
:1054E000009003990298019A120210430143009818
:1054F0000843009000980499886005B07047000048
:1055000083B002900191029880680090009807494A
:105510000840009001980099084307210843009033
:1055200000980299886003B07047C0468FFFCFFF94
:1055300085B00490039102920498006A0090049947
:10554000086A0122904308620498434988420FD0B8
:10555000FFE70498414988420AD0FFE70498404990
:10556000884205D0FFE704983E49884206D1FFE70C
:105570000499086A042290430862FFE7049880694E
:1055800001900198F021884301900298010101984F
:105590000843019000980A218843009003990098DD
:1055A0000843009001980499886100980499086262
:1055B00005B07047002C014085B004900391029221
:1055C0000498006A00900499086A102290430862C7
:1055D0000498214988421BD0FFE704981F4988425C
:1055E00004D1FFE70020002812D1FFE704981C49EE
:1055F000884204D1FFE70020002809D1FFE7049882
:10560000184988420AD1FFE70120002806D1FFE7A8
:105610000499086A402290430862FFE70498806971
:10562000019001980F21090388430190029801031A
:105630000198084301900098A021884300900398A6
:10564000010100980843009001980499886100982E
:105650000499086205B07047002C014000400140E9
:10566000004401400048014070B58AB00990099893
:10567000406E002808D1FFE709996A22012088526C
:1056800009996822885233E008A90191082008701E
:1056900007A9087009980068806807225206104020
:1056A000400E06AA02921070099800688068420FA6
:1056B00005A80270097802780E480490805C48437F
:1056C0000D490391895CFAF721FD019B029A039928
:1056D00004460498099D6A26AC531B781278805CB6
:1056E0005843895CFAF712FD099968228852FFE74E
:1056F0000AB070BD988600089086000881B00090BE
:1057000000982821405C000700280CD5FFE700988E
:10571000006840680121C903884300998A6B1043DF
:1057200009684860FFE700982821405CC00700280E
:105730000CD0FFE7009800684068012149048843C5
:105740000099CA6A104309684860FFE70098282159
:10575000405C800700280CD5FFE70098006840688F
:1057600001210904884300990A6B104309684860C5
:10577000FFE700982821405C400700280CD5FFE790
:1057800000980068406801218904884300994A6BA9
:10579000104309684860FFE700982821405CC00674
:1057A00000280CD5FFE700980068806801210903F4
:1057B00088430099CA6B104309688860FFE7009826
:1057C0002821405C800600280CD5FFE7009800687F
:1057D000806801214903884300990A6C10430968D5
:1057E0008860FFE700982821405C400600281DD50E
:1057F000FFE7009800684068012109058843009A86
:10580000536C1843126850600098406C88420CD169
:10581000FFE7009800684068032149058843009924
:105820008A6C104309684860FFE7FFE70098282169
:10583000405C000600280CD5FFE70098006840682F
:105840000121C90488430099CA6C10430968486063
:10585000FFE701B07047000080B590B00590059952
:10586000902200208850FBF7CFFC04900598006838
:1058700000680007002832D5FFE70598049B4D49D2
:10588000009101214905002200F0AAFA002825D044
:10589000FFE7FFE7EFF310800990099803900120DC
:1058A0000F900F9880F3108805980168086880228F
:1058B0009043086003980E900E9880F31088FFE7DD
:1058C0000599882220208850FFE70599842200202E
:1058D0008854FFE706A90320087066E0FFE70598F3
:1058E000006800684007002849D5FFE70598049B39
:1058F0003049009101218905002200F071FA002849
:105900003CD0FFE7FFE7EFF3108008900898029083
:1059100001200D900D9880F31088059801680868A3
:10592000092252019043086002980C900C9880F371
:105930001088FFE7FFE7EFF31080079007980190CA
:1059400001220B920B9880F31088059801688868F3
:105950009043886001980A900A9880F31088FFE7C6
:1059600005998C2220208850FFE705998422002089
:105970008854FFE706A90320087016E0FFE70599A1
:1059800088222020885005998C2288500599002073
:10599000C86605990867FFE70599842200208854A6
:1059A000FFE706A900200870FFE706A8007810B0FE
:1059B00080BDC046FFFFFF018DB00390FFE7EFF30E
:1059C000108006900698029001200C900C9880F3AD
:1059D0001088039801680868092252019043086002
:1059E00002980B900B9880F31088FFE7FFE7EFF326
:1059F000108005900598019001200A900A9880F384
:105A00001088039801688868184A104088600198D7
:105A10000990099880F31088FFE70398C06E012869
:105A200018D1FFE7FFE7EFF310800490049800908F
:105A300001200890089880F310880398016808688E
:105A400010229043086000980790079880F3108810
:105A5000FFE7FFE703998C2220208850039900205C
:105A6000C866039948670DB07047C046FEFFFFEF58
:105A700080B58EB00D9008A9002008700D99886837
:105A80000A6910434A691043C96908430C900D988C
:105A900000680068C94908400C9908430D990968D5
:105AA00008600D98006840680321090388430D9938
:105AB000CA681043096848600D9880690C900D9879
:105AC000016A0C9808430C900D9800688068BC49E6
:105AD00008400C9908430D99096888600D98006882
