:020000040800F2
:1000000010090020CD000008E13600082131000869
:1000100000000000000000000000000000000000E0
:10002000000000000000000000000000A9370008E8
:100030000000000000000000E5360008FD37000861
:10004000DF00000800000000DF000008DF000008FB
:10005000DF000008BD0A0008DF000008C70A00082A
:1000600000000000B9090008DF000008DF000008F8
:10007000DF000008DF000008DF00000800000000CB
:10008000DF000008DF000008DF000008DF000008D4
:10009000DF000008DF000008DF000008DF000008C4
:1000A000DF000008DF000008DF0000082944000826
:1000B000DF000008DF0000080348854600F0A2FAD0
:1000C0000048004703450008100900200448804705
:1000D00004480047FEE7FEE7FEE7FEE7FEE7FEE72F
:1000E00083380008B9000008F8B500242546002927
:1000F00004DA0E46012400214042B141002B04DA0B
:100100001E46002352420125B34100F085F88C467B
:1001100017461E46AC4203D0002540428D41AC46F6
:10012000002C02D0002657429E4161463A46334693
:1001300001B0F0BD30B5434351435C18010C130CC2
:100140000D465D432C1980B292B20546554351438A
:100150000A0C09044D1962415843010C000440196E
:10016000514130BDD2B201E00270401C491EFBD2A9
:1001700070470022F6E710B513460A4604461946B2
:10018000FFF7F0FF204610BD70B50446002903D0EC
:1001900000202022012310E0002801D00020C043CD
:1001A000C046C0460DE02546D5408D4205D30D46DC
:1001B0009540641B1D46954040191546521E002D62
:1001C000F1DC214670BD000070B5002504462E46C6
:1001D000002911D0002C01DA01254442002901DA5E
:1001E000012649422046FFF7CFFFB54200D04042EA
:1001F000002D00D0494270BD002C02DA0121C90750
:1002000002E0002C00DD03490846C046C0462146F6
:1002100070BD0000FFFFFF7FF0B51FB40646002051
:1002200082B005464024019100901BE001992246CE
:100230000F46304600F00EFA049A059B801A994149
:1002400010D310461946224600F0F4F9361A8F41B1
:100250000197224601200021009F00F0EBF9381899
:100260004D4100902046641E0028DFDC019B009871
:100270002946324607B0F0BDF0B50746084658405B
:1002800087B0C00F049048000E4659004008490846
:10029000BC1A884105D2384631461E4617460B46E1
:1002A00002465800400810434CD0300D03904005E2
:1002B0005900400D490D0590401A0290402872DA0D
:1002C00018030121000B09050843019004980092CE
:1002D000002805D0019952420020884100920190E7
:1002E000029840210A1A0199009800F0A3F90546E6
:1002F0000C466B4607CB00F0BEF9C0197141039A5A
:100300000E0D0023D71756401A467A40164344D0A4
:10031000049A002A2DD0029A012A039A15DC1205AC
:10032000C01A914101263605001C7141D20F059E6D
:10033000D2070093019202962A46234600F0BBF9A9
:1003400007B0F0BD38463146FAE71605224A0F4697
:10035000B218C01AB74101210905001C4F4100180D
:100360007F41114618187941E20F10436D1964411D
:1003700013E0E2076D0815436408C2071443039AAB
:1003800001261205C01A91413605001C7141CE07A5
:10039000400830434908C01851412A46234600F01E
:1003A0007DF9CDE7FFE7049801224000C117121A3A
:1003B00000238B4104983146C417381AA141EEE757
:1003C00030B40124E407634030BC55E730B4012465
:1003D000E407614030BC4FE70000E0FFF0B51FB418
:1003E00088B00B990998002448400999C00F49002A
:1003F00049080991C0070B990090490049080B91E1
:1004000009990898A64608431CD00B990A980843F6
:1004100018D0099801244000420D4800410D099868
:1004200024050003000B204309900B980003000BE8
:1004300020430B9050181C4940180022019014468C
:10044000104605E0002001460DB0F0BD032801DA9A
:10045000034600E003239C46C11A0AAE0AE05F008F
:1004600008ADED5B4F00F75B7D430027AA187C4188
:10047000491C5B1E6145F2DD410004AB5A52210468
:10048000120C0A43240C401C0828DFDB0198029060
:100490000099704601910090059B049A079906986F
:1004A00000F009F9D0E700000DFCFFFFF0B50C46A5
:1004B0005C4085B0E40FE40703944C000026640818
:1004C00059009446490802460296224321D06246CA
:1004D0000A431ED06200570D4A000E032303550D38
:1004E000012402462C492405781B1B0B360B4018AF
:1004F00023432643614600901C46501AB44103D35F
:100500000098401C009002E0921800985B4100287F
:1005100003DA0020014605B0F0BD002001210905E5
:100520000746864611E064461D46141BB54106D3B6
:100530006546521BB341744607430C43A646CD079C
:1005400040084908284392185B4105460D43EAD10B
:100550001046184313D06046194650407140084376
:1005600006D06046101AB34106D20122002306E0ED
:1005700000220123DB0702E00122D243531000983E
:1005800074460105381C6141029C039D00196941B4
:1005900000F084F8BFE70000FD0300004A000903F3
:1005A0000123090B1B0519430A4B10B5520D9A4242
:1005B00002DA0020014610BD064B34339A4203DCB8
:1005C0009A1A00F047F810BD034BD21800F032F829
:1005D00010BD0000FF030000CDFBFFFF10B5002998
:1005E00004DB0124E40740428C412146002B04DB5C
:1005F0001C460123DB075242A341994200D190429D
:1006000010BD00001CB5094800900948019005463E
:100610000126009C05E0E36807CC33430C3C984777
:100620001034AC42F7D3FFF74BFD0000F450000844
:100630001451000810B5202A04DB0146203A9140ED
:10064000002010BD914020239C1A0346E34019432B
:10065000904010BD10B5202A04DB0846203AD04057
:10066000002110BD0B46D340D0402024A21A914057
:100670000843194610BD10B5202A06DBCB170846E3
:10068000203A1041C1170B4306E00B461341D040FE
:100690002024A21A91400843194610BD10B5002B22
:1006A00008DA0024401C614192185B411A4301D1D1
:1006B0004008400010BDF0B51FB482B005460C00E4
:1006C00003D0084603F0FEFF02E003F0FBFF2030FA
:1006D0000246009021462846FFF7ACFF049B059A8E
:1006E00004460F4618431143084314D018461043DC
:1006F0001BD0009840210A1A18460599FFF7AAFF57
:1007000005460E46009A05990498FFF793FF0843A3
:1007100005D0012004E02046394607B0F0BD002096
:10072000C11705430E432C43374300990E986305C8
:10073000401A7905E40A00220C43FD0A0A3002D56A
:1007400000200146E9E70105101969410C9C0D9D47
:1007500000196941FFF7A2FFDFE70000B0B582B0E2
:1007600000F0E4FE0190694600200870FFE768464B
:100770000078012822DCFFE76B4618781422144623
:1007800044438C49002008511D7814466C430C19D1
:1007900060601D7814466C430C19A0601D781446E7
:1007A0006C430C19E06001981B785A438918086162
:1007B000FFE70098401C69460870D8E769460020AA
:1007C0000870FFE768460078012822DCFFE76B46E7
:1007D00018781422144644437549002008511D78A6
:1007E00014466C430C1960601D7814466C430C1958
:1007F000A0601D7814466C430C19E06001981B78CA
:100800005A4389180861FFE70098401C6946087040
:10081000D8E702B0B0BDC046B0B590B000F086FEDB
:100820000D9009A900200870FFE709A800780128A9
:1008300059DCFFE70D9809A9097814224A435D495C
:1008400089180969401A0C900C98642845D3FFE771
:10085000EFF3108072B60F9009AB0693197814224B
:100860000792104648435349089108580B9062B6C6
:100870000B981B785A4389184968401A0A900A98BD
:10088000C1177D22D20000230593FFF753FC059B7F
:100890000C9AFFF729FC069A0799034608981578E1
:1008A0000C466C430419A360127851434418A168A4
:1008B0003C204843C821FFF787FC069B079A08990C
:1008C000E0600B981D7814466C430C1960600D981D
:1008D0001B785A4389180861FFE7FFE70998401C15
:1008E00009A90870A1E709A900200870FFE709A875
:1008F0000078012859DCFFE70D9809A9097814222E
:100900004A432B4989180969401A0C900C986428AD
:1009100045D3FFE7EFF3108072B60E9009AB029358
:10092000197814220392104648432149049108582B
:100930000B9062B60B981B785A4389184968401A85
:100940000A900A98C1177D22D20000230193FFF775
:10095000F1FB019B0C9AFFF7C7FB029A0399034630
:10096000049815780C466C430419A360127851431F
:100970004418A1683C204843C821FFF725FC029B8E
:10098000039A0499E0600B981D7814466C430C1987
:1009900060600D981B785A4389180861FFE7FFE7EC
:1009A0000998401C09A90870A1E710B0B0BDC04665
:1009B000A0020020D402002080B5024800F0B4F963
:1009C00080BDC0465801002080B582B001900199D9
:1009D000086C032290430B4A801848640198007801
:1009E00008381421FFF7D0FB00900199064888646D
:1009F00000991F200140012088400199C86402B07D
:100A000080BDC046000802408008024082B00190CC
:100A1000019840683F2108400090009880000849F4
:100A20004018019908650199064848650098411EDB
:100A300003200140012088400199886502B0704779
:100A4000FC0802404009024084B0039002910192E8
:100A500000930399C86C896C48600398006D002866
:100A600005D0FFE70399886D496D4860FFE703985B
:100A7000006C1C21084001228240AA4908681043EA
:100A800008600098039909684860039880681028F6
:100A900009D1FFE7019803990968886002980399D2
:100AA0000968C86008E0029803990968886001989D
:100AB00003990968C860FFE704B0704780B5022059
:100AC00000F018FB80BD80B582B0012001900002CB
:100AD00000F010FB0198000300F00CFB019880036C
:100AE00000F008FB02B080BD10B586B005900491FF
:100AF00003A90A8002A8009003700498098800F0F6
:100B0000D3FC0146009801AA11700078002810D18A
:100B1000FFE701A80078012805D1FFE705990868DB
:100B2000401E086004E005990868401C0860FFE763
:100B30000FE001A80078012805D1FFE705990868B2
:100B4000401C086004E005990868401E0860FFE743
:100B5000FFE706B010BD000080B584B00120009012
:100B600081020D48019000F09FFC00990246019817
:100B7000521E53425A4103AB1A70C90200F094FC52
:100B8000401E4142484102A9087003984006000EE9
:100B90000978084304B080BD0008005081B0EFF32D
:100BA000108072B60090FFE7FEE7000082B0009070
:100BB0000098002804D1FFE701A90120087051E046
:100BC00000982521405C02280DD0FFE70099042001
:100BD000C863FFE70099242200208854FFE701A999
:100BE000012008703EE000980168086801229043E7
:100BF00008600098016808680E2398430860009810
:100C0000416C08681302984308600098006C1C212E
:100C1000084082409F490868104308600099C86CEA
:100C2000896C48600098006D00280CD0FFE70098A0
:100C3000016D086801221202904308600099886DD6
:100C4000496D4860FFE70099252201208854FFE79D
:100C50000099242200208854FFE7FFE701A9002023
:100C60000870FFE701A8007802B0704780B582B035
:100C7000019069460020087001982521405C0228F7
:100C800007D0FFE701990420C86369460120087076
:100C900043E00198016808680122904308600198C8
:100CA000016808680E23984308600198416C086841
:100CB0001302984308600198006C1C210840824090
:100CC00074490868104308600199C86C896C4860D1
:100CD0000198006D00280CD0FFE70198016D0868AD
:100CE00001221202904308600199886D496D4860A5
:100CF000FFE70199252201208854FFE7019924226A
:100D000000208854FFE70198806B002804D0FFE79B
:100D10000198816B8847FFE7FFE76846007802B0DB
:100D200080BDC0460400024080B584B0039058489E
:100D30000068029003980068006801900298039987
:100D4000096C1C221140C8404007002828D5FFE745
:100D500001A800784007002822D5FFE70398006823
:100D600000688006002807D4FFE703980168086838
:100D7000042290430860FFE70398006C1C210840A0
:100D80000422824043490868104308600398006BBE
:100D9000002804D0FFE70398016B8847FFE774E061
:100DA00002980399096C1C221140C8408007002852
:100DB00032D5FFE701A80078800700282CD5FFE78F
:100DC000039800680068800600280BD4FFE70398AA
:100DD000016808680A2290430860039925220120CF
:100DE0008854FFE70398006C1C21084002228240CF
:100DF0002849086810430860FFE70399242200206F
:100E00008854FFE70398C06A002804D0FFE70398DE
:100E1000C16A8847FFE737E002980399096C1C22F2
:100E20001140C840000700282CD5FFE701A8007832
:100E30000007002826D5FFE70398016808680E22FE
:100E4000904308600398016C1C2001400120034678
:100E50008B40104A1168194311600399C8630399C4
:100E600025228854FFE70399242200208854FFE7B5
:100E70000398406B002804D0FFE70398416B884734
:100E8000FFE700E0FFE7FFE7FFE704B080BDC046F3
:100E9000000002400400024080B584B00290029835
:100EA000002804D1FFE703A9012008706EE0029832
:100EB00000900068374940181421FFF765F9009940
:100EC0008000086402992522022088540298016853
:100ED0000868314A10400860029801908268C16831
:100EE0000A4301690A4341690A4381690A43C169A6
:100EF0000A43016A0A4301680868104308600298BF
:100F0000FFF762FD0298806801218903884204D1BD
:100F1000FFE7029900204860FFE7029948683F22F6
:100F20001040496C08600299C86C896C486002984E
:100F30004068002811D0FFE70298406804280CD8C8
:100F4000FFE70298FFF762FD0298016D002008603C
:100F50000299886D496D486007E002990020086594
:100F60000299486502998865FFE702990020C863E5
:100F70000299252201208854FFE7029924220020AB
:100F80008854FFE703A900200870FFE703A8007852
:100F900004B080BDF8FFFDBF0F80FFFF80B586B0B5
:100FA0000490039102920193694600200870FFE7C4
:100FB00004982421405C012804D1FFE705A9022000
:100FC00008706BE00499242201208854FFE7FFE7B2
:100FD00004982521405C01284FD1FFE70499252280
:100FE0000220885404990020C863049801680868A6
:100FF00001229043086004980399029A019BFFF72D
:1010000023FD0498006B002807D0FFE704980168CF
:1010100008680E22104308600CE004980168086814
:101020000422904308600498016808680A2210436B
:101030000860FFE70498406C0068C003002808D5EA
:10104000FFE70498416C086801221202104308600F
:10105000FFE70498006D002808D0FFE70498016DB1
:1010600008680122120210430860FFE70498016833
:1010700008680122104308600CE004998020C863CE
:10108000FFE70499242200208854FFE769460120E5
:101090000870FFE7009805A90870FFE705A8007829
:1010A00006B080BD80B584B0039000F03FFA029096
:1010B000039801900198401C002806D0FFE70948DA
:1010C0000178019840180190FFE7FFE700F02EFA41
:1010D0000299401A0199884201D2FFE7F6E704B06D
:1010E00080BDC0464800002081B06946088001B03C
:1010F0007047000080B582B001A908800F480068E1
:101100000988084208D0FFE701A801880B4A11604E
:10111000008800F017F8FFE70948006801A909886E
:10112000084208D0FFE701A80188054A116000883D
:10113000FFF7DAFFFFE702B080BDC0460C1802409F
:101140001018024080B582B0014601A801800088D5
:10115000022807D1FFE71F48CC4904220023FFF7EC
:10116000C3FC32E001A8008801210903884209D1AB
:10117000FFE71848143001214A03C4490023FFF750
:10118000B3FC21E001A8008801210902884209D1AD
:10119000FFE70F4805210907012252020023FFF74C
:1011A000A3FC10E001A8008801218903884209D12D
:1011B000FFE7074814300121CA03B4490023FFF7B1
:1011C00093FCFFE7FFE7FFE7FFE702B080BDC04603
:1011D000A0020020D40200208AB0099008910020CB
:1011E0000790FFE7089800680799C840002800D1D9
:1011F00047E108980068079A01219140084006904D
:101200000698002800D138E108984068032108407A
:10121000012807D0FFE7089840680321084002280A
:101220002CD1FFE7099880680590079840000321BA
:1012300081400598884305900898C1680798400048
:101240008140059808430590059809998860099898
:1012500040680590079801218140059888430590D2
:1012600008984068102108400109079881400598B6
:1012700008430590059809994860FFE70898406879
:1012800003210840032816D0FFE70998C06805909D
:1012900007984000032181400598884305900898ED
:1012A000816807984000814005980843059005989B
:1012B0000999C860FFE708984068032108400228A0
:1012C00020D1FFE709980799C90889004018006AEA
:1012D000059007984007C00E0F218140059888436C
:1012E00005900898016907984007C00E814005984D
:1012F0000843059005980999079AD2089200891821
:101300000862FFE7099800680590079841000320EC
:1013100002468A4005999143059108994968014020
:101320000798400081400598084305900598099961
:101330000860089880798007002800D19CE0079811
:101340000321884350494058059007988007C00EF4
:101350000F218140059888430590099805210907C8
:10136000884203D1FFE70020049022E00998474912
:10137000884203D1FFE70120039017E00998444910
:10138000884203D1FFE7022002900CE00999414A0C
:101390000320052300939142019001D00098019011
:1013A00001980290FFE702980390FFE703980490EA
:1013B000FFE7049907988007C00E8140059808430D
:1013C000059005980799032291432F4A8850324887
:1013D00000680590069905988843059008988079DB
:1013E000C006002805D5FFE7069905980843059033
:1013F000FFE7059828490860284800680590069985
:10140000059888430590089880798006002805D5BE
:10141000FFE70699059808430590FFE705981F49DF
:1014200008601F4800680590069905988843059054
:10143000089880798007002805D5FFE70699059868
:1014400008430590FFE705981549086015480068AE
:101450000590069905988843059008988079C007FB
:10146000002805D0FFE70699059808430590FFE797
:1014700005980C490860FFE7FFE70798401C0790B4
:10148000B0E60AB07047C046601802400004005041
:1014900000080050000C00500018024004180240E0
:1014A000841802408018024084B0009101460098E0
:1014B000039102A90880039800690988084204D0B2
:1014C000FFE701A90120087003E001A900200870CE
:1014D000FFE701A8007804B0704783B0029001A82C
:1014E0000180029949690091009A018810460840DC
:1014F0000004914340180299886103B0704783B09B
:10150000029001A80180684602700078002805D08A
:10151000FFE701A800880299886104E001A800881B
:1015200002998862FFE703B070470000BA4800687C
:101530007047C04610B583B00190009101984121D9
:10154000405C202839D1FFE7FFE701984021405C4B
:10155000012804D1FFE702A90220087031E00199B7
:10156000402201208854FFE7FFE70199412224200F
:10157000885401980168086801239843086001981D
:10158000016808681C03A0430860009C019801687A
:1015900008682043086001980168086818430860DB
:1015A000019920208854FFE70199402200208854A7
:1015B000FFE702A90020087003E002A902200870DA
:1015C000FFE702A8007803B010BD84B0029001913B
:1015D00002984121405C20283FD1FFE7FFE70298B5
:1015E0004021405C012804D1FFE703A902200870D4
:1015F00037E00299402201208854FFE7FFE7029973
:1016000041222420885402980168086801239843E5
:101610000860029800680068009000980F21090295
:1016200088430090019801020098084300900098B8
:101630000299096808600298016808681843086000
:10164000029920208854FFE7029940220020885404
:10165000FFE703A90020087003E003A90220087037
:10166000FFE703A8007804B07047000080B582B09F
:1016700000900098002804D1FFE701A9012008701C
:101680007EE000984121405C002808D1FFE70099E6
:10169000402200208854009800F078F8FFE7009975
:1016A0004122242088540098016808680122904350
:1016B0000860009948680F231B0698430968086171
:1016C000009801688868D203904388600098C068D9
:1016D000012808D1FFE7009988680122D20310434E
:1016E0000968886007E00099886821229202104307
:1016F00009688860FFE70098C068022808D1FFE702
:101700000098016848680122D2021043486007E04F
:101710000098016848680122D20290434860FFE7C0
:10172000009801684868184A1043486000980168AA
:10173000C8680122D3039843C860009908694B69BF
:1017400018438B691B0218430968C8600099C8696F
:101750000B6A18430968086000980168086810431C
:101760000860009900204864009A41232021D15448
:101770000099086300994222885401A90870FFE784
:1017800001A8007802B080BD0080000280B588B05A
:10179000079000200690059004900390029007980F
:1017A00000681649884226D1FFE7FFE7144802681F
:1017B00002210A4302600068084001900198FFE797
:1017C00003208002029012200390002004900590D4
:1017D000062006900B4802A9FFF7FEFCFFE74C48E5
:1017E0000268012189050A430260006808400090F0
:1017F0000098FFE7FFE708B080BDC04600580040F2
:101800003410024000040050314802780249086850
:10181000801808607047C0460805002080B582B077
:1018200001A9002008700B49086801221202104328
:101830000860032000F010F8002804D0FFE701A999
:101840000120087002E000F047F8FFE701A80078E7
:1018500002B080BD0020024080B584B0039002A990
:10186000002008701A480078002829D0FFE7524865
:1018700000680190164801787D20C000FEF784FCC6
:1018800001460198FEF780FC00F0E2FE002812D12C
:10189000FFE70398032809D8FFE703990022D04304
:1018A00000F043F803980B49086003E002A9012007
:1018B0000870FFE703E002A901200870FFE703E0DA
:1018C00002A901200870FFE702A8007804B080BDDB
:1018D000480000204C00002082B0FFE70B4802685F
:1018E00001210A4302600068084001900198FFE767
:1018F000FFE7C1480268012109070A430260006846
:10190000084000900098FFE702B070474010024086
:101910003C10024080B582B0014601A80170002150
:10192000405602F089FD02B080BD80B584B0034608
:1019300003A803700291019200214056029902F01F
:1019400091FD04B080BD000080B584B00290AB4929
:101950000868032252029043029A104308600298DA
:101960000121490288421ED1FFE713480168062081
:1019700048431249FEF708FC401C0190FFE710485D
:101980000068400500280DD5FFE70198002804D025
:10199000FFE70198401E019003E003A903200870AF
:1019A00005E0ECE7FFE703A900200870FFE703A8C4
:1019B000007804B080BDC0460400002040420F0003
:1019C0001470004080B588B0079004A9002008700A
:1019D00003A90870079880788007002800D49DE04C
:1019E00002A90020087084480068C000002810D4B4
:1019F000FFE7FFE780480268012109070A43026008
:101A00000068084001900198FFE702A901200870D2
:101A1000FFE77A4908680122120210430860FFF7C5
:101A200085FD0590FFE775480068C00500280CD4C7
:101A3000FFE7FFF77BFD0599401A032804D3FFE772
:101A400004A90320087000E0EDE704A8007800284E
:101A500053D1FFE76A480068032109020840069055
:101A60000698002817D0FFE70698079989698842E9
:101A700011D0FFE7F549086803221202904306904F
:101A80000868012212041043086008689043086047
:101A900006980860FFE706A80078C007002818D05D
:101AA000FFE7FFF743FD0590FFE7E8480068800780
:101AB00000280DD4FFE7FFF739FD0599401AE749E3
:101AC000884204D3FFE704A90320087000E0ECE794
:101AD000FFE704A8007800280AD1FFE7DB4908687F
:101AE000032212029043079A92691043086003E0B0
:101AF000049803A90870FFE703E0049803A908709D
:101B0000FFE702A80078012807D1FFE73A490868F3
:101B10000122120790430860FFE7FFE7079800786B
:101B2000C007002809D0FFE7364908680322904320
:101B3000079A526810430860FFE70798007880070B
:101B4000002809D5FFE72F4908680C229043079A1F
:101B5000926810430860FFE7079800788006002825
:101B60000AD5FFE727490868032212039043079A22
:101B7000D26810430860FFE70798407840060028C5
:101B800018D5FFE71F490868032292079043079A78
:101B9000526910430860079840690121890788420B
:101BA00007D1FFE7184908680122120410430860B2
:101BB000FFE7FFE7079840780007002818D5FFE700
:101BC00010490868032292039043079A1269104350
:101BD00008600798006901218903884207D1FFE75F
:101BE000F04908680122120410430860FFE7FFE78C
:101BF00003A8007808B080BD3C100240007000408F
:101C00005C100240541002400C10024080B584B0B9
:101C1000029001910298002804D1FFE703A9012056
:101C200008700CE101988849096807221140884230
:101C300021D9FFE78449086807229043019A10439D
:101C40000860FFF773FC0090FFE77F4800680721FA
:101C50000840019988420DD0FFE7FFF767FC009923
:101C6000401A7E49884204D3FFE703A90320087085
:101C7000E5E0EAE7FFE7029800788007002817D53B
:101C8000FFE7029800784007002807D5FFE7C4491E
:101C900008680722120310430860FFE7C04908687C
:101CA0000F2212029043029A926810430860FFE7E5
:101CB00002980078C007002872D0FFE702984068B9
:101CC00001280BD1FFE7BA4800688003002804D43C
:101CD000FFE703A901200870B1E03DE002984068E9
:101CE00002280BD1FFE7B24800688001002804D425
:101CF000FFE703A901200870A1E02CE002984068EA
:101D000000280BD1FFE7AA4800684005002804D44A
:101D1000FFE703A90120087091E01BE002984068EA
:101D200003280BD1FFE74A4800688007002804D445
:101D3000FFE703A90120087081E00AE0434800683A
:101D40008007002804D4FFE703A90120087076E08B
:101D5000FFE7FFE7FFE7FFE79149086807229043A5
:101D6000029A526810430860FFF7E0FB0090FFE71B
:101D70008B4800683821084002994968C9008842A8
:101D80000DD0FFE7FFF7D2FB0099401A3349884294
:101D900004D3FFE703A90320087050E0E8E7FFE75A
:101DA00001982949096807221140884221D2FFE79A
:101DB0002549086807229043019A10430860FFF7FD
:101DC000B5FB0090FFE72048006807210840019913
:101DD00088420DD0FFE7FFF7A9FB0099401A1F4981
:101DE000884204D3FFE703A90320087027E0EAE74D
:101DF000FFE702980078400700280AD5FFE7684906
:101E00000868072212039043029AD26810430860C0
:101E1000FFE700F03FF8624909680F221202114003
:101E20008A090C4989581F221140C8400E49086090
:101E300009480068FFF710FD03A90870FFE703A831
:101E4000007804B080BDC046002002405C10024013
:101E500060100240BC4F00084C00002089130000B5
:101E6000014800687047C0460400002080B582B079
:101E7000FFF7F6FF019001F0A7F901460198090B61
:101E80008A00034989581F221140C84002B080BD12
:101E9000FC4F000880B588B0414800688006400FBC
:101EA00000280FD1FFE7424800680721C902084017
:101EB000C10A01208840039003993C48FEF764F969
:101EC000029069E03648006838210840082803D1AC
:101ED000FFE7354802905EE031480068382108404D
:101EE00010283CD1FFE72F480168032211400691DA
:101EF0000068702108400009401C04900698019079
:101F0000022812D0FFE7019803280FD1FFE70499B8
:101F10002548FEF739F90146224800687F2212025F
:101F20001040000A484307900EE0FFE704991F485D
:101F3000FEF72AF901461B4800687F221202104072
:101F4000000A48430790FFE716480068400F401C0E
:101F5000059007980599FEF717F902901AE01048C6
:101F6000006838210840202804D1FFE70120C00381
:101F700002900EE00A48006838210840182804D171
:101F8000FFE77D200002029002E000200290FFE7C0
:101F9000FFE7FFE7FFE7FFE7029808B080BDC04614
:101FA000081002400C10024000127A000024F400D5
:101FB0000010024010B588B006900698002804D1A1
:101FC000FFE707A9012008702AE306980078C007F8
:101FD000002800D188E0FC480068382108400490BF
:101FE000FA4800680321084003900498102804D19F
:101FF000FFE70398032804D0FFE70498082810D1CE
:10200000FFE7F84800688003002809D5FFE7069835
:102010004068002804D1FFE707A901200870FFE20B
:1020200061E0FFE70698406801210904884207D172
:10203000FFE7EC49086801221204104308601DE024
:10204000069840680521090488420BD1FFE7E5495D
:1020500008680122930418430860086812041043BA
:1020600008600AE0DF490868012213049843086009
:102070000868920490430860FFE7FFE7FFE70698CF
:102080004068002817D0FFE7FFF750FA0590FFE7F8
:10209000D4480068800300280CD4FFE7FFF746FA15
:1020A0000599401A652804D3FFE707A903200870A3
:1020B000B6E2EDE716E0FFF739FA0590FFE7C94809
:1020C0000068800300280CD5FFE7FFF72FFA059979
:1020D000401A652804D3FFE707A9032008709FE290
:1020E000EDE7FFE7FFE7FFE70698007880070028A5
:1020F00000D4A3E0B4480068382108400490B348F5
:1021000000680321084003900498102804D1FFE7D9
:102110000398022804D0FFE7049800283BD1FFE78A
:10212000B04800684005002809D5FFE70698C06858
:10213000002804D1FFE707A90120087070E2AA492E
:1021400008687F2212029043069A526912021043D5
:1021500008600498002811D1FFE7A248026807210F
:10216000C9028A43069B1B691A4302600068084043
:10217000C10A9E48C8409E490860FFE79D48006824
:10218000FFF76AFB002804D0FFE707A901200870C9
:1021900046E2FFE751E00698C06800282FD0FFE72D
:1021A000904908680722D2029043069A12691043A8
:1021B000086008680122120210430860FFF7B6F9B0
:1021C0000590FFE787480068400500280CD4FFE72A
:1021D000FFF7ACF90599401A032804D3FFE707A9D4
:1021E000032008701CE2EDE77F4908687F22120295
:1021F0009043069A52691202104308601CE0794924
:1022000008680122120290430860FFF78FF90590D9
:10221000FFE774480068400500280CD5FFE7FFF78A
:1022200085F90599401A032804D3FFE707A903207D
:102230000870F5E1EDE7FFE7FFE7FFE706980078B4
:102240000007002856D5FFE7F74800683821084006
:10225000182810D1FFE7F74800688007002809D543
:10226000FFE706988069002804D1FFE707A901204D
:102270000870D5E13DE00698806900281CD0FFE792
:10228000EC490868012210430860FFF74FF90590F8
:10229000FFE7E8480068800700280CD4FFE7FFF755
:1022A00045F90599401A032804D3FFE707A903203D
:1022B0000870B5E1EDE71BE0DE49086801229043B4
:1022C0000860FFF733F90590FFE7DA4800688007F8
:1022D00000280CD5FFE7FFF729F90599401A0328D4
:1022E00004D3FFE707A90320087099E1EDE7FFE7B2
:1022F000FFE7FFE7069800784007002800D4CAE00F
:1023000002A900200870C848006838210840202829
:1023100010D1FFE7CA4800688007002809D5FFE709
:1023200006988068002804D1FFE707A901200870FB
:1023300076E1AFE0C0480068C000002810D4FFE795
:10234000FFE7BD480268012109070A4302600068EF
:10235000084001900198FFE702A901200870FFE7FB
:10236000B6480068C00500281DD4FFE7B3490868D7
:102370000122120210430860FFF7D8F80590FFE72A
:10238000AE480068C00500280CD4FFE7FFF7CEF880
:102390000599401A032804D3FFE707A90320087012
:1023A0003EE1EDE7FFE7FFE706988068012806D1E8
:1023B000FFE7A349086801221043086027E0069858
:1023C0008068052818D103E0081002400C10024074
:1023D0009B490868042210430860086801221043E2
:1023E000086013E000100240041002400024F400D2
:1023F000040000204C00002091490868012290430D
:1024000008600868042290430860FFE7FFE7FFE7E1
:1024100006988068002818D0FFE7FFF787F8059036
:10242000FFE787480068800700280DD4FFE7FFF723
:102430007DF80599401A8349884204D3FFE707A92C
:1024400003200870ECE0ECE717E0FFF76FF8059069
:10245000FFE77B480068800700280DD5FFE7FFF7FE
:1024600065F80599401A7749884204D3FFE707A920
:1024700003200870D4E0ECE7FFE702A80078012809
:1024800007D1FFE76C4908680122120790430860F2
:10249000FFE7FFE7FFE70698C069002800D1BBE02F
:1024A0006148006838210840102876D0FFE7069878
:1024B000C06902284ED1FFE75D4908680122120673
:1024C00090430860FFF732F80590FFE7584800682E
:1024D000800100280CD5FFE7FFF728F80599401A7E
:1024E000032804D3FFE707A90320087098E0EDE76D
:1024F0004E490868554A1040069B1A6A5C6A224396
:102500009C6A24022243DC6A22431B6B1A43104359
:102510000860474B186801221406204318600868B9
:10252000120710430860FFF701F80590FFE74048E5
:102530000068800100280CD4FFE7FEF7F7FF05993B
:10254000401A032804D3FFE707A90320087067E0B7
:10255000EDE721E036490868012212069043086041
:10256000FEF7E4FF0590FFE731480068800100288E
:102570000CD5FFE7FEF7DAFF0599401A032804D3CC
:10258000FFE707A9032008704AE0EDE7274908683C
:102590002D4A10400860FFE73DE00698C069012819
:1025A00004D1FFE707A90120087039E01F4800683F
:1025B00003900398032108400699096A884224D1B0
:1025C000FFE70398702108400699496A88421CD1A8
:1025D000FFE703987F21090208400699896A0902EA
:1025E000884212D1FFE703981F2149040840069949
:1025F000C96A884209D1FFE70398072149070840C3
:102600000699096B884204D0FFE707A901200870EA
:1026100006E0FFE7FFE7FFE707A900200870FFE7F4
:1026200007A8007808B010BD081002400C10024046
:1026300000100240601002403C1002400070004058
:102640005C10024089130000FCFFFEEF8C80C11F6C
:1026500080B582B00190019801F0A8F802B080BD69
:1026600083B00190FFE701988421405C012804D1E8
:10267000FFE702A9022008702BE0019984220120C3
:102680008854FFE7FFE701998822242088500198A9
:102690000068006800900198036818680121884369
:1026A0001860009849078843009001990020486607
:1026B0000098019909680860019920208850FFE777
:1026C0000199842200208854FFE702A900200870A5
:1026D000FFE702A8007803B0704782B00190684617
:1026E000018002B0704781B0009001B0704780B5A2
:1026F00086B004900391FFE704988421405C012890
:1027000004D1FFE705A90220087034E0049984226F
:1027100001208854FFE7FFE70499882201922420D2
:10272000885004980068006802900498016808685E
:1027300001229043086004980068806807214906D8
:10274000884303990843049909688860049801F054
:1027500099F8019A02980499096808600499202060
:102760008850FFE70499842200208854FFE705A9D8
:1027700000200870FFE705A8007806B080BD80B58E
:1027800086B004900391FFE704988421405C0128FF
:1027900004D1FFE705A90220087034E004998422DF
:1027A00001208854FFE7FFE7049988220192242042
:1027B00088500498006800680290049801680868CE
:1027C0000122904308600498006880680721490747
:1027D000884303990843049909688860049801F0C4
:1027E00051F8019A02980499096808600499202018
:1027F0008850FFE70499842200208854FFE705A948
:1028000000200870FFE705A8007806B080BD81B001
:10281000009001B0704781B0009001B0704781B066
:10282000009001B07047000080B5A8B00F900F98DD
:102830000068C0690E900F98006800680D900F98AE
:10284000006880680C900E98F64908400B900B9831
:1028500000281DD1FFE70EA800788006002816D5B5
:10286000FFE70DA800788006002806D4FFE70CA833
:10287000C078C00600280AD5FFE70F98406F0028EF
:1028800004D0FFE70F98416F8847FFE7A8E2FFE712
:102890000B98002800D102E10C98E349084205D1C9
:1028A000FFE70D98E149084200D1F8E00EA8007852
:1028B000C007002810D0FFE70DA84078C007002807
:1028C0000AD0FFE70F980068012303620F99902256
:1028D000885818438850FFE70EA800788007002822
:1028E00011D5FFE70CA80078C00700280BD0FFE740
:1028F0000F980168022008620F99902288580423DB
:1029000018438850FFE70EA800784007002811D52B
:10291000FFE70CA80078C00700280BD0FFE70F984E
:102920000168042008620F999022885802231843F6
:102930008850FFE70EA800780007002815D5FFE7AC
:102940000DA800788006002805D4FFE70C98B6494A
:1029500008420AD0FFE70F980068082303620F9926
:102960009022885818438850FFE70EA84078000747
:10297000002812D5FFE70DA8C078400700280CD525
:10298000FFE70F9801680120C00208620F999022AA
:102990008858202318438850FFE70F98902140580B
:1029A00000287BD0FFE70EA800788006002816D507
:1029B000FFE70DA800788006002806D4FFE70CA8E2
:1029C000C078C00600280AD5FFE70F98406F00289E
:1029D00004D0FFE70F98416F8847FFE7FFE70F98A4
:1029E000902140580A900F98006880684021084064
:1029F000402806D0FFE70AA800782821084244D0E2
:102A0000FFE70F9801F076F90F980068806840069C
:102A1000002835D5FFE7FFE7EFF3108017901798F0
:102A2000099001202790279880F310880F9801685B
:102A3000886840229043886009982690269880F301
:102A40001088FFE70F9880214058002813D0FFE737
:102A50000F9880214258E44890630F984058FEF741
:102A600005F9002806D0FFE70F9880214058816BB8
:102A70008847FFE703E00F98FFF7D1FEFFE703E089
:102A80000F98FFF7CCFEFFE707E00F98FFF7C7FEB0
:102A90000F99902200208850FFE7FFE7A0E10F98F0
:102AA000C06E012800D03AE10EA80078C0060028C8
:102AB00000D434E10DA80078C006002800D42EE12F
:102AC0000F980168102008620F980068806840061F
:102AD000002800D4B8E00F98802140580068416871
:102AE00008A801800088002800D189E008A8008893
:102AF0000F995C22895A884200DB81E008980F997F
:102B00005E2288520F988021405800680068800635
:102B1000002868D4FFE7FFE7EFF3108016901698BF
:102B2000079001222592259880F310880F9801685C
:102B3000086812029043086007982490249880F354
:102B40001088FFE7FFE7EFF31080159015980690C7
:102B500001222392239880F310880F9801688868D7
:102B60009043886006982290229880F31088FFE7AF
:102B7000FFE7EFF310801490149805900120219046
:102B8000219880F310880F9801688868402290434C
:102B9000886005982090209880F31088FFE70F99AF
:102BA0008C22202088500F990020C866FFE7EFF3A1
:102BB000108013901398049001201F901F9880F3A9
:102BC00010880F98016808681022904308600498E4
:102BD0001E901E9880F31088FFE70F9880214058C0
:102BE000FDF7E4FFFFE70F99022008670F985C21CB
:102BF000415A5E22825A891A89B2FFF76EFD22E09D
:102C000008A800880F995C22895A88421AD1FFE7E8
:102C10000F9880214058006800688006002810D571
:102C200006E0C0460F08000001000010200100046B
:102C30000F99022008670F985C21415AFFF74DFD5C
:102C4000FFE7FFE7FFE7CBE00F9A5C20105A5E2119
:102C5000525A801A03AA10800F98405A00285DD05B
:102C6000FFE703A80088002858D0FFE7FFE7EFF34D
:102C7000108012901298029001201D901D9880F3F0
:102C800010880F9801680868092252019043086073
:102C900002981C901C9880F31088FFE7FFE7EFF381
:102CA000108011901198019001201B901B9880F3C7
:102CB00010880F98016888684A4A10408860019817
:102CC0001A901A9880F31088FFE70F998C22202021
:102CD00088500F990020C8660F994867FFE7EFF307
:102CE000108010901098009001201990199880F38E
:102CF00010880F98016808681022904308600098B7
:102D00001890189880F31088FFE70F990220086741
:102D10000F9803A90988FFF7E0FCFFE760E00EA821
:102D20008078C00600280FD5FFE70CA88078400601
:102D3000002809D5FFE70F98016801200005086207
:102D40000F98FFF768FD4BE00EA8007800060028FA
:102D500016D5FFE70DA800780006002806D4FFE787
:102D60000CA88078000600280AD5FFE70F98806F2E
:102D7000002804D0FFE70F98816F8847FFE72FE016
:102D80000EA80078400600280AD5FFE70DA80078B5
:102D90004006002804D5FFE70F9801F007F81FE070
:102DA0000EA88078000600280AD5FFE70DA8C07895
:102DB0004006002804D5FFE70F98FFF728FD0FE035
:102DC0000EA8C078C00700280AD0FFE70DA8C07879
:102DD0000006002804D5FFE70F98FFF784FCFFE703
:102DE00028B080BDFEFFFFEFD53B000880B582B064
:102DF00000900098002804D1FFE701A90120087085
:102E00004AE000988069002801D0FFE700E0FFE772
:102E1000009888214058002808D1FFE700998422B3
:102E200000208854009800F03BF8FFE700998822C2
:102E300024208850009801680868012290430860A7
:102E40000098806A002804D0FFE7009800F064FD35
:102E5000FFE7009801F01EF8012804D1FFE701A95F
:102E60000120087018E00098016848680922D20221
:102E7000904348600098016888682A2290438860DF
:102E8000009801680868012210430860009800F06B
:102E9000F1FD01A90870FFE701A8007802B080BD2C
:102EA00080B594B01390002004901290119010906F
:102EB0000F900E900D900C900B900A900990089036
:102EC000079013980068924988425ED1FFE701207D
:102ED00007900020089007A8FEF774FD002803D093
:102EE000FFE7FDF75BFEFFE7FFE7294802680121E6
:102EF00089030A4302600068084006900698FFE7CD
:102F0000FFE72448026804210A4302600068084081
:102F100005900598FFE730200E9002200F900020CA
:102F20000190109011900120029012901A480EA961
:102F3000FEF752F9019A029918480390184B036062
:102F40003323436010238360C260802303614261A6
:102F50008261C26149030162FDF79EFF002803D030
:102F6000FFE7FDF71BFEFFE7FFE713980B49C1677B
:102F700013988862FFE71B20009000221146FEF79D
:102F8000D4FC0098FEF7C6FCFFE714B080BDC04635
:102F90004010024034100240000800505801002048
:102FA0000800024080B588B00390029101A8028019
:102FB000039888214058202800D083E002980028F8
:102FC00005D0FFE701A80088002804D1FFE704A985
:102FD000012008707AE00398806801210903884283
:102FE00010D1FFE70398006900280BD1FFE702A882
:102FF0000078C007002804D0FFE704A9012008706A
:1030000064E0FFE702980399086501980399542248
:1030100088520198039956228852039990220020E1
:10302000885003998822212088500398C06F002877
:1030300029D0FFE70398C16F2648C8620398C16F83
:10304000254808630398C16F244848630398C16FFB
:1030500000208863039AD06F116D1268283201AB8B
:103060001B88FDF79BFF00280CD0FFE703999022F7
:1030700010208850039988222020885004A901201C
:10308000087023E0FFE70398016840200862FFE72B
:10309000EFF31080059005980090012007900798A5
:1030A00080F3108803980168886880221043886044
:1030B00000980690069880F31088FFE704A9002086
:1030C000087003E004A902200870FFE704A8007854
:1030D00008B080BD593C0008DD3C0008EB3B00080F
:1030E00080B582B0019001980068094988420CD1EE
:1030F000FFE700F0C1FE009006490020087000982C
:1031000000F0B0FE01F07EF8FFE702B080BDC046DF
:10311000003801400103002081B0009001B07047E9
:10312000FFE7FEE784B0014601A80170002100918D
:103130000078022803DBFFE7002002900EE0EFF3A7
:10314000108072B6039001A80078142141431D48F5
:103150004058009062B600980290FFE7029804B0D1
:103160007047C04682B00146684601700078022868
:1031700003DBFFE70020019008E068460078142197
:10318000414310484018C0680190FFE7019802B021
:103190007047C04682B00146684601700078022838
:1031A00003DBFFE70020019008E068460078142167
:1031B00041430448401880680190FFE7019802B03D
:1031C0007047C046A002002002480068072109039A
:1031D000084070470810024080B582B0FFE70A48F7
:1031E000026801210A4302600068084001900198CA
:1031F000FFE70920009000221146FEF796FB009899
:10320000FEF788FB02B080BD3810024070B598B060
:10321000002017901690159014901390FFE78048A7
:10322000026804210A430260006808401290129864
:10323000FFE7FFE77A48026820210A43026000683E
:10324000084011901198FFE7FFE7754802680121D7
:103250000A4302600068084010901098FFE7FFE7FB
:103260006F48026802210A430260006808400F901C
:103270000F98FFE7FFE76A48026808210A430260E7
:10328000006808400E900E98FFE76648099066496E
:10329000009100220C92FEF732F90C9A05200B9057
:1032A0000007049061490191FEF729F90C9A6048E2
:1032B000079001242146FEF722F90C9A5D480690FA
:1032C0005D490391FEF71BF909980C9903220592B9
:1032D000D50213951491159113A90A91FDF77CFF5E
:1032E000009B09980A990C9A1393149415921692BC
:1032F000FDF772FF059B09980A990C9A61267602E0
:10330000139614931592FDF767FF019B04980A9991
:103310000C9A1393149415921692FDF75DFF07987B
:103320000A990C9A1394149415921692FDF754FF6F
:1033300007980A990C9A414B139311231B0402938B
:1033400014931592FDF748FF07980A990C9A3C4B85
:10335000139314921592FDF73FFF029B04980A996C
:103360000C9A2602139614931592FDF735FF0498D4
:103370000A990C9A41235B02139314921592FDF75C
:103380002BFF039B06980A990C9A13931494159299
:103390001692FDF721FF0498059B0A990C9A139544
:1033A00014931592FDF718FF059B06980A990C9A3D
:1033B0000C25139514931592FDF70EFF06980A99A4
:1033C0000C9A4023139314921592FDF705FF07986A
:1033D0000A990C9A7F23DB0013931492022208921D
:1033E0001592FDF7F9FE089A09980A990C9BA40218
:1033F000139414931592FDF7EFFE0B980C9A114657
:10340000FEF793FA0B98FEF785FA0C9A07200D90B9
:103410001146FEF78AFA0D98FEF77CFA18B070BDD7
:103420003410024000080050CF210000FF040000CB
:1034300000040050000C0050330300000250000054
:1034400004A0000080B582B01648019016490160C2
:1034500016494160002181600122C2600161416121
:103460008161C1610162FEF701F9002803D0FFE725
:10347000FDF794FBFFE70B480021FEF75BF80028FF
:1034800003D0FFE7FDF78AFBFFE706480021FEF7C0
:103490009CF8002803D0FFE7FDF780FBFFE702B0B0
:1034A00080BDC046B801002000580040B57DB11075
:1034B00080B582B01C4800901C490160E12149029E
:1034C0004160002101918160C16001610C22426173
:1034D0008161C161016241628162FFF787FC00285E
:1034E00003D0FFE7FDF75AFBFFE70F480021FFF786
:1034F00046F9002803D0FFE7FDF750FBFFE70A4835
:103500000021FFF7F4F8002803D0FFE7FDF746FBA2
:10351000FFE70548FFF7A4F8002803D0FFE7FDF711
:103520003DFBFFE702B080BD0C02002000380140E7
:1035300082B0EFF3108072B60190354800680090B9
:1035400062B6009802B0704780B5FDF705FB2D49C3
:1035500008702E49002008702D49086080BDC046C3
:1035600080B584B0FDF7E2FF039003982449096811
:10357000401A002801D1FFE73FE003982049086086
:10358000FDF7EAFA02A908701E4800788100029847
:10359000014301A8017001781B48415C6846017035
:1035A00000214056002824D0FFE7009A17480178F0
:1035B0008918017000214056022808DBFFE71449F2
:1035C0000868401C086011490020087010E00021C4
:1035D0000E4840560121C943884208DCFFE70C49E8
:1035E0000868401E0860094900200870FFE7FFE7EF
:1035F000FFE7029803490870FFE704B080BDC046AA
:10360000C8020020FC0200201C50000850000020CE
:103610005401002084B0014601A8017000210091EE
:103620000078022803DBFFE7002002900EE0EFF3B2
:10363000108072B6039001A80078142141431D4800
:103640004058009062B600980290FFE7029804B0DC
:103650007047C04682B00146684601700078022873
:1036600003DBFFE70020019008E0684600781421A2
:10367000414310484018C0680190FFE7019802B02C
:103680007047C04682B00146684601700078022843
:1036900003DBFFE70020019008E068460078142172
:1036A00041430448401880680190FFE7019802B048
:1036B0007047C046D402002080B500F03FFF00F004
:1036C000C1FF80BD80B5FFF73FFFFDF747F8034816
:1036D00000F0E8FF6420FDF7E5FC80BD54500008D1
:1036E000FFE7FEE7704700002C480088084909887A
:1036F000401A41424841704780B52848008800F090
:1037000009F803490988401A4142484180BDC04632
:10371000FE02002081B00146684601800099491CE4
:103720000180008801214902884204DBFFE76946E5
:1037300000200880FFE76846008801B0704700005D
:1037400080B584B003A9087002A90020087000F0B9
:1037500093FB0190FFF7D0FF00280FD1FFE70399FB
:103760000E48009003880E4AD1540088FFF7D2FF1C
:103770000099088002A90120087007E0094908683B
:10378000401C086002A900200870FFE7019800F0C3
:1037900069FB02A8007804B080BDC046B4010020D7
:1037A00002030020040500207047000080B584B0AB
:1037B00002900298401E000E002803D0FFE701206F
:1037C000039011E00298401E094908600020019012
:1037D000C043032100F046FE019806490860064AEE
:1037E000072111600390FFE7039804B080BDC04635
:1037F00014E000E018E000E010E000E080B5FEF723
:1038000003F880BD10B594B007A802903421FCF7EE
:10381000B0FC0020009006900590049003900120D9
:1038200001904002FEF790F8009A01990298022355
:1038300007930C020A940B9240240C940E930F935E
:103840001092082211924A04129249071391FEF72E
:10385000B1FB002803D0FFE7FDF7A0F9FFE7072041
:1038600003900221049100200590069003A8FEF722
:10387000CDF9002803D0FFE7FDF790F9FFE714B07A
:1038800010BD704770B58AB009900998406E002845
:1038900008D1FFE709996A22012088520999682214
:1038A000885233E008A901910820087007A9087020
:1038B000099800688068072252061040400E06AA48
:1038C00002921070099800688068420F05A8027083
:1038D000097802780E480490805C48430D490391B2
:1038E000895CFCF751FC019B029A039904460498F9
:1038F000099D6A26AC531B781278805C5843895C1A
:10390000FCF742FC099968228852FFE70AB070BDB3
:10391000345000082C50000881B0009000982821F5
:10392000405C000700280CD5FFE70098006840685D
:103930000121C903884300998A6B104309684860D4
:10394000FFE700982821405CC00700280CD0FFE763
:103950000098006840680121490488430099CA6AB8
:10396000104309684860FFE700982821405C800701
:1039700000280CD5FFE70098006840680121090481
:10398000884300990A6B104309684860FFE7009874
:103990002821405C400700280CD5FFE7009800680C
:1039A000406801218904884300994A6B10430968E3
:1039B0004860FFE700982821405CC00600280CD52D
:1039C000FFE7009800688068012109038843009997
:1039D000CA6B104309688860FFE700982821405CA3
:1039E000800600280CD5FFE7009800688068012158
:1039F0004903884300990A6C104309688860FFE70F
:103A000000982821405C400600281DD5FFE700985B
:103A100000684068012109058843009A536C1843E7
:103A2000126850600098406C88420CD1FFE7009803
:103A30000068406803214905884300998A6C104357
:103A400009684860FFE7FFE700982821405C00060E
:103A500000280CD5FFE70098006840680121C904E0
:103A600088430099CA6C104309684860FFE701B0B9
:103A70007047000080B590B0059005999022002015
:103A80008850FDF753FD0490059800680068000712
:103A9000002832D5FFE70598049B4D49009101218C
:103AA0004905002200F03CFC002825D0FFE7FFE795
:103AB000EFF3108009900998039001200F900F9860
:103AC00080F3108805980168086880229043086098
:103AD00003980E900E9880F31088FFE705998822CE
:103AE00020208850FFE70599842200208854FFE7B2
:103AF00006A90320087066E0FFE7059800680068E3
:103B00004007002849D5FFE70598049B30490091FC
:103B100001218905002200F003FC00283CD0FFE7CA
:103B2000FFE7EFF3108008900898029001200D90B5
:103B30000D9880F3108805980168086809225201E1
:103B40009043086002980C900C9880F31088FFE76F
:103B5000FFE7EFF3108007900798019001220B9286
:103B60000B9880F3108805980168886890438860F6
:103B700001980A900A9880F31088FFE705998C2233
:103B800020208850FFE70599842200208854FFE711
:103B900006A90320087016E0FFE705998822202077
:103BA000885005998C22885005990020C86605998F
:103BB0000867FFE70599842200208854FFE706A9DB
:103BC00000200870FFE706A8007810B080BDC0464E
:103BD000FFFFFF0180B582B001900198806A0090DC
:103BE0000098FEF71CFE02B080BD80B584B0039043
:103BF0000398806A029002988821405801900298A8
:103C00008C214058009002980068806800060028C7
:103C100008D5FFE70198212804D1FFE7029800F0BA
:103C2000EBF8FFE70298006880684006002808D596
:103C3000FFE70098222804D1FFE7029800F05AF825
:103C4000FFE7029990228858102318438850029861
:103C5000FEF7E5FD04B080BD80B58AB003900398FF
:103C6000806A0290039800680068800600282FD4BC
:103C7000FFE7FFE7EFF31080059005980190012022
:103C80000990099880F3108802980168886880225A
:103C90009043886001980890089880F31088FFE7A7
:103CA000FFE7EFF310800490049800900120079044
:103CB000079880F310880298016808684022104332
:103CC000086000980690069880F31088FFE703E0EC
:103CD0000298FFF705FAFFE70AB080BD80B582B011
:103CE00001900198806A00900098FFF715FA02B0E1
:103CF00080BD00008DB00390FFE7EFF310800690C9
:103D00000698029001200C900C9880F3108803987C
:103D100001680868092252019043086002980B90DC
:103D20000B9880F31088FFE7FFE7EFF31080059012
:103D30000598019001200A900A9880F31088039852
:103D400001688868184A10408860019809900998AD
:103D500080F31088FFE70398C06E012818D1FFE7B1
:103D6000FFE7EFF310800490049800900120089082
:103D7000089880F31088039801680868102290431F
:103D8000086000980790079880F31088FFE7FFE726
:103D900003998C222020885003990020C86603993B
:103DA00048670DB07047C046FEFFFFEF80B586B094
:103DB0000290FFE7EFF31080039003980190012039
:103DC0000590059880F310880298016808684022E1
:103DD0009043086001980490049880F31088FFE7EE
:103DE0000299882220208850029900208867029832
:103DF000FFF776F906B080BD89B00290FFE7EFF3D8
:103E0000108004900498019001200890089880F395
:103E10001088029801680868C022904308600198E1
:103E20000790079880F31088FFE7FFE7EFF3108013
:103E300003900398009001220692069880F3108860
:103E4000029801688868D2059043886000980590C0
:103E5000059880F31088FFE7029988222020885077
:103E600009B0704781B000900098002802D1FFE7A8
:103E700062B6FFE701B0704783B0EFF310800190A6
:103E800001980090EFF3108072B60290009803B092
:103E90007047000080B58EB00D9008A90020087012
:103EA0000D9988680A6910434A691043C969084333
:103EB0000C900D9800680068C94908400C990843A7
:103EC0000D99096808600D9800684068032109038E
:103ED00088430D99CA681043096848600D98806945
:103EE0000C900D98016A0C9808430C900D9800688E
:103EF0008068BC4908400C9908430D99096888609E
:103F00000D980068C06A0F2188430D994A6A1043D2
:103F10000968C862FFE70D980068B34988422AD152
:103F2000FFE7B548006803210840059003281DD825
:103F30000598810001A040588746C0464D3F0008C3
:103F40005D3F0008553F0008653F00080AA90020B2
:103F500008700FE00AA9022008700BE00AA90420EB
:103F6000087007E00AA90820087003E00AA91020D9
:103F70000870FFE75CE00D9800689C4988423CD1DE
:103F8000FFE79D4800680C21084004900C282FD8BA
:103F90000498810001A040588746C046D13F0008E0
:103FA000F13F0008F13F0008F13F0008E13F000841
:103FB000F13F0008F13F0008F13F0008D93F000839
:103FC000F13F0008F13F0008F13F0008E93F000819
:103FD0000AA9002008700FE00AA9022008700BE06F
:103FE0000AA90420087007E00AA90820087003E065
:103FF0000AA910200870FFE719E00D9800687C49B5
:10400000884204D1FFE70AA9002008700EE00D984D
:1040100000687849884204D1FFE70AA900200870A7
:1040200003E00AA910200870FFE7FFE7FFE7FFE7BA
:10403000FFE70D98C0690121C903884266D1FFE7F7
:104040000AA800780390082825D80398810001A0C9
:104050004058874679400008974000088140000892
:1040600097400008874000089740000897400008E4
:10407000974000088F400008FDF7F8FE069010E01A
:104080005E4806900DE0FDF705FF069009E001206F
:10409000C003069005E00020069008A901200870E2
:1040A000FFE70698002830D0FFE706980D990291A7
:1040B000496A4A005249895AFCF766F80299400059
:1040C00049684A088018FCF75FF809900998102899
:1040D00016D3FFE709A84088002811D1FFE7099906
:1040E0000F2081430BA8018009990E2211404A0834
:1040F0000B991143018000880D990968C86003E09D
:1041000008A901200870FFE7FFE759E00AA8007836
:104110000190082825D80198810001A040588746C1
:1041200045410008634100084D4100086341000813
:1041300053410008634100086341000863410008DF
:104140005B410008FDF792FE069010E02B480690B8
:104150000DE0FDF79FFE069009E00120C0030690E8
:1041600005E00020069008A901200870FFE70698E6
:10417000002824D0FFE706980D990091496A4A006B
:104180001F49895AFCF700F8009949684A088018C5
:10419000FBF7FAFF0990099810280BD3FFE709A84D
:1041A0004088002806D1FFE709A800880D99096812
:1041B000C86003E008A901200870FFE7FFE7FFE7F8
:1041C0000D996A22012088520D99682288520D9912
:1041D000002048670D99886708A800780EB080BD58
:1041E000F369FFCFFFF4FF110038014000440040A5
:1041F00000480040004C0040541002400024F400ED
:104200003C50000810B586B005A900200880FFF7D3
:1042100033FE02903D480078002804D0FFE7029862
:10422000FFF720FE70E0FFF75FFA002804D0FFE7F9
:104230000298FFF717FE67E0344901200870344800
:10424000008804A908803348008803A908800298E0
:10425000FFF708FEFFE705A801880020FF2901906D
:1042600009DCFFE704A8008803A90988401A411E59
:1042700088410190FFE70198C007002818D0FFE7A8
:1042800004A802882549895C05AC23885A1C228031
:10429000214AD1540499491C018000880121490216
:1042A000884204DBFFE704A900200880FFE7D2E78B
:1042B00005A8008800280AD1FFE7FFF7DDFD02907E
:1042C0001249002008700298FFF7CCFD1CE005A8F9
:1042D000028858481049FEF765FE00280AD1FFE71A
:1042E000FFF7CAFD02900498094908800298FFF779
:1042F000B9FD09E0FFF7C0FD0290044900200870F5
:104300000298FFF7AFFDFFE706B010BD01030020E4
:10431000FE020020B4010020510000200203002012
:1043200010B586B0089C0490039102A80270019316
:10433000FFE704980068C06903990840401A4142A9
:10434000484102A90978884266D1FFE70898401CD5
:10435000002860D0FFE7FDF7E9F80199401A0899B5
:10436000884204D8FFE70898002804D1FFE705A990
:104370000320087054E00498006800684007002893
:1043800048D5FFE70398802844D0FFE703984028EA
:1043900040D0FFE704980068C06908210840C008C1
:1043A000012816D1FFE704980168082000900862F0
:1043B0000498FFF79FFC0098049990228850FFE72B
:1043C0000499842200208854FFE705A90120087081
:1043D00026E004980068C0690121C9020840C00AAB
:1043E000012816D1FFE7049801680120C002086285
:1043F0000498FFF77FFC0499902220208850FFE763
:104400000499842200208854FFE705A9032008703E
:1044100006E0FFE7FFE78CE705A900200870FFE74B
:1044200005A8007806B010BD80B50248FEF7FCF97B
:1044300080BDC0460C02002081B001466846017074
:1044400000214056002809D4FFE7684601781F2064
:1044500001400120884002490860FFE701B0704731
:1044600000E100E070B582B0024601A80270009140
:1044700000214056002816D4FFE7002401A9085760
:104480000322D3431840174A805809578C07E50E7A
:10449000FF24AC40A043009CA401E4B2AC40204304
:1044A000194088501AE001A908780F2420400838E4
:1044B0000322D34318400A4A8058002549578D07E4
:1044C000EE0EFF25B540A843009DAD01EDB2B5400D
:1044D00028432140083919408850FFE702B070BDD9
:1044E0001CED00E000E400E080B582B00190009196
:1044F00001A80078FFF724F9FFF784FE019802B0C5
:1045000080BD80B582B000200190FDF787F9FFF7EC
:1045100079F9FEF77BFEFEF75FFEFEF793FFFEF7ED
:10452000C7FFFFF7CFF8FFE7FFF7C6F8FFF76AFE10
:10453000FAE780B5FCF7FAFF80BD0000F0B5A3B044
:10454000FFF70EF8FEF7F4FF2290FCF765F9002064
:104550001390FFF75FF8014613982191FFF77AF85F
:10456000014613982091FFF78DF81F9001201490B9
:10457000FFF750F8014614981E91FFF76BF80146BB
:1045800014981D91FFF77EF8014613981C91FEF7D1
:10459000C9FD014613981B91FEF7E4FD01461398EF
:1045A0001A91FEF7F7FD014614981991FEF7BAFD2E
:1045B000014614981891FEF7D5FD014614981791FD
:1045C000FEF7E8FD1690FFF7B4FF159015981B490C
:1045D0000968401AC0087D282ED3FFE715981749AF
:1045E0000C9108602299219A209B1F9812901E9C82
:1045F0001D9D1C9E1B9F1A98119019981090189839
:104600000F9017980E9016980D900C9800680A90CD
:104610000D9809900E9808900F98079010980690A2
:1046200011980590129804970396029501940090B2
:10463000034800F037F8FFE723B0F0BDCC020020BC
:104640006650000880B582B0FFF773FF01900198B3
:1046500011490968401AC0087D281AD3FFE701985C
:104660000D4908600D4800900078C2000C48811880
:1046700080588988FCF731FF00980178491C017047
:104680000078082804D3FFE7044900200870FFE7FA
:10469000FFE702B080BDC046D0020020000300202A
:1046A000080000200FB410B503A9044B044A029877
:1046B00000F0E8F810BC08BC04B01847E944000852
:1046C000000000202021020C01D010211046020A17
:1046D00001D010460839020901D01046091F82088E
:1046E00001D01046891E420801D0881E7047081A62
:1046F000704702E008C8121F08C1002AFAD17047AB
:104700007047002001E001C1121F002AFBD1704751
:10471000F0B51FB486B00998089A030D0021024332
:1047200014D05148514A18185043051411980128C3
:1047300010981AD0281A401C00264D4F4D4900965B
:1047400001910490002812DA444211E011980124EA
:1047500049A3012801D11098C1430698119A846099
:104760000360C26041600BB0F0BD4042E4E7044624
:10477000210500203F4A001C51410391029012E0A4
:10478000E00707D032463B4601990098FBF726FE2A
:104790000191009032463B4610461946FBF71EFE3B
:1047A00006460F466410002CEAD10498039B0028AB
:1047B000029A0999089806DAFBF710FE019B009A05
:1047C000FBF70CFE05E0FBF771FE019B009AFBF77F
:1047D0006DFE04460E460022284BFBF7FFFE03D871
:1047E0000020C043014607E00022254B2046314609
:1047F000FBF742FDFBF7D2FE102409E0002C0ADB98
:104800000A220023FBF708FD079B30321A55641E6D
:1048100002460A43F2D11122641C079B121B1C1989
:10482000119B012B03D0012308430ED10AE008435A
:1048300004D0112010900020119077E71098151ADD
:104840006D1E0BE01098824202DD00236D1C03E018
:10485000824201DA00236D1E002BEED006981199DA
:104860008260C16030C07EE701FCFFFF104D000098
:10487000000014400000F03F300000000000F04352
:104880000000E03FFFB597B00646002518E2252856
:1048900077D100242746FD49049400E00443761CA8
:1048A00032780120203A90400842F7D130782A2807
:1048B0000ED00222307801463039092916D80499E1
:1048C0000A235943303940181443761C0490F1E709
:1048D000189802C804911890002904DA01204003B6
:1048E00004434842049002200443761C30782E286A
:1048F00014D1042004437078761C2A2809D1189812
:10490000761C80C8189009E00A214F43303FC71930
:10491000761C3078014630390929F5D930786C2871
:1049200010D006DC4C281AD068280ED06A2817D17F
:1049300004E0742813D07A2812D110E00120400539
:1049400004430CE00121090501E0032109050C43A2
:104950007178814203D1012000052418761C761C51
:104960003078119066280BD013DC58287DD009DCF4
:1049700000287BD04528F6D04628F4D047281AD105
:10498000A5E118E0632835D0642870D0652812D1DD
:104990009DE170286CD008DC6728F1D069287BD0B5
:1049A0006E280DD06F2806D1BAE073282ED0752856
:1049B00071D0782859D01A9A199990476D1C7EE1C8
:1049C0006002400F022809D003280DD0042818984F
:1049D00001680DD00D60001D189070E11898EA175D
:1049E00001680D604A60F6E7189801680D80F2E7EB
:1049F0000D70F0E718986A4601781172001D189042
:104A00000020507202A80090012005E0189802C80A
:104A1000189000200091C04361070DD5002101E0EE
:104A20000199491C0191B94212DA8142F8DB009ADE
:104A3000515C0029F4D10BE0002101E00199491CEF
:104A400001918142FADB019A0099895C0029F5D134
:104A5000019904981A9B471A21463846199A00F082
:104A600097FA0199401945180BE04FE02CE113E04B
:104A70004EE0009800990078491C00911A9A199903
:104A800090470198401E0190401CF2D121463846C3
:104A90001A9B199A10E137E00A2000210090019139
:104AA0006002410F022907D0189A01CA1892C21752
:104AB0009446032908D00AE01898C01DC108C9000F
:104AC00005C91891944607E000B2C217944604291C
:104AD00002D140B2C1178C4600226146944506DAE5
:104AE0000A460021404291418C462D2102E02105D9
:104AF00004D52B216A461173012103E0E10701D09F
:104B00002021F7E7029155E00A200AE0102008E092
:104B1000102000900021042004430191082703E0A5
:104B200008200021019100906002410F022907D066
:104B3000189A01CA189200229446032908D008E066
:104B40001898C01DC108C90005C91891944603E012
:104B500080B2042900D1C0B200210291210729D5D9
:104B60001199702906D0009A1021019B4A401A43DE
:104B700005D00EE040216A461173012108E061462C
:104B8000014306D030216A461173119951730221F5
:104B90000291009A0821019B4A401A430AD16146BA
:104BA000014301D1610705D530216A461173012106
:104BB0007F1E02911199582904D035A10E910DA99B
:104BC0000D910DE037A1F9E76146019B009AFBF7D3
:104BD00023FB0E9B8C469B5C0D9A521E0D9213700C
:104BE00061460143F0D10D9805A9081A20300190C3
:104BF000600703D501200004844300E001270198E9
:104C0000874201DD381A00E0002001990090411828
:104C1000029809180498401A0490E00306D421462B
:104C20001A9B199A049800F0B3F94519002706E079
:104C300003A81A9AC05D199990476D1C7F1C0298B1
:104C40008742F5DBE0030CD521461A9B199A04989C
:104C500000F09EF9451904E01A9A302019999047FE
:104C60006D1C0099481E00900029F5DC08E00D98A5
:104C70000D990078491C0D911A9A199990476D1C4D
:104C80000199481E01900029F1DC63E10928010027
:104C900030313233343536373839616263646566B2
:104CA0000000000030313233343536373839414274
:104CB000434445460000000000F05AF94519761CAF
:104CC0003078002800D0E2E528461BB0F0BD600730
:104CD00000D406271898C01DC108C90048680A6892
:104CE0000831C30FDB071891190001D09CA108E01F
:104CF000210501D59BA104E0E10701D09AA100E0C4
:104D00009AA1430011985B08109165280CD006DC2D
:104D1000452809D046281DD0472841D141E06628C2
:104D200018D067283CD13CE00021112F01DB112075
:104D300000E0781C0191009008A911A8FFF7E8FC99
:104D4000139905910021119A15927F1C12980197D1
:104D5000009150E00120C00703900120019008A9B4
:104D6000009711A8FFF7D4FC139A1499059200221A
:104D7000119B009212981593059A0192002901D077
:104D8000104602E0791C40180190381A01D50198AC
:104D900004E04042401E0090781C0190C01B02902D
:104DA00043E0012F00DA01270021112F01DD11203E
:104DB00000E038460191009008A911A8FFF7A8FC6F
:104DC00013990591119A002112981592009101975B
:104DD00021070CD40599B94201DB019900E001914A
:104DE000012904DD159A491E515C302906D0B842CC
:104DF00001DA011D05DA0121029115E00199491E30
:104E0000EDE7002805DC0099411800910199091A85
:104E100003E0019A411C914200DD01910099401A82
:104E2000401C02900120C0070390200706D402997D
:104E30000198814202DB0020C043029000206946B5
:104E4000C87707AF012103980337C907884224D0E8
:104E5000022011902B201290039800280CDA404277
:104E600003902D20129007E00A210398FBF78CF99C
:104E700030317F1E039039701199481E119000291E
:104E8000F2DC03980028EFD1791E12980870307870
:104E9000202108404530BF1E387006A8C01BC01D29
:104EA000039010980078002800D001200199411843
:104EB0000298C0170918039809180498401A401E50
:104EC0000490E00306D421461A9B199A049800F036
:104ED0005FF8451910980078002803D01A9A19999C
:104EE00090476D1CE00324D521461A9B199A04981B
:104EF00000F04EF845191CE00098002807DB0099E7
:104F00000598884203DD1598405C199901E01999CC
:104F100030201A9A904700986D1C401C009002980F
:104F2000401E0290002804D11A9A2E201999904709
:104F30006D1C0199481E01900029DDDC05E03878E0
:104F40001A9A7F1C199990476D1C0399481E03906B
:104F50000029F4DC21461A9B199A0498ACE600005B
:104F60002D0000002B0000002000000000000000C9
:104F7000F8B5044600251E461746880404D405E00B
:104F800039462020B0476D1C641EF9D52846F8BD6F
:104F9000FFB50446002581B01E46C80301D5302761
:104FA00000E02027880404D505E038460399B0477F
:104FB0006D1C641EF9D5284605B0F0BD0000000048
:104FC00000000000000000000000000000000000E1
:104FD00000000000000000000000000001000000D0
:104FE00002000000030000000400000006000000B2
:104FF0000700000008000000090000000000000099
:10500000000000000000000000000000010000009F
:1050100002000000030000000400000000FF010087
:10502000010000FFFF0000010001FF00080402046E
:105030000801010101010103070100000100020054
:105040000400060008000A000C00100020004000C8
:105050008000000153797374656D2053746172741C
:105060006564210D0A004D656E753D256C64207CDC
:10507000204D313A20636E743D256C642072706D52
:105080003D256C64207070733D256C64207C204D40
:10509000323A20636E743D256C642072706D3D253C
:1050A0006C64207070733D256C64207C204A313A1A
:1050B00020636E743D256C642072706D3D256C64B8
:1050C000207070733D256C64207C204A323A206346
:1050D0006E743D256C642072706D3D256C6420708B
:1050E00070733D256C64207C2074696D653D256C72
:1050F000750D0A0018510008000000205000000043
:10510000F24600086851000850000020C008000066
:105110000247000800000000000000000024F40026
:10512000000000508000000000040050010000005A
:10513000000000502000000000000050400000006F
:10514000000C005020000000000C00500200000085
:10515000000C005010000000000C00500100000086
:08516000010000000400000042
:04000005080000B936
:00000001FF
